{
  "contractName": "AdvisorContract",
  "abi": [
    {
      "inputs": [
        {
          "internalType": "address",
          "name": "userContractAddress",
          "type": "address"
        }
      ],
      "stateMutability": "nonpayable",
      "type": "constructor"
    },
    {
      "anonymous": false,
      "inputs": [
        {
          "indexed": true,
          "internalType": "address",
          "name": "previousOwner",
          "type": "address"
        },
        {
          "indexed": true,
          "internalType": "address",
          "name": "newOwner",
          "type": "address"
        }
      ],
      "name": "OwnershipTransferred",
      "type": "event"
    },
    {
      "inputs": [],
      "name": "advisorsCount",
      "outputs": [
        {
          "internalType": "uint256",
          "name": "",
          "type": "uint256"
        }
      ],
      "stateMutability": "view",
      "type": "function",
      "constant": true
    },
    {
      "inputs": [
        {
          "internalType": "address",
          "name": "",
          "type": "address"
        }
      ],
      "name": "allowedUsers",
      "outputs": [
        {
          "internalType": "bool",
          "name": "",
          "type": "bool"
        }
      ],
      "stateMutability": "view",
      "type": "function",
      "constant": true
    },
    {
      "inputs": [
        {
          "internalType": "address",
          "name": "allowed",
          "type": "address"
        }
      ],
      "name": "newAllowedUser",
      "outputs": [],
      "stateMutability": "nonpayable",
      "type": "function"
    },
    {
      "inputs": [],
      "name": "owner",
      "outputs": [
        {
          "internalType": "address",
          "name": "",
          "type": "address"
        }
      ],
      "stateMutability": "view",
      "type": "function",
      "constant": true
    },
    {
      "inputs": [],
      "name": "renounceOwnership",
      "outputs": [],
      "stateMutability": "nonpayable",
      "type": "function"
    },
    {
      "inputs": [
        {
          "internalType": "address",
          "name": "newOwner",
          "type": "address"
        }
      ],
      "name": "transferOwnership",
      "outputs": [],
      "stateMutability": "nonpayable",
      "type": "function"
    },
    {
      "inputs": [
        {
          "internalType": "string",
          "name": "name",
          "type": "string"
        },
        {
          "internalType": "string",
          "name": "document",
          "type": "string"
        },
        {
          "internalType": "string",
          "name": "documentType",
          "type": "string"
        },
        {
          "internalType": "string",
          "name": "country",
          "type": "string"
        },
        {
          "internalType": "string",
          "name": "state",
          "type": "string"
        },
        {
          "internalType": "string",
          "name": "city",
          "type": "string"
        },
        {
          "internalType": "string",
          "name": "cep",
          "type": "string"
        }
      ],
      "name": "addAdvisor",
      "outputs": [
        {
          "components": [
            {
              "internalType": "uint256",
              "name": "id",
              "type": "uint256"
            },
            {
              "internalType": "address",
              "name": "advisorWallet",
              "type": "address"
            },
            {
              "internalType": "enum UserType",
              "name": "userType",
              "type": "uint8"
            },
            {
              "internalType": "string",
              "name": "name",
              "type": "string"
            },
            {
              "internalType": "string",
              "name": "document",
              "type": "string"
            },
            {
              "internalType": "string",
              "name": "documentType",
              "type": "string"
            },
            {
              "components": [
                {
                  "internalType": "string",
                  "name": "country",
                  "type": "string"
                },
                {
                  "internalType": "string",
                  "name": "state",
                  "type": "string"
                },
                {
                  "internalType": "string",
                  "name": "city",
                  "type": "string"
                },
                {
                  "internalType": "string",
                  "name": "cep",
                  "type": "string"
                }
              ],
              "internalType": "struct AdvisorAddress",
              "name": "advisorAddress",
              "type": "tuple"
            }
          ],
          "internalType": "struct Advisor",
          "name": "",
          "type": "tuple"
        }
      ],
      "stateMutability": "nonpayable",
      "type": "function"
    },
    {
      "inputs": [],
      "name": "getAdvisors",
      "outputs": [
        {
          "components": [
            {
              "internalType": "uint256",
              "name": "id",
              "type": "uint256"
            },
            {
              "internalType": "address",
              "name": "advisorWallet",
              "type": "address"
            },
            {
              "internalType": "enum UserType",
              "name": "userType",
              "type": "uint8"
            },
            {
              "internalType": "string",
              "name": "name",
              "type": "string"
            },
            {
              "internalType": "string",
              "name": "document",
              "type": "string"
            },
            {
              "internalType": "string",
              "name": "documentType",
              "type": "string"
            },
            {
              "components": [
                {
                  "internalType": "string",
                  "name": "country",
                  "type": "string"
                },
                {
                  "internalType": "string",
                  "name": "state",
                  "type": "string"
                },
                {
                  "internalType": "string",
                  "name": "city",
                  "type": "string"
                },
                {
                  "internalType": "string",
                  "name": "cep",
                  "type": "string"
                }
              ],
              "internalType": "struct AdvisorAddress",
              "name": "advisorAddress",
              "type": "tuple"
            }
          ],
          "internalType": "struct Advisor[]",
          "name": "",
          "type": "tuple[]"
        }
      ],
      "stateMutability": "view",
      "type": "function",
      "constant": true
    },
    {
      "inputs": [
        {
          "internalType": "address",
          "name": "addr",
          "type": "address"
        }
      ],
      "name": "getAdvisor",
      "outputs": [
        {
          "components": [
            {
              "internalType": "uint256",
              "name": "id",
              "type": "uint256"
            },
            {
              "internalType": "address",
              "name": "advisorWallet",
              "type": "address"
            },
            {
              "internalType": "enum UserType",
              "name": "userType",
              "type": "uint8"
            },
            {
              "internalType": "string",
              "name": "name",
              "type": "string"
            },
            {
              "internalType": "string",
              "name": "document",
              "type": "string"
            },
            {
              "internalType": "string",
              "name": "documentType",
              "type": "string"
            },
            {
              "components": [
                {
                  "internalType": "string",
                  "name": "country",
                  "type": "string"
                },
                {
                  "internalType": "string",
                  "name": "state",
                  "type": "string"
                },
                {
                  "internalType": "string",
                  "name": "city",
                  "type": "string"
                },
                {
                  "internalType": "string",
                  "name": "cep",
                  "type": "string"
                }
              ],
              "internalType": "struct AdvisorAddress",
              "name": "advisorAddress",
              "type": "tuple"
            }
          ],
          "internalType": "struct Advisor",
          "name": "",
          "type": "tuple"
        }
      ],
      "stateMutability": "view",
      "type": "function",
      "constant": true
    },
    {
      "inputs": [
        {
          "internalType": "address",
          "name": "addr",
          "type": "address"
        }
      ],
      "name": "advisorExists",
      "outputs": [
        {
          "internalType": "bool",
          "name": "",
          "type": "bool"
        }
      ],
      "stateMutability": "view",
      "type": "function",
      "constant": true
    }
  ],
  "bytecode": "0x60806040523480156200001157600080fd5b50604051620024bb380380620024bb833981810160405281019062000037919062000182565b620000576200004b6200009f60201b60201c565b620000a760201b60201c565b80600360006101000a81548173ffffffffffffffffffffffffffffffffffffffff021916908373ffffffffffffffffffffffffffffffffffffffff16021790555050620001fc565b600033905090565b60008060009054906101000a900473ffffffffffffffffffffffffffffffffffffffff169050816000806101000a81548173ffffffffffffffffffffffffffffffffffffffff021916908373ffffffffffffffffffffffffffffffffffffffff1602179055508173ffffffffffffffffffffffffffffffffffffffff168173ffffffffffffffffffffffffffffffffffffffff167f8be0079c531659141344cd1fd0a4f28419497f9722a3daafe3b4186f6b6457e060405160405180910390a35050565b6000815190506200017c81620001e2565b92915050565b6000602082840312156200019557600080fd5b6000620001a5848285016200016b565b91505092915050565b6000620001bb82620001c2565b9050919050565b600073ffffffffffffffffffffffffffffffffffffffff82169050919050565b620001ed81620001ae565b8114620001f957600080fd5b50565b6122af806200020c6000396000f3fe608060405234801561001057600080fd5b506004361061009e5760003560e01c8063e950f5b311610066578063e950f5b314610137578063ebae530f14610153578063f2fde38b14610183578063f3d1306d1461019f578063fdc140de146101cf5761009e565b80630b6f2df8146100a3578063715018a6146100c15780638da5cb5b146100cb578063a35f386c146100e9578063a8910e1014610119575b600080fd5b6100ab6101ff565b6040516100b89190611d50565b60405180910390f35b6100c961089a565b005b6100d3610922565b6040516100e09190611d0c565b60405180910390f35b61010360048036038101906100fe9190611835565b61094b565b6040516101109190611e0d565b60405180910390f35b610121610dc7565b60405161012e9190611e2f565b60405180910390f35b610151600480360381019061014c919061180c565b610dcd565b005b61016d6004803603810190610168919061180c565b610ea3565b60405161017a9190611e0d565b60405180910390f35b61019d6004803603810190610198919061180c565b6113f5565b005b6101b960048036038101906101b4919061180c565b6114ed565b6040516101c69190611d72565b60405180910390f35b6101e960048036038101906101e4919061180c565b61150d565b6040516101f69190611d72565b60405180910390f35b6060600060055467ffffffffffffffff811115610245577f4e487b7100000000000000000000000000000000000000000000000000000000600052604160045260246000fd5b60405190808252806020026020018201604052801561027e57816020015b61026b611633565b8152602001906001900390816102635790505b50905060005b600554811015610892576000600482815481106102ca577f4e487b7100000000000000000000000000000000000000000000000000000000600052603260045260246000fd5b9060005260206000200160009054906101000a900473ffffffffffffffffffffffffffffffffffffffff169050600260008273ffffffffffffffffffffffffffffffffffffffff1673ffffffffffffffffffffffffffffffffffffffff1681526020019081526020016000206040518060e0016040529081600082015481526020016001820160009054906101000a900473ffffffffffffffffffffffffffffffffffffffff1673ffffffffffffffffffffffffffffffffffffffff1673ffffffffffffffffffffffffffffffffffffffff1681526020016001820160149054906101000a900460ff1660078111156103ec577f4e487b7100000000000000000000000000000000000000000000000000000000600052602160045260246000fd5b6007811115610424577f4e487b7100000000000000000000000000000000000000000000000000000000600052602160045260246000fd5b81526020016002820180546104389061200b565b80601f01602080910402602001604051908101604052809291908181526020018280546104649061200b565b80156104b15780601f10610486576101008083540402835291602001916104b1565b820191906000526020600020905b81548152906001019060200180831161049457829003601f168201915b505050505081526020016003820180546104ca9061200b565b80601f01602080910402602001604051908101604052809291908181526020018280546104f69061200b565b80156105435780601f1061051857610100808354040283529160200191610543565b820191906000526020600020905b81548152906001019060200180831161052657829003601f168201915b5050505050815260200160048201805461055c9061200b565b80601f01602080910402602001604051908101604052809291908181526020018280546105889061200b565b80156105d55780601f106105aa576101008083540402835291602001916105d5565b820191906000526020600020905b8154815290600101906020018083116105b857829003601f168201915b50505050508152602001600582016040518060800160405290816000820180546105fe9061200b565b80601f016020809104026020016040519081016040528092919081815260200182805461062a9061200b565b80156106775780601f1061064c57610100808354040283529160200191610677565b820191906000526020600020905b81548152906001019060200180831161065a57829003601f168201915b505050505081526020016001820180546106909061200b565b80601f01602080910402602001604051908101604052809291908181526020018280546106bc9061200b565b80156107095780601f106106de57610100808354040283529160200191610709565b820191906000526020600020905b8154815290600101906020018083116106ec57829003601f168201915b505050505081526020016002820180546107229061200b565b80601f016020809104026020016040519081016040528092919081815260200182805461074e9061200b565b801561079b5780601f106107705761010080835404028352916020019161079b565b820191906000526020600020905b81548152906001019060200180831161077e57829003601f168201915b505050505081526020016003820180546107b49061200b565b80601f01602080910402602001604051908101604052809291908181526020018280546107e09061200b565b801561082d5780601f106108025761010080835404028352916020019161082d565b820191906000526020600020905b81548152906001019060200180831161081057829003601f168201915b50505050508152505081525050838381518110610873577f4e487b7100000000000000000000000000000000000000000000000000000000600052603260045260246000fd5b602002602001018190525050808061088a9061206e565b915050610284565b508091505090565b6108a2611567565b73ffffffffffffffffffffffffffffffffffffffff166108c0610922565b73ffffffffffffffffffffffffffffffffffffffff1614610916576040517f08c379a000000000000000000000000000000000000000000000000000000000815260040161090d90611ded565b60405180910390fd5b610920600061156f565b565b60008060009054906101000a900473ffffffffffffffffffffffffffffffffffffffff16905090565b610953611633565b600160003373ffffffffffffffffffffffffffffffffffffffff1673ffffffffffffffffffffffffffffffffffffffff16815260200190815260200160002060009054906101000a900460ff166109df576040517f08c379a00000000000000000000000000000000000000000000000000000000081526004016109d690611dcd565b60405180910390fd5b6109e83361150d565b15610a28576040517f08c379a0000000000000000000000000000000000000000000000000000000008152600401610a1f90611d8d565b60405180910390fd5b60006001600554610a399190611f06565b90506000600590506000604051806080016040528089815260200188815260200187815260200186815250905060006040518060e001604052808581526020013373ffffffffffffffffffffffffffffffffffffffff168152602001846007811115610ace577f4e487b7100000000000000000000000000000000000000000000000000000000600052602160045260246000fd5b81526020018d81526020018c81526020018b815260200183815250905080600260003373ffffffffffffffffffffffffffffffffffffffff1673ffffffffffffffffffffffffffffffffffffffff1681526020019081526020016000206000820151816000015560208201518160010160006101000a81548173ffffffffffffffffffffffffffffffffffffffff021916908373ffffffffffffffffffffffffffffffffffffffff16021790555060408201518160010160146101000a81548160ff02191690836007811115610bcd577f4e487b7100000000000000000000000000000000000000000000000000000000600052602160045260246000fd5b02179055506060820151816002019080519060200190610bee9291906116c4565b506080820151816003019080519060200190610c0b9291906116c4565b5060a0820151816004019080519060200190610c289291906116c4565b5060c0820151816005016000820151816000019080519060200190610c4e9291906116c4565b506020820151816001019080519060200190610c6b9291906116c4565b506040820151816002019080519060200190610c889291906116c4565b506060820151816003019080519060200190610ca59291906116c4565b5050509050506004339080600181540180825580915050600190039060005260206000200160009091909190916101000a81548173ffffffffffffffffffffffffffffffffffffffff021916908373ffffffffffffffffffffffffffffffffffffffff16021790555060056000815480929190610d219061206e565b9190505550600360009054906101000a900473ffffffffffffffffffffffffffffffffffffffff1673ffffffffffffffffffffffffffffffffffffffff16639c3eead933856040518363ffffffff1660e01b8152600401610d83929190611d27565b600060405180830381600087803b158015610d9d57600080fd5b505af1158015610db1573d6000803e3d6000fd5b5050505080945050505050979650505050505050565b60055481565b610dd5611567565b73ffffffffffffffffffffffffffffffffffffffff16610df3610922565b73ffffffffffffffffffffffffffffffffffffffff1614610e49576040517f08c379a0000000000000000000000000000000000000000000000000000000008152600401610e4090611ded565b60405180910390fd5b60018060008373ffffffffffffffffffffffffffffffffffffffff1673ffffffffffffffffffffffffffffffffffffffff16815260200190815260200160002060006101000a81548160ff02191690831515021790555050565b610eab611633565b600260008373ffffffffffffffffffffffffffffffffffffffff1673ffffffffffffffffffffffffffffffffffffffff1681526020019081526020016000206040518060e0016040529081600082015481526020016001820160009054906101000a900473ffffffffffffffffffffffffffffffffffffffff1673ffffffffffffffffffffffffffffffffffffffff1673ffffffffffffffffffffffffffffffffffffffff1681526020016001820160149054906101000a900460ff166007811115610fa0577f4e487b7100000000000000000000000000000000000000000000000000000000600052602160045260246000fd5b6007811115610fd8577f4e487b7100000000000000000000000000000000000000000000000000000000600052602160045260246000fd5b8152602001600282018054610fec9061200b565b80601f01602080910402602001604051908101604052809291908181526020018280546110189061200b565b80156110655780601f1061103a57610100808354040283529160200191611065565b820191906000526020600020905b81548152906001019060200180831161104857829003601f168201915b5050505050815260200160038201805461107e9061200b565b80601f01602080910402602001604051908101604052809291908181526020018280546110aa9061200b565b80156110f75780601f106110cc576101008083540402835291602001916110f7565b820191906000526020600020905b8154815290600101906020018083116110da57829003601f168201915b505050505081526020016004820180546111109061200b565b80601f016020809104026020016040519081016040528092919081815260200182805461113c9061200b565b80156111895780601f1061115e57610100808354040283529160200191611189565b820191906000526020600020905b81548152906001019060200180831161116c57829003601f168201915b50505050508152602001600582016040518060800160405290816000820180546111b29061200b565b80601f01602080910402602001604051908101604052809291908181526020018280546111de9061200b565b801561122b5780601f106112005761010080835404028352916020019161122b565b820191906000526020600020905b81548152906001019060200180831161120e57829003601f168201915b505050505081526020016001820180546112449061200b565b80601f01602080910402602001604051908101604052809291908181526020018280546112709061200b565b80156112bd5780601f10611292576101008083540402835291602001916112bd565b820191906000526020600020905b8154815290600101906020018083116112a057829003601f168201915b505050505081526020016002820180546112d69061200b565b80601f01602080910402602001604051908101604052809291908181526020018280546113029061200b565b801561134f5780601f106113245761010080835404028352916020019161134f565b820191906000526020600020905b81548152906001019060200180831161133257829003601f168201915b505050505081526020016003820180546113689061200b565b80601f01602080910402602001604051908101604052809291908181526020018280546113949061200b565b80156113e15780601f106113b6576101008083540402835291602001916113e1565b820191906000526020600020905b8154815290600101906020018083116113c457829003601f168201915b505050505081525050815250509050919050565b6113fd611567565b73ffffffffffffffffffffffffffffffffffffffff1661141b610922565b73ffffffffffffffffffffffffffffffffffffffff1614611471576040517f08c379a000000000000000000000000000000000000000000000000000000000815260040161146890611ded565b60405180910390fd5b600073ffffffffffffffffffffffffffffffffffffffff168173ffffffffffffffffffffffffffffffffffffffff1614156114e1576040517f08c379a00000000000000000000000000000000000000000000000000000000081526004016114d890611dad565b60405180910390fd5b6114ea8161156f565b50565b60016020528060005260406000206000915054906101000a900460ff1681565b600080600260008473ffffffffffffffffffffffffffffffffffffffff1673ffffffffffffffffffffffffffffffffffffffff168152602001908152602001600020600201805461155d9061200b565b9050119050919050565b600033905090565b60008060009054906101000a900473ffffffffffffffffffffffffffffffffffffffff169050816000806101000a81548173ffffffffffffffffffffffffffffffffffffffff021916908373ffffffffffffffffffffffffffffffffffffffff1602179055508173ffffffffffffffffffffffffffffffffffffffff168173ffffffffffffffffffffffffffffffffffffffff167f8be0079c531659141344cd1fd0a4f28419497f9722a3daafe3b4186f6b6457e060405160405180910390a35050565b6040518060e0016040528060008152602001600073ffffffffffffffffffffffffffffffffffffffff1681526020016000600781111561169c577f4e487b7100000000000000000000000000000000000000000000000000000000600052602160045260246000fd5b81526020016060815260200160608152602001606081526020016116be61174a565b81525090565b8280546116d09061200b565b90600052602060002090601f0160209004810192826116f25760008555611739565b82601f1061170b57805160ff1916838001178555611739565b82800160010185558215611739579182015b8281111561173857825182559160200191906001019061171d565b5b5090506117469190611772565b5090565b6040518060800160405280606081526020016060815260200160608152602001606081525090565b5b8082111561178b576000816000905550600101611773565b5090565b60006117a261179d84611e6f565b611e4a565b9050828152602081018484840111156117ba57600080fd5b6117c5848285611fc9565b509392505050565b6000813590506117dc81612262565b92915050565b600082601f8301126117f357600080fd5b813561180384826020860161178f565b91505092915050565b60006020828403121561181e57600080fd5b600061182c848285016117cd565b91505092915050565b600080600080600080600060e0888a03121561185057600080fd5b600088013567ffffffffffffffff81111561186a57600080fd5b6118768a828b016117e2565b975050602088013567ffffffffffffffff81111561189357600080fd5b61189f8a828b016117e2565b965050604088013567ffffffffffffffff8111156118bc57600080fd5b6118c88a828b016117e2565b955050606088013567ffffffffffffffff8111156118e557600080fd5b6118f18a828b016117e2565b945050608088013567ffffffffffffffff81111561190e57600080fd5b61191a8a828b016117e2565b93505060a088013567ffffffffffffffff81111561193757600080fd5b6119438a828b016117e2565b92505060c088013567ffffffffffffffff81111561196057600080fd5b61196c8a828b016117e2565b91505092959891949750929550565b60006119878383611b8c565b905092915050565b61199881611f5c565b82525050565b6119a781611f5c565b82525050565b60006119b882611eb0565b6119c28185611ed3565b9350836020820285016119d485611ea0565b8060005b85811015611a1057848403895281516119f1858261197b565b94506119fc83611ec6565b925060208a019950506001810190506119d8565b50829750879550505050505092915050565b611a2b81611f6e565b82525050565b611a3a81611fb7565b82525050565b611a4981611fb7565b82525050565b6000611a5a82611ebb565b611a648185611ee4565b9350611a74818560208601611fd8565b611a7d81612173565b840191505092915050565b6000611a95601a83611ef5565b9150611aa082612184565b602082019050919050565b6000611ab8602683611ef5565b9150611ac3826121ad565b604082019050919050565b6000611adb601083611ef5565b9150611ae6826121fc565b602082019050919050565b6000611afe602083611ef5565b9150611b0982612225565b602082019050919050565b60006080830160008301518482036000860152611b318282611a4f565b91505060208301518482036020860152611b4b8282611a4f565b91505060408301518482036040860152611b658282611a4f565b91505060608301518482036060860152611b7f8282611a4f565b9150508091505092915050565b600060e083016000830151611ba46000860182611cee565b506020830151611bb7602086018261198f565b506040830151611bca6040860182611a31565b5060608301518482036060860152611be28282611a4f565b91505060808301518482036080860152611bfc8282611a4f565b91505060a083015184820360a0860152611c168282611a4f565b91505060c083015184820360c0860152611c308282611b14565b9150508091505092915050565b600060e083016000830151611c556000860182611cee565b506020830151611c68602086018261198f565b506040830151611c7b6040860182611a31565b5060608301518482036060860152611c938282611a4f565b91505060808301518482036080860152611cad8282611a4f565b91505060a083015184820360a0860152611cc78282611a4f565b91505060c083015184820360c0860152611ce18282611b14565b9150508091505092915050565b611cf781611fad565b82525050565b611d0681611fad565b82525050565b6000602082019050611d21600083018461199e565b92915050565b6000604082019050611d3c600083018561199e565b611d496020830184611a40565b9392505050565b60006020820190508181036000830152611d6a81846119ad565b905092915050565b6000602082019050611d876000830184611a22565b92915050565b60006020820190508181036000830152611da681611a88565b9050919050565b60006020820190508181036000830152611dc681611aab565b9050919050565b60006020820190508181036000830152611de681611ace565b9050919050565b60006020820190508181036000830152611e0681611af1565b9050919050565b60006020820190508181036000830152611e278184611c3d565b905092915050565b6000602082019050611e446000830184611cfd565b92915050565b6000611e54611e65565b9050611e60828261203d565b919050565b6000604051905090565b600067ffffffffffffffff821115611e8a57611e89612144565b5b611e9382612173565b9050602081019050919050565b6000819050602082019050919050565b600081519050919050565b600081519050919050565b6000602082019050919050565b600082825260208201905092915050565b600082825260208201905092915050565b600082825260208201905092915050565b6000611f1182611fad565b9150611f1c83611fad565b9250827fffffffffffffffffffffffffffffffffffffffffffffffffffffffffffffffff03821115611f5157611f506120b7565b5b828201905092915050565b6000611f6782611f8d565b9050919050565b60008115159050919050565b6000819050611f888261224e565b919050565b600073ffffffffffffffffffffffffffffffffffffffff82169050919050565b6000819050919050565b6000611fc282611f7a565b9050919050565b82818337600083830152505050565b60005b83811015611ff6578082015181840152602081019050611fdb565b83811115612005576000848401525b50505050565b6000600282049050600182168061202357607f821691505b6020821081141561203757612036612115565b5b50919050565b61204682612173565b810181811067ffffffffffffffff8211171561206557612064612144565b5b80604052505050565b600061207982611fad565b91507fffffffffffffffffffffffffffffffffffffffffffffffffffffffffffffffff8214156120ac576120ab6120b7565b5b600182019050919050565b7f4e487b7100000000000000000000000000000000000000000000000000000000600052601160045260246000fd5b7f4e487b7100000000000000000000000000000000000000000000000000000000600052602160045260246000fd5b7f4e487b7100000000000000000000000000000000000000000000000000000000600052602260045260246000fd5b7f4e487b7100000000000000000000000000000000000000000000000000000000600052604160045260246000fd5b6000601f19601f8301169050919050565b7f546869732061647669736f7220616c7265616479206578697374000000000000600082015250565b7f4f776e61626c653a206e6577206f776e657220697320746865207a65726f206160008201527f6464726573730000000000000000000000000000000000000000000000000000602082015250565b7f4e6f7420616c6c6f776564207573657200000000000000000000000000000000600082015250565b7f4f776e61626c653a2063616c6c6572206973206e6f7420746865206f776e6572600082015250565b6008811061225f5761225e6120e6565b5b50565b61226b81611f5c565b811461227657600080fd5b5056fea26469706673582212208b27809be163f7b88460bc9fc4f88c5137fd902e07afd5e909af95674e05dd2464736f6c63430008020033",
  "immutableReferences": {},
  "source": "// SPDX-License-Identifier: GPL-3.0\r\npragma solidity >=0.7.0 <=0.9.0;\r\n\r\nimport \"./UserContract.sol\";\r\nimport \"./types/AdvisorTypes.sol\";\r\nimport \"./Registrable.sol\";\r\n\r\ncontract AdvisorContract is Registrable {\r\n  mapping(address => Advisor) internal advisors;\r\n\r\n  UserContract internal userContract;\r\n  address[] internal advisorsAddress;\r\n  uint256 public advisorsCount;\r\n\r\n  constructor(address userContractAddress) {\r\n    userContract = UserContract(userContractAddress);\r\n  }\r\n\r\n  /**\r\n   * @dev Allow a new register of advisor\r\n   * @param name the name of the advisor\r\n   * @param document the document of advisor\r\n   * @param documentType the document type type of advisor. CPF/CNPJ\r\n   * @param country the country where the advisor is\r\n   * @param state the state of the advisor\r\n   * @param city the of the advisor\r\n   * @param cep the cep of the advisor\r\n   * @return a Advisor\r\n   */\r\n  function addAdvisor(\r\n    string memory name,\r\n    string memory document,\r\n    string memory documentType,\r\n    string memory country,\r\n    string memory state,\r\n    string memory city,\r\n    string memory cep\r\n  ) public mustBeAllowedUser uniqueAdvisor returns (Advisor memory) {\r\n    uint256 id = advisorsCount + 1;\r\n    UserType userType = UserType.ADVISOR;\r\n\r\n    AdvisorAddress memory advisorAddress = AdvisorAddress(country, state, city, cep);\r\n\r\n    Advisor memory advisor = Advisor(\r\n      id,\r\n      msg.sender,\r\n      userType,\r\n      name,\r\n      document,\r\n      documentType,\r\n      advisorAddress\r\n    );\r\n\r\n    advisors[msg.sender] = advisor;\r\n    advisorsAddress.push(msg.sender);\r\n    advisorsCount++;\r\n    userContract.addUser(msg.sender, userType);\r\n\r\n    return advisor;\r\n  }\r\n\r\n  /**\r\n   * @dev Returns all registered advisors\r\n   * @return Advisor struct array\r\n   */\r\n  function getAdvisors() public view returns (Advisor[] memory) {\r\n    Advisor[] memory advisorList = new Advisor[](advisorsCount);\r\n\r\n    for (uint256 i = 0; i < advisorsCount; i++) {\r\n      address acAddress = advisorsAddress[i];\r\n      advisorList[i] = advisors[acAddress];\r\n    }\r\n\r\n    return advisorList;\r\n  }\r\n\r\n  /**\r\n   * @dev Return a specific advisor\r\n   * @param addr the address of the advisor.\r\n   */\r\n  function getAdvisor(address addr) public view returns (Advisor memory) {\r\n    return advisors[addr];\r\n  }\r\n\r\n  /**\r\n   * @dev Check if a specific advisor exists\r\n   * @return a bool that represent if a advisor exists or not\r\n   */\r\n  function advisorExists(address addr) public view returns (bool) {\r\n    return bytes(advisors[addr].name).length > 0;\r\n  }\r\n\r\n  // MODIFIERS\r\n\r\n  modifier uniqueAdvisor() {\r\n    require(!advisorExists(msg.sender), \"This advisor already exist\");\r\n    _;\r\n  }\r\n}\r\n",
  "sourcePath": "C:\\Users\\Bruno\\OneDrive\\rea de Trabalho\\sintrop-projects\\core-contracts\\contracts\\AdvisorContract.sol",
  "compiler": {
    "name": "solc",
    "version": "0.8.2+commit.661d1103.Emscripten.clang"
  },
  "schemaVersion": "3.4.7",
  "updatedAt": "2022-08-27T13:34:08.562Z",
  "networkType": "ethereum",
  "devdoc": {
    "kind": "dev",
    "methods": {
      "addAdvisor(string,string,string,string,string,string,string)": {
        "details": "Allow a new register of advisor",
        "params": {
          "cep": "the cep of the advisor",
          "city": "the of the advisor",
          "country": "the country where the advisor is",
          "document": "the document of advisor",
          "documentType": "the document type type of advisor. CPF/CNPJ",
          "name": "the name of the advisor",
          "state": "the state of the advisor"
        },
        "returns": {
          "_0": "a Advisor"
        }
      },
      "advisorExists(address)": {
        "details": "Check if a specific advisor exists",
        "returns": {
          "_0": "a bool that represent if a advisor exists or not"
        }
      },
      "getAdvisor(address)": {
        "details": "Return a specific advisor",
        "params": {
          "addr": "the address of the advisor."
        }
      },
      "getAdvisors()": {
        "details": "Returns all registered advisors",
        "returns": {
          "_0": "Advisor struct array"
        }
      },
      "owner()": {
        "details": "Returns the address of the current owner."
      },
      "renounceOwnership()": {
        "details": "Leaves the contract without owner. It will not be possible to call `onlyOwner` functions anymore. Can only be called by the current owner. NOTE: Renouncing ownership will leave the contract without an owner, thereby removing any functionality that is only available to the owner."
      },
      "transferOwnership(address)": {
        "details": "Transfers ownership of the contract to a new account (`newOwner`). Can only be called by the current owner."
      }
    },
    "version": 1
  },
  "userdoc": {
    "kind": "user",
    "methods": {},
    "version": 1
  }
}