{
  "contractName": "CategoryContract",
  "abi": [
    {
      "inputs": [
        {
          "internalType": "address",
          "name": "_isaPoolAddress",
          "type": "address"
        },
        {
          "internalType": "address",
          "name": "researcherContractAddress",
          "type": "address"
        }
      ],
      "stateMutability": "nonpayable",
      "type": "constructor"
    },
    {
      "inputs": [
        {
          "internalType": "uint256",
          "name": "",
          "type": "uint256"
        }
      ],
      "name": "categories",
      "outputs": [
        {
          "internalType": "uint256",
          "name": "id",
          "type": "uint256"
        },
        {
          "internalType": "address",
          "name": "createdBy",
          "type": "address"
        },
        {
          "internalType": "string",
          "name": "name",
          "type": "string"
        },
        {
          "internalType": "string",
          "name": "description",
          "type": "string"
        },
        {
          "internalType": "string",
          "name": "totallySustainable",
          "type": "string"
        },
        {
          "internalType": "string",
          "name": "partiallySustainable",
          "type": "string"
        },
        {
          "internalType": "string",
          "name": "neutro",
          "type": "string"
        },
        {
          "internalType": "string",
          "name": "partiallyNotSustainable",
          "type": "string"
        },
        {
          "internalType": "string",
          "name": "totallyNotSustainable",
          "type": "string"
        },
        {
          "internalType": "uint256",
          "name": "votesCount",
          "type": "uint256"
        }
      ],
      "stateMutability": "view",
      "type": "function",
      "constant": true
    },
    {
      "inputs": [],
      "name": "category",
      "outputs": [
        {
          "internalType": "uint256",
          "name": "id",
          "type": "uint256"
        },
        {
          "internalType": "address",
          "name": "createdBy",
          "type": "address"
        },
        {
          "internalType": "string",
          "name": "name",
          "type": "string"
        },
        {
          "internalType": "string",
          "name": "description",
          "type": "string"
        },
        {
          "internalType": "string",
          "name": "totallySustainable",
          "type": "string"
        },
        {
          "internalType": "string",
          "name": "partiallySustainable",
          "type": "string"
        },
        {
          "internalType": "string",
          "name": "neutro",
          "type": "string"
        },
        {
          "internalType": "string",
          "name": "partiallyNotSustainable",
          "type": "string"
        },
        {
          "internalType": "string",
          "name": "totallyNotSustainable",
          "type": "string"
        },
        {
          "internalType": "uint256",
          "name": "votesCount",
          "type": "uint256"
        }
      ],
      "stateMutability": "view",
      "type": "function",
      "constant": true
    },
    {
      "inputs": [],
      "name": "categoryCounts",
      "outputs": [
        {
          "internalType": "uint256",
          "name": "",
          "type": "uint256"
        }
      ],
      "stateMutability": "view",
      "type": "function",
      "constant": true
    },
    {
      "inputs": [],
      "name": "researcherContract",
      "outputs": [
        {
          "internalType": "contract ResearcherContract",
          "name": "",
          "type": "address"
        }
      ],
      "stateMutability": "view",
      "type": "function",
      "constant": true
    },
    {
      "inputs": [
        {
          "internalType": "address",
          "name": "",
          "type": "address"
        },
        {
          "internalType": "uint256",
          "name": "",
          "type": "uint256"
        }
      ],
      "name": "voted",
      "outputs": [
        {
          "internalType": "uint256",
          "name": "",
          "type": "uint256"
        }
      ],
      "stateMutability": "view",
      "type": "function",
      "constant": true
    },
    {
      "inputs": [
        {
          "internalType": "uint256",
          "name": "",
          "type": "uint256"
        }
      ],
      "name": "votes",
      "outputs": [
        {
          "internalType": "uint256",
          "name": "",
          "type": "uint256"
        }
      ],
      "stateMutability": "view",
      "type": "function",
      "constant": true
    },
    {
      "inputs": [
        {
          "internalType": "string",
          "name": "name",
          "type": "string"
        },
        {
          "internalType": "string",
          "name": "description",
          "type": "string"
        },
        {
          "internalType": "string",
          "name": "totallySustainable",
          "type": "string"
        },
        {
          "internalType": "string",
          "name": "partiallySustainable",
          "type": "string"
        },
        {
          "internalType": "string",
          "name": "neutro",
          "type": "string"
        },
        {
          "internalType": "string",
          "name": "partiallyNotSustainable",
          "type": "string"
        },
        {
          "internalType": "string",
          "name": "totallyNotSustainable",
          "type": "string"
        }
      ],
      "name": "addCategory",
      "outputs": [
        {
          "internalType": "bool",
          "name": "",
          "type": "bool"
        }
      ],
      "stateMutability": "nonpayable",
      "type": "function"
    },
    {
      "inputs": [],
      "name": "getCategories",
      "outputs": [
        {
          "components": [
            {
              "internalType": "uint256",
              "name": "id",
              "type": "uint256"
            },
            {
              "internalType": "address",
              "name": "createdBy",
              "type": "address"
            },
            {
              "internalType": "string",
              "name": "name",
              "type": "string"
            },
            {
              "internalType": "string",
              "name": "description",
              "type": "string"
            },
            {
              "internalType": "string",
              "name": "totallySustainable",
              "type": "string"
            },
            {
              "internalType": "string",
              "name": "partiallySustainable",
              "type": "string"
            },
            {
              "internalType": "string",
              "name": "neutro",
              "type": "string"
            },
            {
              "internalType": "string",
              "name": "partiallyNotSustainable",
              "type": "string"
            },
            {
              "internalType": "string",
              "name": "totallyNotSustainable",
              "type": "string"
            },
            {
              "internalType": "uint256",
              "name": "votesCount",
              "type": "uint256"
            }
          ],
          "internalType": "struct Category[]",
          "name": "",
          "type": "tuple[]"
        }
      ],
      "stateMutability": "view",
      "type": "function",
      "constant": true
    },
    {
      "inputs": [
        {
          "internalType": "uint256",
          "name": "id",
          "type": "uint256"
        },
        {
          "internalType": "uint256",
          "name": "tokens",
          "type": "uint256"
        }
      ],
      "name": "vote",
      "outputs": [
        {
          "internalType": "bool",
          "name": "",
          "type": "bool"
        }
      ],
      "stateMutability": "nonpayable",
      "type": "function"
    },
    {
      "inputs": [
        {
          "internalType": "uint256",
          "name": "id",
          "type": "uint256"
        }
      ],
      "name": "unvote",
      "outputs": [
        {
          "internalType": "uint256",
          "name": "",
          "type": "uint256"
        }
      ],
      "stateMutability": "nonpayable",
      "type": "function"
    }
  ],
  "bytecode": "0x60806040523480156200001157600080fd5b5060405162002a2e38038062002a2e8339818101604052810190620000379190620000d8565b81600f60006101000a81548173ffffffffffffffffffffffffffffffffffffffff021916908373ffffffffffffffffffffffffffffffffffffffff16021790555080600360006101000a81548173ffffffffffffffffffffffffffffffffffffffff021916908373ffffffffffffffffffffffffffffffffffffffff160217905550505062000167565b600081519050620000d2816200014d565b92915050565b60008060408385031215620000ec57600080fd5b6000620000fc85828601620000c1565b92505060206200010f85828601620000c1565b9150509250929050565b600062000126826200012d565b9050919050565b600073ffffffffffffffffffffffffffffffffffffffff82169050919050565b620001588162000119565b81146200016457600080fd5b50565b6128b780620001776000396000f3fe608060405234801561001057600080fd5b506004361061009e5760003560e01c8063b384abef11610066578063b384abef1461016f578063c06a16481461019f578063c591aa98146101bd578063c6cdbe5e146101ed578063ef430aa6146102265761009e565b80634db0412c146100a357806351ec4285146100c15780635df81330146100f15780637333afcf14610121578063a1c24d641461013f575b600080fd5b6100ab61024d565b6040516100b89190612227565b60405180910390f35b6100db60048036038101906100d69190611e4d565b6107cd565b6040516100e8919061231f565b60405180910390f35b61010b60048036038101906101069190611e4d565b610a77565b604051610118919061231f565b60405180910390f35b610129610a8f565b604051610136919061231f565b60405180910390f35b61015960048036038101906101549190611d07565b610a95565b6040516101669190612249565b60405180910390f35b61018960048036038101906101849190611e9f565b610eb7565b6040516101969190612249565b60405180910390f35b6101a76111bc565b6040516101b49190612264565b60405180910390f35b6101d760048036038101906101d29190611ca2565b6111e2565b6040516101e4919061231f565b60405180910390f35b61020760048036038101906102029190611e4d565b611207565b60405161021d9a9998979695949392919061233a565b60405180910390f35b61022e611633565b6040516102449a9998979695949392919061233a565b60405180910390f35b60606000600e5467ffffffffffffffff811115610293577f4e487b7100000000000000000000000000000000000000000000000000000000600052604160045260246000fd5b6040519080825280602002602001820160405280156102cc57816020015b6102b9611a4d565b8152602001906001900390816102b15790505b50905060005b600e548110156107c5576000806001836102ec91906124c3565b815260200190815260200160002060405180610140016040529081600082015481526020016001820160009054906101000a900473ffffffffffffffffffffffffffffffffffffffff1673ffffffffffffffffffffffffffffffffffffffff1673ffffffffffffffffffffffffffffffffffffffff16815260200160028201805461037690612625565b80601f01602080910402602001604051908101604052809291908181526020018280546103a290612625565b80156103ef5780601f106103c4576101008083540402835291602001916103ef565b820191906000526020600020905b8154815290600101906020018083116103d257829003601f168201915b5050505050815260200160038201805461040890612625565b80601f016020809104026020016040519081016040528092919081815260200182805461043490612625565b80156104815780601f1061045657610100808354040283529160200191610481565b820191906000526020600020905b81548152906001019060200180831161046457829003601f168201915b5050505050815260200160048201805461049a90612625565b80601f01602080910402602001604051908101604052809291908181526020018280546104c690612625565b80156105135780601f106104e857610100808354040283529160200191610513565b820191906000526020600020905b8154815290600101906020018083116104f657829003601f168201915b5050505050815260200160058201805461052c90612625565b80601f016020809104026020016040519081016040528092919081815260200182805461055890612625565b80156105a55780601f1061057a576101008083540402835291602001916105a5565b820191906000526020600020905b81548152906001019060200180831161058857829003601f168201915b505050505081526020016006820180546105be90612625565b80601f01602080910402602001604051908101604052809291908181526020018280546105ea90612625565b80156106375780601f1061060c57610100808354040283529160200191610637565b820191906000526020600020905b81548152906001019060200180831161061a57829003601f168201915b5050505050815260200160078201805461065090612625565b80601f016020809104026020016040519081016040528092919081815260200182805461067c90612625565b80156106c95780601f1061069e576101008083540402835291602001916106c9565b820191906000526020600020905b8154815290600101906020018083116106ac57829003601f168201915b505050505081526020016008820180546106e290612625565b80601f016020809104026020016040519081016040528092919081815260200182805461070e90612625565b801561075b5780601f106107305761010080835404028352916020019161075b565b820191906000526020600020905b81548152906001019060200180831161073e57829003601f168201915b505050505081526020016009820154815250508282815181106107a7577f4e487b7100000000000000000000000000000000000000000000000000000000600052603260045260246000fd5b602002602001018190525080806107bd90612688565b9150506102d2565b508091505090565b60008160008060008381526020019081526020016000206000015411610828576040517f08c379a000000000000000000000000000000000000000000000000000000000815260040161081f906122bf565b60405180910390fd5b826000600260003373ffffffffffffffffffffffffffffffffffffffff1673ffffffffffffffffffffffffffffffffffffffff168152602001908152602001600020600083815260200190815260200160002054116108bc576040517f08c379a00000000000000000000000000000000000000000000000000000000081526004016108b39061227f565b60405180910390fd5b6000600260003373ffffffffffffffffffffffffffffffffffffffff1673ffffffffffffffffffffffffffffffffffffffff1681526020019081526020016000206000868152602001908152602001600020549050600f60009054906101000a900473ffffffffffffffffffffffffffffffffffffffff1673ffffffffffffffffffffffffffffffffffffffff166367ff17a633836040518363ffffffff1660e01b815260040161096e9291906121fe565b602060405180830381600087803b15801561098857600080fd5b505af115801561099c573d6000803e3d6000fd5b505050506040513d601f19601f820116820180604052508101906109c09190611cde565b50806001600087815260200190815260200160002060008282546109e49190612519565b925050819055506000600260003373ffffffffffffffffffffffffffffffffffffffff1673ffffffffffffffffffffffffffffffffffffffff1681526020019081526020016000206000878152602001908152602001600020819055506000808681526020019081526020016000206009016000815480929190610a67906125fb565b9190505550809350505050919050565b60016020528060005260406000206000915090505481565b600e5481565b6000600360009054906101000a900473ffffffffffffffffffffffffffffffffffffffff1673ffffffffffffffffffffffffffffffffffffffff16631e6dffc2336040518263ffffffff1660e01b8152600401610af291906121e3565b60206040518083038186803b158015610b0a57600080fd5b505afa158015610b1e573d6000803e3d6000fd5b505050506040513d601f19601f82011682018060405250810190610b429190611cde565b610b81576040517f08c379a0000000000000000000000000000000000000000000000000000000008152600401610b78906122ff565b60405180910390fd5b6040518061014001604052806001600e54610b9c91906124c3565b81526020013373ffffffffffffffffffffffffffffffffffffffff168152602001898152602001888152602001878152602001868152602001858152602001848152602001838152602001600081525060046000820151816000015560208201518160010160006101000a81548173ffffffffffffffffffffffffffffffffffffffff021916908373ffffffffffffffffffffffffffffffffffffffff1602179055506040820151816002019080519060200190610c5b929190611ab6565b506060820151816003019080519060200190610c78929190611ab6565b506080820151816004019080519060200190610c95929190611ab6565b5060a0820151816005019080519060200190610cb2929190611ab6565b5060c0820151816006019080519060200190610ccf929190611ab6565b5060e0820151816007019080519060200190610cec929190611ab6565b50610100820151816008019080519060200190610d0a929190611ab6565b50610120820151816009015590505060046000806004600001548152602001908152602001600020600082015481600001556001820160009054906101000a900473ffffffffffffffffffffffffffffffffffffffff168160010160006101000a81548173ffffffffffffffffffffffffffffffffffffffff021916908373ffffffffffffffffffffffffffffffffffffffff1602179055506002820181600201908054610db790612625565b610dc2929190611b3c565b506003820181600301908054610dd790612625565b610de2929190611b3c565b506004820181600401908054610df790612625565b610e02929190611b3c565b506005820181600501908054610e1790612625565b610e22929190611b3c565b506006820181600601908054610e3790612625565b610e42929190611b3c565b506007820181600701908054610e5790612625565b610e62929190611b3c565b506008820181600801908054610e7790612625565b610e82929190611b3c565b5060098201548160090155905050600e6000815480929190610ea390612688565b919050555060019050979650505050505050565b60008260008060008381526020019081526020016000206000015411610f12576040517f08c379a0000000000000000000000000000000000000000000000000000000008152600401610f09906122bf565b60405180910390fd5b8280600f60009054906101000a900473ffffffffffffffffffffffffffffffffffffffff1673ffffffffffffffffffffffffffffffffffffffff166370a08231336040518263ffffffff1660e01b8152600401610f6f91906121e3565b60206040518083038186803b158015610f8757600080fd5b505afa158015610f9b573d6000803e3d6000fd5b505050506040513d601f19601f82011682018060405250810190610fbf9190611e76565b11610fff576040517f08c379a0000000000000000000000000000000000000000000000000000000008152600401610ff6906122df565b60405180910390fd5b8360008111611043576040517f08c379a000000000000000000000000000000000000000000000000000000000815260040161103a9061229f565b60405180910390fd5b600f60009054906101000a900473ffffffffffffffffffffffffffffffffffffffff1673ffffffffffffffffffffffffffffffffffffffff166344edffbb33876040518363ffffffff1660e01b81526004016110a09291906121fe565b602060405180830381600087803b1580156110ba57600080fd5b505af11580156110ce573d6000803e3d6000fd5b505050506040513d601f19601f820116820180604052508101906110f29190611cde565b508460016000888152602001908152602001600020600082825461111691906124c3565b9250508190555084600260003373ffffffffffffffffffffffffffffffffffffffff1673ffffffffffffffffffffffffffffffffffffffff1681526020019081526020016000206000888152602001908152602001600020600082825461117d91906124c3565b9250508190555060008087815260200190815260200160002060090160008154809291906111aa90612688565b91905055506001935050505092915050565b600360009054906101000a900473ffffffffffffffffffffffffffffffffffffffff1681565b6002602052816000526040600020602052806000526040600020600091509150505481565b60006020528060005260406000206000915090508060000154908060010160009054906101000a900473ffffffffffffffffffffffffffffffffffffffff169080600201805461125690612625565b80601f016020809104026020016040519081016040528092919081815260200182805461128290612625565b80156112cf5780601f106112a4576101008083540402835291602001916112cf565b820191906000526020600020905b8154815290600101906020018083116112b257829003601f168201915b5050505050908060030180546112e490612625565b80601f016020809104026020016040519081016040528092919081815260200182805461131090612625565b801561135d5780601f106113325761010080835404028352916020019161135d565b820191906000526020600020905b81548152906001019060200180831161134057829003601f168201915b50505050509080600401805461137290612625565b80601f016020809104026020016040519081016040528092919081815260200182805461139e90612625565b80156113eb5780601f106113c0576101008083540402835291602001916113eb565b820191906000526020600020905b8154815290600101906020018083116113ce57829003601f168201915b50505050509080600501805461140090612625565b80601f016020809104026020016040519081016040528092919081815260200182805461142c90612625565b80156114795780601f1061144e57610100808354040283529160200191611479565b820191906000526020600020905b81548152906001019060200180831161145c57829003601f168201915b50505050509080600601805461148e90612625565b80601f01602080910402602001604051908101604052809291908181526020018280546114ba90612625565b80156115075780601f106114dc57610100808354040283529160200191611507565b820191906000526020600020905b8154815290600101906020018083116114ea57829003601f168201915b50505050509080600701805461151c90612625565b80601f016020809104026020016040519081016040528092919081815260200182805461154890612625565b80156115955780601f1061156a57610100808354040283529160200191611595565b820191906000526020600020905b81548152906001019060200180831161157857829003601f168201915b5050505050908060080180546115aa90612625565b80601f01602080910402602001604051908101604052809291908181526020018280546115d690612625565b80156116235780601f106115f857610100808354040283529160200191611623565b820191906000526020600020905b81548152906001019060200180831161160657829003601f168201915b505050505090806009015490508a565b60048060000154908060010160009054906101000a900473ffffffffffffffffffffffffffffffffffffffff169080600201805461167090612625565b80601f016020809104026020016040519081016040528092919081815260200182805461169c90612625565b80156116e95780601f106116be576101008083540402835291602001916116e9565b820191906000526020600020905b8154815290600101906020018083116116cc57829003601f168201915b5050505050908060030180546116fe90612625565b80601f016020809104026020016040519081016040528092919081815260200182805461172a90612625565b80156117775780601f1061174c57610100808354040283529160200191611777565b820191906000526020600020905b81548152906001019060200180831161175a57829003601f168201915b50505050509080600401805461178c90612625565b80601f01602080910402602001604051908101604052809291908181526020018280546117b890612625565b80156118055780601f106117da57610100808354040283529160200191611805565b820191906000526020600020905b8154815290600101906020018083116117e857829003601f168201915b50505050509080600501805461181a90612625565b80601f016020809104026020016040519081016040528092919081815260200182805461184690612625565b80156118935780601f1061186857610100808354040283529160200191611893565b820191906000526020600020905b81548152906001019060200180831161187657829003601f168201915b5050505050908060060180546118a890612625565b80601f01602080910402602001604051908101604052809291908181526020018280546118d490612625565b80156119215780601f106118f657610100808354040283529160200191611921565b820191906000526020600020905b81548152906001019060200180831161190457829003601f168201915b50505050509080600701805461193690612625565b80601f016020809104026020016040519081016040528092919081815260200182805461196290612625565b80156119af5780601f10611984576101008083540402835291602001916119af565b820191906000526020600020905b81548152906001019060200180831161199257829003601f168201915b5050505050908060080180546119c490612625565b80601f01602080910402602001604051908101604052809291908181526020018280546119f090612625565b8015611a3d5780601f10611a1257610100808354040283529160200191611a3d565b820191906000526020600020905b815481529060010190602001808311611a2057829003601f168201915b505050505090806009015490508a565b60405180610140016040528060008152602001600073ffffffffffffffffffffffffffffffffffffffff16815260200160608152602001606081526020016060815260200160608152602001606081526020016060815260200160608152602001600081525090565b828054611ac290612625565b90600052602060002090601f016020900481019282611ae45760008555611b2b565b82601f10611afd57805160ff1916838001178555611b2b565b82800160010185558215611b2b579182015b82811115611b2a578251825591602001919060010190611b0f565b5b509050611b389190611bc9565b5090565b828054611b4890612625565b90600052602060002090601f016020900481019282611b6a5760008555611bb8565b82601f10611b7b5780548555611bb8565b82800160010185558215611bb857600052602060002091601f016020900482015b82811115611bb7578254825591600101919060010190611b9c565b5b509050611bc59190611bc9565b5090565b5b80821115611be2576000816000905550600101611bca565b5090565b6000611bf9611bf48461242c565b612407565b905082815260208101848484011115611c1157600080fd5b611c1c8482856125b9565b509392505050565b600081359050611c338161283c565b92915050565b600081519050611c4881612853565b92915050565b600082601f830112611c5f57600080fd5b8135611c6f848260208601611be6565b91505092915050565b600081359050611c878161286a565b92915050565b600081519050611c9c8161286a565b92915050565b60008060408385031215611cb557600080fd5b6000611cc385828601611c24565b9250506020611cd485828601611c78565b9150509250929050565b600060208284031215611cf057600080fd5b6000611cfe84828501611c39565b91505092915050565b600080600080600080600060e0888a031215611d2257600080fd5b600088013567ffffffffffffffff811115611d3c57600080fd5b611d488a828b01611c4e565b975050602088013567ffffffffffffffff811115611d6557600080fd5b611d718a828b01611c4e565b965050604088013567ffffffffffffffff811115611d8e57600080fd5b611d9a8a828b01611c4e565b955050606088013567ffffffffffffffff811115611db757600080fd5b611dc38a828b01611c4e565b945050608088013567ffffffffffffffff811115611de057600080fd5b611dec8a828b01611c4e565b93505060a088013567ffffffffffffffff811115611e0957600080fd5b611e158a828b01611c4e565b92505060c088013567ffffffffffffffff811115611e3257600080fd5b611e3e8a828b01611c4e565b91505092959891949750929550565b600060208284031215611e5f57600080fd5b6000611e6d84828501611c78565b91505092915050565b600060208284031215611e8857600080fd5b6000611e9684828501611c8d565b91505092915050565b60008060408385031215611eb257600080fd5b6000611ec085828601611c78565b9250506020611ed185828601611c78565b9150509250929050565b6000611ee783836120c1565b905092915050565b611ef88161254d565b82525050565b611f078161254d565b82525050565b6000611f188261246d565b611f228185612490565b935083602082028501611f348561245d565b8060005b85811015611f705784840389528151611f518582611edb565b9450611f5c83612483565b925060208a01995050600181019050611f38565b50829750879550505050505092915050565b611f8b8161255f565b82525050565b611f9a81612595565b82525050565b6000611fab82612478565b611fb581856124a1565b9350611fc58185602086016125c8565b611fce8161275e565b840191505092915050565b6000611fe482612478565b611fee81856124b2565b9350611ffe8185602086016125c8565b6120078161275e565b840191505092915050565b600061201f6020836124b2565b915061202a8261276f565b602082019050919050565b60006120426019836124b2565b915061204d82612798565b602082019050919050565b6000612065601a836124b2565b9150612070826127c1565b602082019050919050565b6000612088601d836124b2565b9150612093826127ea565b602082019050919050565b60006120ab601b836124b2565b91506120b682612813565b602082019050919050565b6000610140830160008301516120da60008601826121c5565b5060208301516120ed6020860182611eef565b50604083015184820360408601526121058282611fa0565b9150506060830151848203606086015261211f8282611fa0565b915050608083015184820360808601526121398282611fa0565b91505060a083015184820360a08601526121538282611fa0565b91505060c083015184820360c086015261216d8282611fa0565b91505060e083015184820360e08601526121878282611fa0565b9150506101008301518482036101008601526121a38282611fa0565b9150506101208301516121ba6101208601826121c5565b508091505092915050565b6121ce8161258b565b82525050565b6121dd8161258b565b82525050565b60006020820190506121f86000830184611efe565b92915050565b60006040820190506122136000830185611efe565b61222060208301846121d4565b9392505050565b600060208201905081810360008301526122418184611f0d565b905092915050565b600060208201905061225e6000830184611f82565b92915050565b60006020820190506122796000830184611f91565b92915050565b6000602082019050818103600083015261229881612012565b9050919050565b600060208201905081810360008301526122b881612035565b9050919050565b600060208201905081810360008301526122d881612058565b9050919050565b600060208201905081810360008301526122f88161207b565b9050919050565b600060208201905081810360008301526123188161209e565b9050919050565b600060208201905061233460008301846121d4565b92915050565b600061014082019050612350600083018d6121d4565b61235d602083018c611efe565b818103604083015261236f818b611fd9565b90508181036060830152612383818a611fd9565b905081810360808301526123978189611fd9565b905081810360a08301526123ab8188611fd9565b905081810360c08301526123bf8187611fd9565b905081810360e08301526123d38186611fd9565b90508181036101008301526123e88185611fd9565b90506123f86101208301846121d4565b9b9a5050505050505050505050565b6000612411612422565b905061241d8282612657565b919050565b6000604051905090565b600067ffffffffffffffff8211156124475761244661272f565b5b6124508261275e565b9050602081019050919050565b6000819050602082019050919050565b600081519050919050565b600081519050919050565b6000602082019050919050565b600082825260208201905092915050565b600082825260208201905092915050565b600082825260208201905092915050565b60006124ce8261258b565b91506124d98361258b565b9250827fffffffffffffffffffffffffffffffffffffffffffffffffffffffffffffffff0382111561250e5761250d6126d1565b5b828201905092915050565b60006125248261258b565b915061252f8361258b565b925082821015612542576125416126d1565b5b828203905092915050565b60006125588261256b565b9050919050565b60008115159050919050565b600073ffffffffffffffffffffffffffffffffffffffff82169050919050565b6000819050919050565b60006125a0826125a7565b9050919050565b60006125b28261256b565b9050919050565b82818337600083830152505050565b60005b838110156125e65780820151818401526020810190506125cb565b838111156125f5576000848401525b50505050565b60006126068261258b565b9150600082141561261a576126196126d1565b5b600182039050919050565b6000600282049050600182168061263d57607f821691505b6020821081141561265157612650612700565b5b50919050565b6126608261275e565b810181811067ffffffffffffffff8211171561267f5761267e61272f565b5b80604052505050565b60006126938261258b565b91507fffffffffffffffffffffffffffffffffffffffffffffffffffffffffffffffff8214156126c6576126c56126d1565b5b600182019050919050565b7f4e487b7100000000000000000000000000000000000000000000000000000000600052601160045260246000fd5b7f4e487b7100000000000000000000000000000000000000000000000000000000600052602260045260246000fd5b7f4e487b7100000000000000000000000000000000000000000000000000000000600052604160045260246000fd5b6000601f19601f8301169050919050565b7f596f7520646f6e277420766f74656420746f20746869732063617465676f7279600082015250565b7f53656e64206174206c6561737420312053414320546f6b656e00000000000000600082015250565b7f546869732063617465676f727920646f6e277420657869737473000000000000600082015250565b7f596f7520646f6e2774206861766520746f6b656e7320746f20766f7465000000600082015250565b7f4f6e6c7920616c6c6f77656420746f2072657365617263686572730000000000600082015250565b6128458161254d565b811461285057600080fd5b50565b61285c8161255f565b811461286757600080fd5b50565b6128738161258b565b811461287e57600080fd5b5056fea26469706673582212209d9ce312f2a6016265935db6df8978cb6d0f068195b049faa7026104d4f865c664736f6c63430008020033",
  "immutableReferences": {},
  "source": "// SPDX-License-Identifier: GPL-3.0\r\npragma solidity >=0.7.0 <=0.9.0;\r\n\r\nimport \"./PoolPassiveInterface.sol\";\r\nimport \"./types/CategoryTypes.sol\";\r\nimport \"./ResearcherContract.sol\";\r\n\r\n/**\r\n * @author Sintrop\r\n * @title CategoryContract\r\n * @dev Category resource that is a part of Sintrop business\r\n */\r\ncontract CategoryContract {\r\n  mapping(uint256 => Category) public categories;\r\n  mapping(uint256 => uint256) public votes;\r\n  mapping(address => mapping(uint256 => uint256)) public voted;\r\n\r\n  ResearcherContract public researcherContract;\r\n\r\n  Category public category;\r\n  uint256 public categoryCounts;\r\n  PoolPassiveInterface internal isaPool;\r\n\r\n  constructor(address _isaPoolAddress, address researcherContractAddress) {\r\n    isaPool = PoolPassiveInterface(_isaPoolAddress);\r\n    researcherContract = ResearcherContract(researcherContractAddress);\r\n  }\r\n\r\n  /**\r\n   * @dev add a new category\r\n   * @param name the name of category\r\n   * @param description the description of category\r\n   * @param totallySustainable the description text to this metric\r\n   * @param partiallySustainable the description text to this metric\r\n   * @param neutro the description text to this metric\r\n   * @param partiallyNotSustainable the description text to this metric\r\n   * @param totallyNotSustainable the description text to this metric\r\n   * @return bool\r\n   */\r\n  function addCategory(\r\n    string memory name,\r\n    string memory description,\r\n    string memory totallySustainable,\r\n    string memory partiallySustainable,\r\n    string memory neutro,\r\n    string memory partiallyNotSustainable,\r\n    string memory totallyNotSustainable\r\n  ) public requireResearcher returns (bool) {\r\n    category = Category(\r\n      categoryCounts + 1,\r\n      msg.sender,\r\n      name,\r\n      description,\r\n      totallySustainable,\r\n      partiallySustainable,\r\n      neutro,\r\n      partiallyNotSustainable,\r\n      totallyNotSustainable,\r\n      0\r\n    );\r\n\r\n    categories[category.id] = category;\r\n    categoryCounts++;\r\n\r\n    return true;\r\n  }\r\n\r\n  /**\r\n   * @dev Returns all added categories\r\n   * @return category struc array\r\n   */\r\n  function getCategories() public view returns (Category[] memory) {\r\n    Category[] memory categoriesList = new Category[](categoryCounts);\r\n\r\n    for (uint256 i = 0; i < categoryCounts; i++) {\r\n      categoriesList[i] = categories[i + 1];\r\n    }\r\n\r\n    return categoriesList;\r\n  }\r\n\r\n  /**\r\n   * @dev Allow a user vote in a category sending tokens amount to this\r\n   * @param id the id of a category that receives a vote.\r\n   * @param tokens the tokens amount that the use want use to vote.\r\n   * @return boolean\r\n   */\r\n  function vote(uint256 id, uint256 tokens)\r\n    public\r\n    categoryMustExists(id)\r\n    mustHaveSacToken(tokens)\r\n    mustSendSomeSacToken(tokens)\r\n    returns (bool)\r\n  {\r\n    isaPool.transferWith(msg.sender, tokens);\r\n\r\n    votes[id] += tokens;\r\n    voted[msg.sender][id] += tokens;\r\n\r\n    categories[id].votesCount++;\r\n    return true;\r\n  }\r\n\r\n  /**\r\n   * @dev Allow a user unvote in a category and get your tokens again\r\n   * @param id the id of a category that receives a vote.\r\n   * @return uint256\r\n   */\r\n  function unvote(uint256 id) public categoryMustExists(id) mustHaveVoted(id) returns (uint256) {\r\n    uint256 tokens = voted[msg.sender][id];\r\n\r\n    isaPool.approveWith(msg.sender, tokens);\r\n\r\n    votes[id] -= tokens;\r\n    voted[msg.sender][id] = 0;\r\n    categories[id].votesCount--;\r\n\r\n    return tokens;\r\n  }\r\n\r\n  // MODIFIERS\r\n\r\n  modifier categoryMustExists(uint256 id) {\r\n    require(categories[id].id > 0, \"This category don't exists\");\r\n    _;\r\n  }\r\n\r\n  modifier mustHaveSacToken(uint256 tokens) {\r\n    require(isaPool.balanceOf(msg.sender) > tokens, \"You don't have tokens to vote\");\r\n    _;\r\n  }\r\n\r\n  modifier mustSendSomeSacToken(uint256 tokens) {\r\n    require(tokens > 0, \"Send at least 1 SAC Token\");\r\n    _;\r\n  }\r\n\r\n  modifier mustHaveVoted(uint256 id) {\r\n    require(voted[msg.sender][id] > 0, \"You don't voted to this category\");\r\n    _;\r\n  }\r\n\r\n  modifier requireResearcher() {\r\n    require(researcherContract.researcherExists(msg.sender), \"Only allowed to researchers\");\r\n    _;\r\n  }    \r\n}\r\n",
  "sourcePath": "C:\\Users\\Bruno\\OneDrive\\rea de Trabalho\\sintrop-projects\\core-contracts\\contracts\\CategoryContract.sol",
  "compiler": {
    "name": "solc",
    "version": "0.8.2+commit.661d1103.Emscripten.clang"
  },
  "schemaVersion": "3.4.7",
  "updatedAt": "2022-08-27T13:34:08.428Z",
  "networkType": "ethereum",
  "devdoc": {
    "author": "Sintrop",
    "details": "Category resource that is a part of Sintrop business",
    "kind": "dev",
    "methods": {
      "addCategory(string,string,string,string,string,string,string)": {
        "details": "add a new category",
        "params": {
          "description": "the description of category",
          "name": "the name of category",
          "neutro": "the description text to this metric",
          "partiallyNotSustainable": "the description text to this metric",
          "partiallySustainable": "the description text to this metric",
          "totallyNotSustainable": "the description text to this metric",
          "totallySustainable": "the description text to this metric"
        },
        "returns": {
          "_0": "bool"
        }
      },
      "getCategories()": {
        "details": "Returns all added categories",
        "returns": {
          "_0": "category struc array"
        }
      },
      "unvote(uint256)": {
        "details": "Allow a user unvote in a category and get your tokens again",
        "params": {
          "id": "the id of a category that receives a vote."
        },
        "returns": {
          "_0": "uint256"
        }
      },
      "vote(uint256,uint256)": {
        "details": "Allow a user vote in a category sending tokens amount to this",
        "params": {
          "id": "the id of a category that receives a vote.",
          "tokens": "the tokens amount that the use want use to vote."
        },
        "returns": {
          "_0": "boolean"
        }
      }
    },
    "title": "CategoryContract",
    "version": 1
  },
  "userdoc": {
    "kind": "user",
    "methods": {},
    "version": 1
  }
}