{
  "contractName": "CategoryContract",
  "abi": [
    {
      "inputs": [
        {
          "internalType": "address",
          "name": "_isaPoolAddress",
          "type": "address"
        }
      ],
      "stateMutability": "nonpayable",
      "type": "constructor"
    },
    {
      "inputs": [
        {
          "internalType": "uint256",
          "name": "",
          "type": "uint256"
        }
      ],
      "name": "categories",
      "outputs": [
        {
          "internalType": "uint256",
          "name": "id",
          "type": "uint256"
        },
        {
          "internalType": "address",
          "name": "createdBy",
          "type": "address"
        },
        {
          "internalType": "string",
          "name": "name",
          "type": "string"
        },
        {
          "internalType": "string",
          "name": "description",
          "type": "string"
        },
        {
          "internalType": "string",
          "name": "totallySustainable",
          "type": "string"
        },
        {
          "internalType": "string",
          "name": "partiallySustainable",
          "type": "string"
        },
        {
          "internalType": "string",
          "name": "neutro",
          "type": "string"
        },
        {
          "internalType": "string",
          "name": "partiallyNotSustainable",
          "type": "string"
        },
        {
          "internalType": "string",
          "name": "totallyNotSustainable",
          "type": "string"
        },
        {
          "internalType": "uint256",
          "name": "votesCount",
          "type": "uint256"
        }
      ],
      "stateMutability": "view",
      "type": "function",
      "constant": true
    },
    {
      "inputs": [],
      "name": "category",
      "outputs": [
        {
          "internalType": "uint256",
          "name": "id",
          "type": "uint256"
        },
        {
          "internalType": "address",
          "name": "createdBy",
          "type": "address"
        },
        {
          "internalType": "string",
          "name": "name",
          "type": "string"
        },
        {
          "internalType": "string",
          "name": "description",
          "type": "string"
        },
        {
          "internalType": "string",
          "name": "totallySustainable",
          "type": "string"
        },
        {
          "internalType": "string",
          "name": "partiallySustainable",
          "type": "string"
        },
        {
          "internalType": "string",
          "name": "neutro",
          "type": "string"
        },
        {
          "internalType": "string",
          "name": "partiallyNotSustainable",
          "type": "string"
        },
        {
          "internalType": "string",
          "name": "totallyNotSustainable",
          "type": "string"
        },
        {
          "internalType": "uint256",
          "name": "votesCount",
          "type": "uint256"
        }
      ],
      "stateMutability": "view",
      "type": "function",
      "constant": true
    },
    {
      "inputs": [],
      "name": "categoryCounts",
      "outputs": [
        {
          "internalType": "uint256",
          "name": "",
          "type": "uint256"
        }
      ],
      "stateMutability": "view",
      "type": "function",
      "constant": true
    },
    {
      "inputs": [
        {
          "internalType": "address",
          "name": "",
          "type": "address"
        },
        {
          "internalType": "uint256",
          "name": "",
          "type": "uint256"
        }
      ],
      "name": "voted",
      "outputs": [
        {
          "internalType": "uint256",
          "name": "",
          "type": "uint256"
        }
      ],
      "stateMutability": "view",
      "type": "function",
      "constant": true
    },
    {
      "inputs": [
        {
          "internalType": "uint256",
          "name": "",
          "type": "uint256"
        }
      ],
      "name": "votes",
      "outputs": [
        {
          "internalType": "uint256",
          "name": "",
          "type": "uint256"
        }
      ],
      "stateMutability": "view",
      "type": "function",
      "constant": true
    },
    {
      "inputs": [
        {
          "internalType": "string",
          "name": "name",
          "type": "string"
        },
        {
          "internalType": "string",
          "name": "description",
          "type": "string"
        },
        {
          "internalType": "string",
          "name": "totallySustainable",
          "type": "string"
        },
        {
          "internalType": "string",
          "name": "partiallySustainable",
          "type": "string"
        },
        {
          "internalType": "string",
          "name": "neutro",
          "type": "string"
        },
        {
          "internalType": "string",
          "name": "partiallyNotSustainable",
          "type": "string"
        },
        {
          "internalType": "string",
          "name": "totallyNotSustainable",
          "type": "string"
        }
      ],
      "name": "addCategory",
      "outputs": [
        {
          "internalType": "bool",
          "name": "",
          "type": "bool"
        }
      ],
      "stateMutability": "nonpayable",
      "type": "function"
    },
    {
      "inputs": [],
      "name": "getCategories",
      "outputs": [
        {
          "components": [
            {
              "internalType": "uint256",
              "name": "id",
              "type": "uint256"
            },
            {
              "internalType": "address",
              "name": "createdBy",
              "type": "address"
            },
            {
              "internalType": "string",
              "name": "name",
              "type": "string"
            },
            {
              "internalType": "string",
              "name": "description",
              "type": "string"
            },
            {
              "internalType": "string",
              "name": "totallySustainable",
              "type": "string"
            },
            {
              "internalType": "string",
              "name": "partiallySustainable",
              "type": "string"
            },
            {
              "internalType": "string",
              "name": "neutro",
              "type": "string"
            },
            {
              "internalType": "string",
              "name": "partiallyNotSustainable",
              "type": "string"
            },
            {
              "internalType": "string",
              "name": "totallyNotSustainable",
              "type": "string"
            },
            {
              "internalType": "uint256",
              "name": "votesCount",
              "type": "uint256"
            }
          ],
          "internalType": "struct Category[]",
          "name": "",
          "type": "tuple[]"
        }
      ],
      "stateMutability": "view",
      "type": "function",
      "constant": true
    },
    {
      "inputs": [
        {
          "internalType": "uint256",
          "name": "id",
          "type": "uint256"
        },
        {
          "internalType": "uint256",
          "name": "tokens",
          "type": "uint256"
        }
      ],
      "name": "vote",
      "outputs": [
        {
          "internalType": "bool",
          "name": "",
          "type": "bool"
        }
      ],
      "stateMutability": "nonpayable",
      "type": "function"
    },
    {
      "inputs": [
        {
          "internalType": "uint256",
          "name": "id",
          "type": "uint256"
        }
      ],
      "name": "unvote",
      "outputs": [
        {
          "internalType": "uint256",
          "name": "",
          "type": "uint256"
        }
      ],
      "stateMutability": "nonpayable",
      "type": "function"
    }
  ],
  "bytecode": "0x60806040523480156200001157600080fd5b50604051620027e4380380620027e4833981810160405281019062000037919062000096565b80600e60006101000a81548173ffffffffffffffffffffffffffffffffffffffff021916908373ffffffffffffffffffffffffffffffffffffffff1602179055505062000110565b6000815190506200009081620000f6565b92915050565b600060208284031215620000a957600080fd5b6000620000b9848285016200007f565b91505092915050565b6000620000cf82620000d6565b9050919050565b600073ffffffffffffffffffffffffffffffffffffffff82169050919050565b6200010181620000c2565b81146200010d57600080fd5b50565b6126c480620001206000396000f3fe608060405234801561001057600080fd5b50600436106100935760003560e01c8063a1c24d6411610066578063a1c24d6414610134578063b384abef14610164578063c591aa9814610194578063c6cdbe5e146101c4578063ef430aa6146101fd57610093565b80634db0412c1461009857806351ec4285146100b65780635df81330146100e65780637333afcf14610116575b600080fd5b6100a0610224565b6040516100ad91906120bc565b60405180910390f35b6100d060048036038101906100cb9190611d14565b6107a4565b6040516100dd9190612179565b60405180910390f35b61010060048036038101906100fb9190611d14565b610a4e565b60405161010d9190612179565b60405180910390f35b61011e610a66565b60405161012b9190612179565b60405180910390f35b61014e60048036038101906101499190611bce565b610a6c565b60405161015b91906120de565b60405180910390f35b61017e60048036038101906101799190611d66565b610da4565b60405161018b91906120de565b60405180910390f35b6101ae60048036038101906101a99190611b69565b6110a9565b6040516101bb9190612179565b60405180910390f35b6101de60048036038101906101d99190611d14565b6110ce565b6040516101f49a99989796959493929190612194565b60405180910390f35b6102056114fa565b60405161021b9a99989796959493929190612194565b60405180910390f35b60606000600d5467ffffffffffffffff81111561026a577f4e487b7100000000000000000000000000000000000000000000000000000000600052604160045260246000fd5b6040519080825280602002602001820160405280156102a357816020015b610290611914565b8152602001906001900390816102885790505b50905060005b600d5481101561079c576000806001836102c3919061231d565b815260200190815260200160002060405180610140016040529081600082015481526020016001820160009054906101000a900473ffffffffffffffffffffffffffffffffffffffff1673ffffffffffffffffffffffffffffffffffffffff1673ffffffffffffffffffffffffffffffffffffffff16815260200160028201805461034d9061245b565b80601f01602080910402602001604051908101604052809291908181526020018280546103799061245b565b80156103c65780601f1061039b576101008083540402835291602001916103c6565b820191906000526020600020905b8154815290600101906020018083116103a957829003601f168201915b505050505081526020016003820180546103df9061245b565b80601f016020809104026020016040519081016040528092919081815260200182805461040b9061245b565b80156104585780601f1061042d57610100808354040283529160200191610458565b820191906000526020600020905b81548152906001019060200180831161043b57829003601f168201915b505050505081526020016004820180546104719061245b565b80601f016020809104026020016040519081016040528092919081815260200182805461049d9061245b565b80156104ea5780601f106104bf576101008083540402835291602001916104ea565b820191906000526020600020905b8154815290600101906020018083116104cd57829003601f168201915b505050505081526020016005820180546105039061245b565b80601f016020809104026020016040519081016040528092919081815260200182805461052f9061245b565b801561057c5780601f106105515761010080835404028352916020019161057c565b820191906000526020600020905b81548152906001019060200180831161055f57829003601f168201915b505050505081526020016006820180546105959061245b565b80601f01602080910402602001604051908101604052809291908181526020018280546105c19061245b565b801561060e5780601f106105e35761010080835404028352916020019161060e565b820191906000526020600020905b8154815290600101906020018083116105f157829003601f168201915b505050505081526020016007820180546106279061245b565b80601f01602080910402602001604051908101604052809291908181526020018280546106539061245b565b80156106a05780601f10610675576101008083540402835291602001916106a0565b820191906000526020600020905b81548152906001019060200180831161068357829003601f168201915b505050505081526020016008820180546106b99061245b565b80601f01602080910402602001604051908101604052809291908181526020018280546106e59061245b565b80156107325780601f1061070757610100808354040283529160200191610732565b820191906000526020600020905b81548152906001019060200180831161071557829003601f168201915b5050505050815260200160098201548152505082828151811061077e577f4e487b7100000000000000000000000000000000000000000000000000000000600052603260045260246000fd5b60200260200101819052508080610794906124be565b9150506102a9565b508091505090565b600081600080600083815260200190815260200160002060000154116107ff576040517f08c379a00000000000000000000000000000000000000000000000000000000081526004016107f690612139565b60405180910390fd5b826000600260003373ffffffffffffffffffffffffffffffffffffffff1673ffffffffffffffffffffffffffffffffffffffff16815260200190815260200160002060008381526020019081526020016000205411610893576040517f08c379a000000000000000000000000000000000000000000000000000000000815260040161088a906120f9565b60405180910390fd5b6000600260003373ffffffffffffffffffffffffffffffffffffffff1673ffffffffffffffffffffffffffffffffffffffff1681526020019081526020016000206000868152602001908152602001600020549050600e60009054906101000a900473ffffffffffffffffffffffffffffffffffffffff1673ffffffffffffffffffffffffffffffffffffffff166367ff17a633836040518363ffffffff1660e01b8152600401610945929190612093565b602060405180830381600087803b15801561095f57600080fd5b505af1158015610973573d6000803e3d6000fd5b505050506040513d601f19601f820116820180604052508101906109979190611ba5565b50806001600087815260200190815260200160002060008282546109bb9190612373565b925050819055506000600260003373ffffffffffffffffffffffffffffffffffffffff1673ffffffffffffffffffffffffffffffffffffffff1681526020019081526020016000206000878152602001908152602001600020819055506000808681526020019081526020016000206009016000815480929190610a3e90612431565b9190505550809350505050919050565b60016020528060005260406000206000915090505481565b600d5481565b60006040518061014001604052806001600d54610a89919061231d565b81526020013373ffffffffffffffffffffffffffffffffffffffff168152602001898152602001888152602001878152602001868152602001858152602001848152602001838152602001600081525060036000820151816000015560208201518160010160006101000a81548173ffffffffffffffffffffffffffffffffffffffff021916908373ffffffffffffffffffffffffffffffffffffffff1602179055506040820151816002019080519060200190610b4892919061197d565b506060820151816003019080519060200190610b6592919061197d565b506080820151816004019080519060200190610b8292919061197d565b5060a0820151816005019080519060200190610b9f92919061197d565b5060c0820151816006019080519060200190610bbc92919061197d565b5060e0820151816007019080519060200190610bd992919061197d565b50610100820151816008019080519060200190610bf792919061197d565b50610120820151816009015590505060036000806003600001548152602001908152602001600020600082015481600001556001820160009054906101000a900473ffffffffffffffffffffffffffffffffffffffff168160010160006101000a81548173ffffffffffffffffffffffffffffffffffffffff021916908373ffffffffffffffffffffffffffffffffffffffff1602179055506002820181600201908054610ca49061245b565b610caf929190611a03565b506003820181600301908054610cc49061245b565b610ccf929190611a03565b506004820181600401908054610ce49061245b565b610cef929190611a03565b506005820181600501908054610d049061245b565b610d0f929190611a03565b506006820181600601908054610d249061245b565b610d2f929190611a03565b506007820181600701908054610d449061245b565b610d4f929190611a03565b506008820181600801908054610d649061245b565b610d6f929190611a03565b5060098201548160090155905050600d6000815480929190610d90906124be565b919050555060019050979650505050505050565b60008260008060008381526020019081526020016000206000015411610dff576040517f08c379a0000000000000000000000000000000000000000000000000000000008152600401610df690612139565b60405180910390fd5b8280600e60009054906101000a900473ffffffffffffffffffffffffffffffffffffffff1673ffffffffffffffffffffffffffffffffffffffff166370a08231336040518263ffffffff1660e01b8152600401610e5c9190612078565b60206040518083038186803b158015610e7457600080fd5b505afa158015610e88573d6000803e3d6000fd5b505050506040513d601f19601f82011682018060405250810190610eac9190611d3d565b11610eec576040517f08c379a0000000000000000000000000000000000000000000000000000000008152600401610ee390612159565b60405180910390fd5b8360008111610f30576040517f08c379a0000000000000000000000000000000000000000000000000000000008152600401610f2790612119565b60405180910390fd5b600e60009054906101000a900473ffffffffffffffffffffffffffffffffffffffff1673ffffffffffffffffffffffffffffffffffffffff166344edffbb33876040518363ffffffff1660e01b8152600401610f8d929190612093565b602060405180830381600087803b158015610fa757600080fd5b505af1158015610fbb573d6000803e3d6000fd5b505050506040513d601f19601f82011682018060405250810190610fdf9190611ba5565b5084600160008881526020019081526020016000206000828254611003919061231d565b9250508190555084600260003373ffffffffffffffffffffffffffffffffffffffff1673ffffffffffffffffffffffffffffffffffffffff1681526020019081526020016000206000888152602001908152602001600020600082825461106a919061231d565b925050819055506000808781526020019081526020016000206009016000815480929190611097906124be565b91905055506001935050505092915050565b6002602052816000526040600020602052806000526040600020600091509150505481565b60006020528060005260406000206000915090508060000154908060010160009054906101000a900473ffffffffffffffffffffffffffffffffffffffff169080600201805461111d9061245b565b80601f01602080910402602001604051908101604052809291908181526020018280546111499061245b565b80156111965780601f1061116b57610100808354040283529160200191611196565b820191906000526020600020905b81548152906001019060200180831161117957829003601f168201915b5050505050908060030180546111ab9061245b565b80601f01602080910402602001604051908101604052809291908181526020018280546111d79061245b565b80156112245780601f106111f957610100808354040283529160200191611224565b820191906000526020600020905b81548152906001019060200180831161120757829003601f168201915b5050505050908060040180546112399061245b565b80601f01602080910402602001604051908101604052809291908181526020018280546112659061245b565b80156112b25780601f10611287576101008083540402835291602001916112b2565b820191906000526020600020905b81548152906001019060200180831161129557829003601f168201915b5050505050908060050180546112c79061245b565b80601f01602080910402602001604051908101604052809291908181526020018280546112f39061245b565b80156113405780601f1061131557610100808354040283529160200191611340565b820191906000526020600020905b81548152906001019060200180831161132357829003601f168201915b5050505050908060060180546113559061245b565b80601f01602080910402602001604051908101604052809291908181526020018280546113819061245b565b80156113ce5780601f106113a3576101008083540402835291602001916113ce565b820191906000526020600020905b8154815290600101906020018083116113b157829003601f168201915b5050505050908060070180546113e39061245b565b80601f016020809104026020016040519081016040528092919081815260200182805461140f9061245b565b801561145c5780601f106114315761010080835404028352916020019161145c565b820191906000526020600020905b81548152906001019060200180831161143f57829003601f168201915b5050505050908060080180546114719061245b565b80601f016020809104026020016040519081016040528092919081815260200182805461149d9061245b565b80156114ea5780601f106114bf576101008083540402835291602001916114ea565b820191906000526020600020905b8154815290600101906020018083116114cd57829003601f168201915b505050505090806009015490508a565b60038060000154908060010160009054906101000a900473ffffffffffffffffffffffffffffffffffffffff16908060020180546115379061245b565b80601f01602080910402602001604051908101604052809291908181526020018280546115639061245b565b80156115b05780601f10611585576101008083540402835291602001916115b0565b820191906000526020600020905b81548152906001019060200180831161159357829003601f168201915b5050505050908060030180546115c59061245b565b80601f01602080910402602001604051908101604052809291908181526020018280546115f19061245b565b801561163e5780601f106116135761010080835404028352916020019161163e565b820191906000526020600020905b81548152906001019060200180831161162157829003601f168201915b5050505050908060040180546116539061245b565b80601f016020809104026020016040519081016040528092919081815260200182805461167f9061245b565b80156116cc5780601f106116a1576101008083540402835291602001916116cc565b820191906000526020600020905b8154815290600101906020018083116116af57829003601f168201915b5050505050908060050180546116e19061245b565b80601f016020809104026020016040519081016040528092919081815260200182805461170d9061245b565b801561175a5780601f1061172f5761010080835404028352916020019161175a565b820191906000526020600020905b81548152906001019060200180831161173d57829003601f168201915b50505050509080600601805461176f9061245b565b80601f016020809104026020016040519081016040528092919081815260200182805461179b9061245b565b80156117e85780601f106117bd576101008083540402835291602001916117e8565b820191906000526020600020905b8154815290600101906020018083116117cb57829003601f168201915b5050505050908060070180546117fd9061245b565b80601f01602080910402602001604051908101604052809291908181526020018280546118299061245b565b80156118765780601f1061184b57610100808354040283529160200191611876565b820191906000526020600020905b81548152906001019060200180831161185957829003601f168201915b50505050509080600801805461188b9061245b565b80601f01602080910402602001604051908101604052809291908181526020018280546118b79061245b565b80156119045780601f106118d957610100808354040283529160200191611904565b820191906000526020600020905b8154815290600101906020018083116118e757829003601f168201915b505050505090806009015490508a565b60405180610140016040528060008152602001600073ffffffffffffffffffffffffffffffffffffffff16815260200160608152602001606081526020016060815260200160608152602001606081526020016060815260200160608152602001600081525090565b8280546119899061245b565b90600052602060002090601f0160209004810192826119ab57600085556119f2565b82601f106119c457805160ff19168380011785556119f2565b828001600101855582156119f2579182015b828111156119f15782518255916020019190600101906119d6565b5b5090506119ff9190611a90565b5090565b828054611a0f9061245b565b90600052602060002090601f016020900481019282611a315760008555611a7f565b82601f10611a425780548555611a7f565b82800160010185558215611a7f57600052602060002091601f016020900482015b82811115611a7e578254825591600101919060010190611a63565b5b509050611a8c9190611a90565b5090565b5b80821115611aa9576000816000905550600101611a91565b5090565b6000611ac0611abb84612286565b612261565b905082815260208101848484011115611ad857600080fd5b611ae38482856123ef565b509392505050565b600081359050611afa81612649565b92915050565b600081519050611b0f81612660565b92915050565b600082601f830112611b2657600080fd5b8135611b36848260208601611aad565b91505092915050565b600081359050611b4e81612677565b92915050565b600081519050611b6381612677565b92915050565b60008060408385031215611b7c57600080fd5b6000611b8a85828601611aeb565b9250506020611b9b85828601611b3f565b9150509250929050565b600060208284031215611bb757600080fd5b6000611bc584828501611b00565b91505092915050565b600080600080600080600060e0888a031215611be957600080fd5b600088013567ffffffffffffffff811115611c0357600080fd5b611c0f8a828b01611b15565b975050602088013567ffffffffffffffff811115611c2c57600080fd5b611c388a828b01611b15565b965050604088013567ffffffffffffffff811115611c5557600080fd5b611c618a828b01611b15565b955050606088013567ffffffffffffffff811115611c7e57600080fd5b611c8a8a828b01611b15565b945050608088013567ffffffffffffffff811115611ca757600080fd5b611cb38a828b01611b15565b93505060a088013567ffffffffffffffff811115611cd057600080fd5b611cdc8a828b01611b15565b92505060c088013567ffffffffffffffff811115611cf957600080fd5b611d058a828b01611b15565b91505092959891949750929550565b600060208284031215611d2657600080fd5b6000611d3484828501611b3f565b91505092915050565b600060208284031215611d4f57600080fd5b6000611d5d84828501611b54565b91505092915050565b60008060408385031215611d7957600080fd5b6000611d8785828601611b3f565b9250506020611d9885828601611b3f565b9150509250929050565b6000611dae8383611f56565b905092915050565b611dbf816123a7565b82525050565b611dce816123a7565b82525050565b6000611ddf826122c7565b611de981856122ea565b935083602082028501611dfb856122b7565b8060005b85811015611e375784840389528151611e188582611da2565b9450611e23836122dd565b925060208a01995050600181019050611dff565b50829750879550505050505092915050565b611e52816123b9565b82525050565b6000611e63826122d2565b611e6d81856122fb565b9350611e7d8185602086016123fe565b611e8681612594565b840191505092915050565b6000611e9c826122d2565b611ea6818561230c565b9350611eb68185602086016123fe565b611ebf81612594565b840191505092915050565b6000611ed760208361230c565b9150611ee2826125a5565b602082019050919050565b6000611efa60198361230c565b9150611f05826125ce565b602082019050919050565b6000611f1d601a8361230c565b9150611f28826125f7565b602082019050919050565b6000611f40601d8361230c565b9150611f4b82612620565b602082019050919050565b600061014083016000830151611f6f600086018261205a565b506020830151611f826020860182611db6565b5060408301518482036040860152611f9a8282611e58565b91505060608301518482036060860152611fb48282611e58565b91505060808301518482036080860152611fce8282611e58565b91505060a083015184820360a0860152611fe88282611e58565b91505060c083015184820360c08601526120028282611e58565b91505060e083015184820360e086015261201c8282611e58565b9150506101008301518482036101008601526120388282611e58565b91505061012083015161204f61012086018261205a565b508091505092915050565b612063816123e5565b82525050565b612072816123e5565b82525050565b600060208201905061208d6000830184611dc5565b92915050565b60006040820190506120a86000830185611dc5565b6120b56020830184612069565b9392505050565b600060208201905081810360008301526120d68184611dd4565b905092915050565b60006020820190506120f36000830184611e49565b92915050565b6000602082019050818103600083015261211281611eca565b9050919050565b6000602082019050818103600083015261213281611eed565b9050919050565b6000602082019050818103600083015261215281611f10565b9050919050565b6000602082019050818103600083015261217281611f33565b9050919050565b600060208201905061218e6000830184612069565b92915050565b6000610140820190506121aa600083018d612069565b6121b7602083018c611dc5565b81810360408301526121c9818b611e91565b905081810360608301526121dd818a611e91565b905081810360808301526121f18189611e91565b905081810360a08301526122058188611e91565b905081810360c08301526122198187611e91565b905081810360e083015261222d8186611e91565b90508181036101008301526122428185611e91565b9050612252610120830184612069565b9b9a5050505050505050505050565b600061226b61227c565b9050612277828261248d565b919050565b6000604051905090565b600067ffffffffffffffff8211156122a1576122a0612565565b5b6122aa82612594565b9050602081019050919050565b6000819050602082019050919050565b600081519050919050565b600081519050919050565b6000602082019050919050565b600082825260208201905092915050565b600082825260208201905092915050565b600082825260208201905092915050565b6000612328826123e5565b9150612333836123e5565b9250827fffffffffffffffffffffffffffffffffffffffffffffffffffffffffffffffff0382111561236857612367612507565b5b828201905092915050565b600061237e826123e5565b9150612389836123e5565b92508282101561239c5761239b612507565b5b828203905092915050565b60006123b2826123c5565b9050919050565b60008115159050919050565b600073ffffffffffffffffffffffffffffffffffffffff82169050919050565b6000819050919050565b82818337600083830152505050565b60005b8381101561241c578082015181840152602081019050612401565b8381111561242b576000848401525b50505050565b600061243c826123e5565b915060008214156124505761244f612507565b5b600182039050919050565b6000600282049050600182168061247357607f821691505b6020821081141561248757612486612536565b5b50919050565b61249682612594565b810181811067ffffffffffffffff821117156124b5576124b4612565565b5b80604052505050565b60006124c9826123e5565b91507fffffffffffffffffffffffffffffffffffffffffffffffffffffffffffffffff8214156124fc576124fb612507565b5b600182019050919050565b7f4e487b7100000000000000000000000000000000000000000000000000000000600052601160045260246000fd5b7f4e487b7100000000000000000000000000000000000000000000000000000000600052602260045260246000fd5b7f4e487b7100000000000000000000000000000000000000000000000000000000600052604160045260246000fd5b6000601f19601f8301169050919050565b7f596f7520646f6e277420766f74656420746f20746869732063617465676f7279600082015250565b7f53656e64206174206c6561737420312053414320546f6b656e00000000000000600082015250565b7f546869732063617465676f727920646f6e277420657869737473000000000000600082015250565b7f596f7520646f6e2774206861766520746f6b656e7320746f20766f7465000000600082015250565b612652816123a7565b811461265d57600080fd5b50565b612669816123b9565b811461267457600080fd5b50565b612680816123e5565b811461268b57600080fd5b5056fea2646970667358221220a4cb8f316b6586f512a0e066d0f92c0aaa0816f2f363f9cba905880852f458f464736f6c63430008020033",
  "immutableReferences": {},
  "source": "// SPDX-License-Identifier: GPL-3.0\r\npragma solidity >=0.7.0 <=0.9.0;\r\n\r\nimport \"./PoolPassiveInterface.sol\";\r\nimport \"./types/CategoryTypes.sol\";\r\n\r\n/**\r\n * @author Sintrop\r\n * @title CategoryContract\r\n * @dev Category resource that is a part of Sintrop business\r\n */\r\ncontract CategoryContract {\r\n  mapping(uint256 => Category) public categories;\r\n  mapping(uint256 => uint256) public votes;\r\n  mapping(address => mapping(uint256 => uint256)) public voted;\r\n\r\n  Category public category;\r\n  uint256 public categoryCounts;\r\n  PoolPassiveInterface internal isaPool;\r\n\r\n  constructor(address _isaPoolAddress) {\r\n    isaPool = PoolPassiveInterface(_isaPoolAddress);\r\n  }\r\n\r\n  /**\r\n   * @dev add a new category\r\n   * @param name the name of category\r\n   * @param description the description of category\r\n   * @param totallySustainable the description text to this metric\r\n   * @param partiallySustainable the description text to this metric\r\n   * @param neutro the description text to this metric\r\n   * @param partiallyNotSustainable the description text to this metric\r\n   * @param totallyNotSustainable the description text to this metric\r\n   * @return bool\r\n   */\r\n  function addCategory(\r\n    string memory name,\r\n    string memory description,\r\n    string memory totallySustainable,\r\n    string memory partiallySustainable,\r\n    string memory neutro,\r\n    string memory partiallyNotSustainable,\r\n    string memory totallyNotSustainable\r\n  ) public returns (bool) {\r\n    category = Category(\r\n      categoryCounts + 1,\r\n      msg.sender,\r\n      name,\r\n      description,\r\n      totallySustainable,\r\n      partiallySustainable,\r\n      neutro,\r\n      partiallyNotSustainable,\r\n      totallyNotSustainable,\r\n      0\r\n    );\r\n\r\n    categories[category.id] = category;\r\n    categoryCounts++;\r\n\r\n    return true;\r\n  }\r\n\r\n  /**\r\n   * @dev Returns all added categories\r\n   * @return category struc array\r\n   */\r\n  function getCategories() public view returns (Category[] memory) {\r\n    Category[] memory categoriesList = new Category[](categoryCounts);\r\n\r\n    for (uint256 i = 0; i < categoryCounts; i++) {\r\n      categoriesList[i] = categories[i + 1];\r\n    }\r\n\r\n    return categoriesList;\r\n  }\r\n\r\n  /**\r\n   * @dev Allow a user vote in a category sending tokens amount to this\r\n   * @param id the id of a category that receives a vote.\r\n   * @param tokens the tokens amount that the use want use to vote.\r\n   * @return boolean\r\n   */\r\n  function vote(uint256 id, uint256 tokens)\r\n    public\r\n    categoryMustExists(id)\r\n    mustHaveSacToken(tokens)\r\n    mustSendSomeSacToken(tokens)\r\n    returns (bool)\r\n  {\r\n    isaPool.transferWith(msg.sender, tokens);\r\n\r\n    votes[id] += tokens;\r\n    voted[msg.sender][id] += tokens;\r\n\r\n    categories[id].votesCount++;\r\n    return true;\r\n  }\r\n\r\n  /**\r\n   * @dev Allow a user unvote in a category and get your tokens again\r\n   * @param id the id of a category that receives a vote.\r\n   * @return uint256\r\n   */\r\n  function unvote(uint256 id) public categoryMustExists(id) mustHaveVoted(id) returns (uint256) {\r\n    uint256 tokens = voted[msg.sender][id];\r\n\r\n    isaPool.approveWith(msg.sender, tokens);\r\n\r\n    votes[id] -= tokens;\r\n    voted[msg.sender][id] = 0;\r\n    categories[id].votesCount--;\r\n\r\n    return tokens;\r\n  }\r\n\r\n  // MODIFIERS\r\n\r\n  modifier categoryMustExists(uint256 id) {\r\n    require(categories[id].id > 0, \"This category don't exists\");\r\n    _;\r\n  }\r\n\r\n  modifier mustHaveSacToken(uint256 tokens) {\r\n    require(isaPool.balanceOf(msg.sender) > tokens, \"You don't have tokens to vote\");\r\n    _;\r\n  }\r\n\r\n  modifier mustSendSomeSacToken(uint256 tokens) {\r\n    require(tokens > 0, \"Send at least 1 SAC Token\");\r\n    _;\r\n  }\r\n\r\n  modifier mustHaveVoted(uint256 id) {\r\n    require(voted[msg.sender][id] > 0, \"You don't voted to this category\");\r\n    _;\r\n  }\r\n}\r\n",
  "sourcePath": "C:\\Users\\emano\\Documents\\Sintrop\\Testes Branchs\\core-contracts\\contracts\\CategoryContract.sol",
  "compiler": {
    "name": "solc",
    "version": "0.8.2+commit.661d1103.Emscripten.clang"
  },
  "schemaVersion": "3.4.7",
  "updatedAt": "2022-08-22T15:35:42.100Z",
  "networkType": "ethereum",
  "devdoc": {
    "author": "Sintrop",
    "details": "Category resource that is a part of Sintrop business",
    "kind": "dev",
    "methods": {
      "addCategory(string,string,string,string,string,string,string)": {
        "details": "add a new category",
        "params": {
          "description": "the description of category",
          "name": "the name of category",
          "neutro": "the description text to this metric",
          "partiallyNotSustainable": "the description text to this metric",
          "partiallySustainable": "the description text to this metric",
          "totallyNotSustainable": "the description text to this metric",
          "totallySustainable": "the description text to this metric"
        },
        "returns": {
          "_0": "bool"
        }
      },
      "getCategories()": {
        "details": "Returns all added categories",
        "returns": {
          "_0": "category struc array"
        }
      },
      "unvote(uint256)": {
        "details": "Allow a user unvote in a category and get your tokens again",
        "params": {
          "id": "the id of a category that receives a vote."
        },
        "returns": {
          "_0": "uint256"
        }
      },
      "vote(uint256,uint256)": {
        "details": "Allow a user vote in a category sending tokens amount to this",
        "params": {
          "id": "the id of a category that receives a vote.",
          "tokens": "the tokens amount that the use want use to vote."
        },
        "returns": {
          "_0": "boolean"
        }
      }
    },
    "title": "CategoryContract",
    "version": 1
  },
  "userdoc": {
    "kind": "user",
    "methods": {},
    "version": 1
  }
}