{
  "contractName": "ProducerContract",
  "abi": [
    {
      "inputs": [
        {
          "internalType": "address",
          "name": "userContractAddress",
          "type": "address"
        }
      ],
      "stateMutability": "nonpayable",
      "type": "constructor"
    },
    {
      "anonymous": false,
      "inputs": [
        {
          "indexed": true,
          "internalType": "address",
          "name": "previousOwner",
          "type": "address"
        },
        {
          "indexed": true,
          "internalType": "address",
          "name": "newOwner",
          "type": "address"
        }
      ],
      "name": "OwnershipTransferred",
      "type": "event"
    },
    {
      "inputs": [
        {
          "internalType": "address",
          "name": "",
          "type": "address"
        }
      ],
      "name": "allowedCallers",
      "outputs": [
        {
          "internalType": "bool",
          "name": "",
          "type": "bool"
        }
      ],
      "stateMutability": "view",
      "type": "function",
      "constant": true
    },
    {
      "inputs": [
        {
          "internalType": "address",
          "name": "caller",
          "type": "address"
        }
      ],
      "name": "isAllowedCaller",
      "outputs": [
        {
          "internalType": "bool",
          "name": "",
          "type": "bool"
        }
      ],
      "stateMutability": "view",
      "type": "function",
      "constant": true
    },
    {
      "inputs": [
        {
          "internalType": "address",
          "name": "allowed",
          "type": "address"
        }
      ],
      "name": "newAllowedCaller",
      "outputs": [],
      "stateMutability": "nonpayable",
      "type": "function"
    },
    {
      "inputs": [],
      "name": "owner",
      "outputs": [
        {
          "internalType": "address",
          "name": "",
          "type": "address"
        }
      ],
      "stateMutability": "view",
      "type": "function",
      "constant": true
    },
    {
      "inputs": [
        {
          "internalType": "address",
          "name": "",
          "type": "address"
        }
      ],
      "name": "producers",
      "outputs": [
        {
          "internalType": "uint256",
          "name": "id",
          "type": "uint256"
        },
        {
          "internalType": "address",
          "name": "producerWallet",
          "type": "address"
        },
        {
          "internalType": "enum UserType",
          "name": "userType",
          "type": "uint8"
        },
        {
          "internalType": "string",
          "name": "name",
          "type": "string"
        },
        {
          "internalType": "string",
          "name": "document",
          "type": "string"
        },
        {
          "internalType": "string",
          "name": "documentType",
          "type": "string"
        },
        {
          "internalType": "bool",
          "name": "recentInspection",
          "type": "bool"
        },
        {
          "internalType": "uint256",
          "name": "totalRequests",
          "type": "uint256"
        },
        {
          "internalType": "uint256",
          "name": "lastRequestAt",
          "type": "uint256"
        },
        {
          "components": [
            {
              "internalType": "int256",
              "name": "isaScore",
              "type": "int256"
            },
            {
              "internalType": "int256",
              "name": "isaAverage",
              "type": "int256"
            }
          ],
          "internalType": "struct Isa",
          "name": "isa",
          "type": "tuple"
        },
        {
          "components": [
            {
              "internalType": "uint256",
              "name": "allowed",
              "type": "uint256"
            },
            {
              "internalType": "bool",
              "name": "withdrewToken",
              "type": "bool"
            }
          ],
          "internalType": "struct TokenApprove",
          "name": "tokenApprove",
          "type": "tuple"
        },
        {
          "components": [
            {
              "internalType": "string",
              "name": "country",
              "type": "string"
            },
            {
              "internalType": "string",
              "name": "state",
              "type": "string"
            },
            {
              "internalType": "string",
              "name": "city",
              "type": "string"
            },
            {
              "internalType": "string",
              "name": "cep",
              "type": "string"
            }
          ],
          "internalType": "struct PropertyAddress",
          "name": "propertyAddress",
          "type": "tuple"
        }
      ],
      "stateMutability": "view",
      "type": "function",
      "constant": true
    },
    {
      "inputs": [],
      "name": "producersCount",
      "outputs": [
        {
          "internalType": "uint256",
          "name": "",
          "type": "uint256"
        }
      ],
      "stateMutability": "view",
      "type": "function",
      "constant": true
    },
    {
      "inputs": [],
      "name": "renounceOwnership",
      "outputs": [],
      "stateMutability": "nonpayable",
      "type": "function"
    },
    {
      "inputs": [
        {
          "internalType": "address",
          "name": "newOwner",
          "type": "address"
        }
      ],
      "name": "transferOwnership",
      "outputs": [],
      "stateMutability": "nonpayable",
      "type": "function"
    },
    {
      "inputs": [
        {
          "internalType": "string",
          "name": "name",
          "type": "string"
        },
        {
          "internalType": "string",
          "name": "document",
          "type": "string"
        },
        {
          "internalType": "string",
          "name": "documentType",
          "type": "string"
        },
        {
          "internalType": "string",
          "name": "country",
          "type": "string"
        },
        {
          "internalType": "string",
          "name": "state",
          "type": "string"
        },
        {
          "internalType": "string",
          "name": "city",
          "type": "string"
        },
        {
          "internalType": "string",
          "name": "cep",
          "type": "string"
        }
      ],
      "name": "addProducer",
      "outputs": [],
      "stateMutability": "nonpayable",
      "type": "function"
    },
    {
      "inputs": [],
      "name": "getProducers",
      "outputs": [
        {
          "components": [
            {
              "internalType": "uint256",
              "name": "id",
              "type": "uint256"
            },
            {
              "internalType": "address",
              "name": "producerWallet",
              "type": "address"
            },
            {
              "internalType": "enum UserType",
              "name": "userType",
              "type": "uint8"
            },
            {
              "internalType": "string",
              "name": "name",
              "type": "string"
            },
            {
              "internalType": "string",
              "name": "document",
              "type": "string"
            },
            {
              "internalType": "string",
              "name": "documentType",
              "type": "string"
            },
            {
              "internalType": "bool",
              "name": "recentInspection",
              "type": "bool"
            },
            {
              "internalType": "uint256",
              "name": "totalRequests",
              "type": "uint256"
            },
            {
              "internalType": "uint256",
              "name": "lastRequestAt",
              "type": "uint256"
            },
            {
              "components": [
                {
                  "internalType": "int256",
                  "name": "isaScore",
                  "type": "int256"
                },
                {
                  "internalType": "int256",
                  "name": "isaAverage",
                  "type": "int256"
                }
              ],
              "internalType": "struct Isa",
              "name": "isa",
              "type": "tuple"
            },
            {
              "components": [
                {
                  "internalType": "uint256",
                  "name": "allowed",
                  "type": "uint256"
                },
                {
                  "internalType": "bool",
                  "name": "withdrewToken",
                  "type": "bool"
                }
              ],
              "internalType": "struct TokenApprove",
              "name": "tokenApprove",
              "type": "tuple"
            },
            {
              "components": [
                {
                  "internalType": "string",
                  "name": "country",
                  "type": "string"
                },
                {
                  "internalType": "string",
                  "name": "state",
                  "type": "string"
                },
                {
                  "internalType": "string",
                  "name": "city",
                  "type": "string"
                },
                {
                  "internalType": "string",
                  "name": "cep",
                  "type": "string"
                }
              ],
              "internalType": "struct PropertyAddress",
              "name": "propertyAddress",
              "type": "tuple"
            }
          ],
          "internalType": "struct Producer[]",
          "name": "",
          "type": "tuple[]"
        }
      ],
      "stateMutability": "view",
      "type": "function",
      "constant": true
    },
    {
      "inputs": [
        {
          "internalType": "address",
          "name": "addr",
          "type": "address"
        }
      ],
      "name": "getProducer",
      "outputs": [
        {
          "components": [
            {
              "internalType": "uint256",
              "name": "id",
              "type": "uint256"
            },
            {
              "internalType": "address",
              "name": "producerWallet",
              "type": "address"
            },
            {
              "internalType": "enum UserType",
              "name": "userType",
              "type": "uint8"
            },
            {
              "internalType": "string",
              "name": "name",
              "type": "string"
            },
            {
              "internalType": "string",
              "name": "document",
              "type": "string"
            },
            {
              "internalType": "string",
              "name": "documentType",
              "type": "string"
            },
            {
              "internalType": "bool",
              "name": "recentInspection",
              "type": "bool"
            },
            {
              "internalType": "uint256",
              "name": "totalRequests",
              "type": "uint256"
            },
            {
              "internalType": "uint256",
              "name": "lastRequestAt",
              "type": "uint256"
            },
            {
              "components": [
                {
                  "internalType": "int256",
                  "name": "isaScore",
                  "type": "int256"
                },
                {
                  "internalType": "int256",
                  "name": "isaAverage",
                  "type": "int256"
                }
              ],
              "internalType": "struct Isa",
              "name": "isa",
              "type": "tuple"
            },
            {
              "components": [
                {
                  "internalType": "uint256",
                  "name": "allowed",
                  "type": "uint256"
                },
                {
                  "internalType": "bool",
                  "name": "withdrewToken",
                  "type": "bool"
                }
              ],
              "internalType": "struct TokenApprove",
              "name": "tokenApprove",
              "type": "tuple"
            },
            {
              "components": [
                {
                  "internalType": "string",
                  "name": "country",
                  "type": "string"
                },
                {
                  "internalType": "string",
                  "name": "state",
                  "type": "string"
                },
                {
                  "internalType": "string",
                  "name": "city",
                  "type": "string"
                },
                {
                  "internalType": "string",
                  "name": "cep",
                  "type": "string"
                }
              ],
              "internalType": "struct PropertyAddress",
              "name": "propertyAddress",
              "type": "tuple"
            }
          ],
          "internalType": "struct Producer",
          "name": "producer",
          "type": "tuple"
        }
      ],
      "stateMutability": "view",
      "type": "function",
      "constant": true
    },
    {
      "inputs": [
        {
          "internalType": "address",
          "name": "addr",
          "type": "address"
        }
      ],
      "name": "producerExists",
      "outputs": [
        {
          "internalType": "bool",
          "name": "",
          "type": "bool"
        }
      ],
      "stateMutability": "view",
      "type": "function",
      "constant": true
    },
    {
      "inputs": [
        {
          "internalType": "address",
          "name": "addr",
          "type": "address"
        },
        {
          "internalType": "bool",
          "name": "state",
          "type": "bool"
        }
      ],
      "name": "recentInspection",
      "outputs": [],
      "stateMutability": "nonpayable",
      "type": "function"
    },
    {
      "inputs": [
        {
          "internalType": "address",
          "name": "addr",
          "type": "address"
        },
        {
          "internalType": "int256",
          "name": "isaScore",
          "type": "int256"
        }
      ],
      "name": "updateIsaScore",
      "outputs": [],
      "stateMutability": "nonpayable",
      "type": "function"
    },
    {
      "inputs": [
        {
          "internalType": "address",
          "name": "addr",
          "type": "address"
        }
      ],
      "name": "incrementRequests",
      "outputs": [],
      "stateMutability": "nonpayable",
      "type": "function"
    },
    {
      "inputs": [
        {
          "internalType": "address",
          "name": "addr",
          "type": "address"
        },
        {
          "internalType": "uint256",
          "name": "numTokens",
          "type": "uint256"
        }
      ],
      "name": "approveProducerNewTokens",
      "outputs": [],
      "stateMutability": "nonpayable",
      "type": "function"
    },
    {
      "inputs": [
        {
          "internalType": "address",
          "name": "addr",
          "type": "address"
        },
        {
          "internalType": "uint256",
          "name": "blocksNumber",
          "type": "uint256"
        }
      ],
      "name": "lastRequestAt",
      "outputs": [],
      "stateMutability": "nonpayable",
      "type": "function"
    },
    {
      "inputs": [
        {
          "internalType": "address",
          "name": "address_",
          "type": "address"
        }
      ],
      "name": "getProducerApprove",
      "outputs": [
        {
          "internalType": "uint256",
          "name": "",
          "type": "uint256"
        }
      ],
      "stateMutability": "view",
      "type": "function",
      "constant": true
    }
  ],
  "bytecode": "0x60806040523480156200001157600080fd5b50604051620036d8380380620036d8833981810160405281019062000037919062000182565b620000576200004b6200009f60201b60201c565b620000a760201b60201c565b80600360006101000a81548173ffffffffffffffffffffffffffffffffffffffff021916908373ffffffffffffffffffffffffffffffffffffffff16021790555050620001fc565b600033905090565b60008060009054906101000a900473ffffffffffffffffffffffffffffffffffffffff169050816000806101000a81548173ffffffffffffffffffffffffffffffffffffffff021916908373ffffffffffffffffffffffffffffffffffffffff1602179055508173ffffffffffffffffffffffffffffffffffffffff168173ffffffffffffffffffffffffffffffffffffffff167f8be0079c531659141344cd1fd0a4f28419497f9722a3daafe3b4186f6b6457e060405160405180910390a35050565b6000815190506200017c81620001e2565b92915050565b6000602082840312156200019557600080fd5b6000620001a5848285016200016b565b91505092915050565b6000620001bb82620001c2565b9050919050565b600073ffffffffffffffffffffffffffffffffffffffff82169050919050565b620001ed81620001ae565b8114620001f957600080fd5b50565b6134cc806200020c6000396000f3fe608060405234801561001057600080fd5b50600436106101165760003560e01c8063a6801258116100a2578063c19c903711610071578063c19c9037146102e6578063e53142e214610302578063e80a7eb914610320578063e9e797ac1461033e578063f2fde38b1461036e57610116565b8063a68012581461024e578063aab147b21461027e578063ab586c01146102ae578063b08ab061146102ca57610116565b80637b334154116100e95780637b334154146101985780638cf05442146101c85780638da5cb5b146101f85780638ed5540d146102165780638f93716f1461023257610116565b806326324eff1461011b578063360912ab1461015657806364ff847714610172578063715018a61461018e575b600080fd5b610135600480360381019061013091906125f5565b61038a565b60405161014d9c9b9a99989796959493929190612f42565b60405180910390f35b610170600480360381019061016b919061261e565b61085b565b005b61018c60048036038101906101879190612696565b610945565b005b610196610a1c565b005b6101b260048036038101906101ad91906125f5565b610aa4565b6040516101bf9190612e6a565b60405180910390f35b6101e260048036038101906101dd91906125f5565b610ac4565b6040516101ef9190612f27565b60405180910390f35b610200610b13565b60405161020d9190612e04565b60405180910390f35b610230600480360381019061022b91906126d2565b610b3c565b005b61024c600480360381019061024791906125f5565b610ff1565b005b610268600480360381019061026391906125f5565b6110c7565b6040516102759190612e6a565b60405180910390f35b610298600480360381019061029391906125f5565b61111d565b6040516102a59190612f05565b60405180910390f35b6102c860048036038101906102c3919061265a565b611700565b005b6102e460048036038101906102df9190612696565b6117da565b005b61030060048036038101906102fb91906125f5565b61194a565b005b61030a611a31565b6040516103179190612f27565b60405180910390f35b610328611a37565b6040516103359190612e48565b60405180910390f35b610358600480360381019061035391906125f5565b612163565b6040516103659190612e6a565b60405180910390f35b610388600480360381019061038391906125f5565b6121b1565b005b60026020528060005260406000206000915090508060000154908060010160009054906101000a900473ffffffffffffffffffffffffffffffffffffffff16908060010160149054906101000a900460ff16908060020180546103ec906131e3565b80601f0160208091040260200160405190810160405280929190818152602001828054610418906131e3565b80156104655780601f1061043a57610100808354040283529160200191610465565b820191906000526020600020905b81548152906001019060200180831161044857829003601f168201915b50505050509080600301805461047a906131e3565b80601f01602080910402602001604051908101604052809291908181526020018280546104a6906131e3565b80156104f35780601f106104c8576101008083540402835291602001916104f3565b820191906000526020600020905b8154815290600101906020018083116104d657829003601f168201915b505050505090806004018054610508906131e3565b80601f0160208091040260200160405190810160405280929190818152602001828054610534906131e3565b80156105815780601f1061055657610100808354040283529160200191610581565b820191906000526020600020905b81548152906001019060200180831161056457829003601f168201915b5050505050908060050160009054906101000a900460ff169080600601549080600701549080600801604051806040016040529081600082015481526020016001820154815250509080600a01604051806040016040529081600082015481526020016001820160009054906101000a900460ff1615151515815250509080600c0160405180608001604052908160008201805461061e906131e3565b80601f016020809104026020016040519081016040528092919081815260200182805461064a906131e3565b80156106975780601f1061066c57610100808354040283529160200191610697565b820191906000526020600020905b81548152906001019060200180831161067a57829003601f168201915b505050505081526020016001820180546106b0906131e3565b80601f01602080910402602001604051908101604052809291908181526020018280546106dc906131e3565b80156107295780601f106106fe57610100808354040283529160200191610729565b820191906000526020600020905b81548152906001019060200180831161070c57829003601f168201915b50505050508152602001600282018054610742906131e3565b80601f016020809104026020016040519081016040528092919081815260200182805461076e906131e3565b80156107bb5780601f10610790576101008083540402835291602001916107bb565b820191906000526020600020905b81548152906001019060200180831161079e57829003601f168201915b505050505081526020016003820180546107d4906131e3565b80601f0160208091040260200160405190810160405280929190818152602001828054610800906131e3565b801561084d5780601f106108225761010080835404028352916020019161084d565b820191906000526020600020905b81548152906001019060200180831161083057829003601f168201915b50505050508152505090508c565b600160003373ffffffffffffffffffffffffffffffffffffffff1673ffffffffffffffffffffffffffffffffffffffff16815260200190815260200160002060009054906101000a900460ff166108e7576040517f08c379a00000000000000000000000000000000000000000000000000000000081526004016108de90612ee5565b60405180910390fd5b80600260008473ffffffffffffffffffffffffffffffffffffffff1673ffffffffffffffffffffffffffffffffffffffff16815260200190815260200160002060050160006101000a81548160ff0219169083151502179055505050565b600160003373ffffffffffffffffffffffffffffffffffffffff1673ffffffffffffffffffffffffffffffffffffffff16815260200190815260200160002060009054906101000a900460ff166109d1576040517f08c379a00000000000000000000000000000000000000000000000000000000081526004016109c890612ee5565b60405180910390fd5b80600260008473ffffffffffffffffffffffffffffffffffffffff1673ffffffffffffffffffffffffffffffffffffffff168152602001908152602001600020600701819055505050565b610a246122a9565b73ffffffffffffffffffffffffffffffffffffffff16610a42610b13565b73ffffffffffffffffffffffffffffffffffffffff1614610a98576040517f08c379a0000000000000000000000000000000000000000000000000000000008152600401610a8f90612ec5565b60405180910390fd5b610aa260006122b1565b565b60016020528060005260406000206000915054906101000a900460ff1681565b6000600260008373ffffffffffffffffffffffffffffffffffffffff1673ffffffffffffffffffffffffffffffffffffffff168152602001908152602001600020600a01600001549050919050565b60008060009054906101000a900473ffffffffffffffffffffffffffffffffffffffff16905090565b610b4533612163565b15610b85576040517f08c379a0000000000000000000000000000000000000000000000000000000008152600401610b7c90612ea5565b60405180910390fd5b60006001905060006040518061018001604052806001600554610ba891906130d4565b81526020013373ffffffffffffffffffffffffffffffffffffffff168152602001836007811115610c02577f4e487b7100000000000000000000000000000000000000000000000000000000600052602160045260246000fd5b81526020018a8152602001898152602001888152602001600015158152602001600081526020016000815260200160405180604001604052806000815260200160008152508152602001604051806040016040528060008152602001600015158152508152602001604051806080016040528089815260200188815260200187815260200186815250815250905080600260003373ffffffffffffffffffffffffffffffffffffffff1673ffffffffffffffffffffffffffffffffffffffff1681526020019081526020016000206000820151816000015560208201518160010160006101000a81548173ffffffffffffffffffffffffffffffffffffffff021916908373ffffffffffffffffffffffffffffffffffffffff16021790555060408201518160010160146101000a81548160ff02191690836007811115610d72577f4e487b7100000000000000000000000000000000000000000000000000000000600052602160045260246000fd5b02179055506060820151816002019080519060200190610d93929190612375565b506080820151816003019080519060200190610db0929190612375565b5060a0820151816004019080519060200190610dcd929190612375565b5060c08201518160050160006101000a81548160ff02191690831515021790555060e082015181600601556101008201518160070155610120820151816008016000820151816000015560208201518160010155505061014082015181600a016000820151816000015560208201518160010160006101000a81548160ff021916908315150217905550505061016082015181600c016000820151816000019080519060200190610e7f929190612375565b506020820151816001019080519060200190610e9c929190612375565b506040820151816002019080519060200190610eb9929190612375565b506060820151816003019080519060200190610ed6929190612375565b5050509050506004339080600181540180825580915050600190039060005260206000200160009091909190916101000a81548173ffffffffffffffffffffffffffffffffffffffff021916908373ffffffffffffffffffffffffffffffffffffffff16021790555060056000815480929190610f5290613246565b9190505550600360009054906101000a900473ffffffffffffffffffffffffffffffffffffffff1673ffffffffffffffffffffffffffffffffffffffff16639c3eead933846040518363ffffffff1660e01b8152600401610fb4929190612e1f565b600060405180830381600087803b158015610fce57600080fd5b505af1158015610fe2573d6000803e3d6000fd5b50505050505050505050505050565b610ff96122a9565b73ffffffffffffffffffffffffffffffffffffffff16611017610b13565b73ffffffffffffffffffffffffffffffffffffffff161461106d576040517f08c379a000000000000000000000000000000000000000000000000000000000815260040161106490612ec5565b60405180910390fd5b60018060008373ffffffffffffffffffffffffffffffffffffffff1673ffffffffffffffffffffffffffffffffffffffff16815260200190815260200160002060006101000a81548160ff02191690831515021790555050565b6000600160008373ffffffffffffffffffffffffffffffffffffffff1673ffffffffffffffffffffffffffffffffffffffff16815260200190815260200160002060009054906101000a900460ff169050919050565b6111256123fb565b600260008373ffffffffffffffffffffffffffffffffffffffff1673ffffffffffffffffffffffffffffffffffffffff16815260200190815260200160002060405180610180016040529081600082015481526020016001820160009054906101000a900473ffffffffffffffffffffffffffffffffffffffff1673ffffffffffffffffffffffffffffffffffffffff1673ffffffffffffffffffffffffffffffffffffffff1681526020016001820160149054906101000a900460ff16600781111561121b577f4e487b7100000000000000000000000000000000000000000000000000000000600052602160045260246000fd5b6007811115611253577f4e487b7100000000000000000000000000000000000000000000000000000000600052602160045260246000fd5b8152602001600282018054611267906131e3565b80601f0160208091040260200160405190810160405280929190818152602001828054611293906131e3565b80156112e05780601f106112b5576101008083540402835291602001916112e0565b820191906000526020600020905b8154815290600101906020018083116112c357829003601f168201915b505050505081526020016003820180546112f9906131e3565b80601f0160208091040260200160405190810160405280929190818152602001828054611325906131e3565b80156113725780601f1061134757610100808354040283529160200191611372565b820191906000526020600020905b81548152906001019060200180831161135557829003601f168201915b5050505050815260200160048201805461138b906131e3565b80601f01602080910402602001604051908101604052809291908181526020018280546113b7906131e3565b80156114045780601f106113d957610100808354040283529160200191611404565b820191906000526020600020905b8154815290600101906020018083116113e757829003601f168201915b505050505081526020016005820160009054906101000a900460ff16151515158152602001600682015481526020016007820154815260200160088201604051806040016040529081600082015481526020016001820154815250508152602001600a8201604051806040016040529081600082015481526020016001820160009054906101000a900460ff1615151515815250508152602001600c82016040518060800160405290816000820180546114bd906131e3565b80601f01602080910402602001604051908101604052809291908181526020018280546114e9906131e3565b80156115365780601f1061150b57610100808354040283529160200191611536565b820191906000526020600020905b81548152906001019060200180831161151957829003601f168201915b5050505050815260200160018201805461154f906131e3565b80601f016020809104026020016040519081016040528092919081815260200182805461157b906131e3565b80156115c85780601f1061159d576101008083540402835291602001916115c8565b820191906000526020600020905b8154815290600101906020018083116115ab57829003601f168201915b505050505081526020016002820180546115e1906131e3565b80601f016020809104026020016040519081016040528092919081815260200182805461160d906131e3565b801561165a5780601f1061162f5761010080835404028352916020019161165a565b820191906000526020600020905b81548152906001019060200180831161163d57829003601f168201915b50505050508152602001600382018054611673906131e3565b80601f016020809104026020016040519081016040528092919081815260200182805461169f906131e3565b80156116ec5780601f106116c1576101008083540402835291602001916116ec565b820191906000526020600020905b8154815290600101906020018083116116cf57829003601f168201915b505050505081525050815250509050919050565b600160003373ffffffffffffffffffffffffffffffffffffffff1673ffffffffffffffffffffffffffffffffffffffff16815260200190815260200160002060009054906101000a900460ff1661178c576040517f08c379a000000000000000000000000000000000000000000000000000000000815260040161178390612ee5565b60405180910390fd5b80600260008473ffffffffffffffffffffffffffffffffffffffff1673ffffffffffffffffffffffffffffffffffffffff168152602001908152602001600020600801600001819055505050565b600160003373ffffffffffffffffffffffffffffffffffffffff1673ffffffffffffffffffffffffffffffffffffffff16815260200190815260200160002060009054906101000a900460ff16611866576040517f08c379a000000000000000000000000000000000000000000000000000000000815260040161185d90612ee5565b60405180910390fd5b6000600260008473ffffffffffffffffffffffffffffffffffffffff1673ffffffffffffffffffffffffffffffffffffffff168152602001908152602001600020600a01600001549050604051806040016040528083836118c791906130d4565b925082815260200160001515815250600260008573ffffffffffffffffffffffffffffffffffffffff1673ffffffffffffffffffffffffffffffffffffffff168152602001908152602001600020600a016000820151816000015560208201518160010160006101000a81548160ff021916908315150217905550905050505050565b600160003373ffffffffffffffffffffffffffffffffffffffff1673ffffffffffffffffffffffffffffffffffffffff16815260200190815260200160002060009054906101000a900460ff166119d6576040517f08c379a00000000000000000000000000000000000000000000000000000000081526004016119cd90612ee5565b60405180910390fd5b600260008273ffffffffffffffffffffffffffffffffffffffff1673ffffffffffffffffffffffffffffffffffffffff1681526020019081526020016000206006016000815480929190611a2990613246565b919050555050565b60055481565b6060600060055467ffffffffffffffff811115611a7d577f4e487b7100000000000000000000000000000000000000000000000000000000600052604160045260246000fd5b604051908082528060200260200182016040528015611ab657816020015b611aa36123fb565b815260200190600190039081611a9b5790505b50905060005b60055481101561215b57600060048281548110611b02577f4e487b7100000000000000000000000000000000000000000000000000000000600052603260045260246000fd5b9060005260206000200160009054906101000a900473ffffffffffffffffffffffffffffffffffffffff169050600260008273ffffffffffffffffffffffffffffffffffffffff1673ffffffffffffffffffffffffffffffffffffffff16815260200190815260200160002060405180610180016040529081600082015481526020016001820160009054906101000a900473ffffffffffffffffffffffffffffffffffffffff1673ffffffffffffffffffffffffffffffffffffffff1673ffffffffffffffffffffffffffffffffffffffff1681526020016001820160149054906101000a900460ff166007811115611c25577f4e487b7100000000000000000000000000000000000000000000000000000000600052602160045260246000fd5b6007811115611c5d577f4e487b7100000000000000000000000000000000000000000000000000000000600052602160045260246000fd5b8152602001600282018054611c71906131e3565b80601f0160208091040260200160405190810160405280929190818152602001828054611c9d906131e3565b8015611cea5780601f10611cbf57610100808354040283529160200191611cea565b820191906000526020600020905b815481529060010190602001808311611ccd57829003601f168201915b50505050508152602001600382018054611d03906131e3565b80601f0160208091040260200160405190810160405280929190818152602001828054611d2f906131e3565b8015611d7c5780601f10611d5157610100808354040283529160200191611d7c565b820191906000526020600020905b815481529060010190602001808311611d5f57829003601f168201915b50505050508152602001600482018054611d95906131e3565b80601f0160208091040260200160405190810160405280929190818152602001828054611dc1906131e3565b8015611e0e5780601f10611de357610100808354040283529160200191611e0e565b820191906000526020600020905b815481529060010190602001808311611df157829003601f168201915b505050505081526020016005820160009054906101000a900460ff16151515158152602001600682015481526020016007820154815260200160088201604051806040016040529081600082015481526020016001820154815250508152602001600a8201604051806040016040529081600082015481526020016001820160009054906101000a900460ff1615151515815250508152602001600c8201604051806080016040529081600082018054611ec7906131e3565b80601f0160208091040260200160405190810160405280929190818152602001828054611ef3906131e3565b8015611f405780601f10611f1557610100808354040283529160200191611f40565b820191906000526020600020905b815481529060010190602001808311611f2357829003601f168201915b50505050508152602001600182018054611f59906131e3565b80601f0160208091040260200160405190810160405280929190818152602001828054611f85906131e3565b8015611fd25780601f10611fa757610100808354040283529160200191611fd2565b820191906000526020600020905b815481529060010190602001808311611fb557829003601f168201915b50505050508152602001600282018054611feb906131e3565b80601f0160208091040260200160405190810160405280929190818152602001828054612017906131e3565b80156120645780601f1061203957610100808354040283529160200191612064565b820191906000526020600020905b81548152906001019060200180831161204757829003601f168201915b5050505050815260200160038201805461207d906131e3565b80601f01602080910402602001604051908101604052809291908181526020018280546120a9906131e3565b80156120f65780601f106120cb576101008083540402835291602001916120f6565b820191906000526020600020905b8154815290600101906020018083116120d957829003601f168201915b5050505050815250508152505083838151811061213c577f4e487b7100000000000000000000000000000000000000000000000000000000600052603260045260246000fd5b602002602001018190525050808061215390613246565b915050611abc565b508091505090565b600080600260008473ffffffffffffffffffffffffffffffffffffffff1673ffffffffffffffffffffffffffffffffffffffff16815260200190815260200160002060000154119050919050565b6121b96122a9565b73ffffffffffffffffffffffffffffffffffffffff166121d7610b13565b73ffffffffffffffffffffffffffffffffffffffff161461222d576040517f08c379a000000000000000000000000000000000000000000000000000000000815260040161222490612ec5565b60405180910390fd5b600073ffffffffffffffffffffffffffffffffffffffff168173ffffffffffffffffffffffffffffffffffffffff16141561229d576040517f08c379a000000000000000000000000000000000000000000000000000000000815260040161229490612e85565b60405180910390fd5b6122a6816122b1565b50565b600033905090565b60008060009054906101000a900473ffffffffffffffffffffffffffffffffffffffff169050816000806101000a81548173ffffffffffffffffffffffffffffffffffffffff021916908373ffffffffffffffffffffffffffffffffffffffff1602179055508173ffffffffffffffffffffffffffffffffffffffff168173ffffffffffffffffffffffffffffffffffffffff167f8be0079c531659141344cd1fd0a4f28419497f9722a3daafe3b4186f6b6457e060405160405180910390a35050565b828054612381906131e3565b90600052602060002090601f0160209004810192826123a357600085556123ea565b82601f106123bc57805160ff19168380011785556123ea565b828001600101855582156123ea579182015b828111156123e95782518255916020019190600101906123ce565b5b5090506123f791906124be565b5090565b60405180610180016040528060008152602001600073ffffffffffffffffffffffffffffffffffffffff16815260200160006007811115612465577f4e487b7100000000000000000000000000000000000000000000000000000000600052602160045260246000fd5b8152602001606081526020016060815260200160608152602001600015158152602001600081526020016000815260200161249e6124db565b81526020016124ab6124f5565b81526020016124b8612511565b81525090565b5b808211156124d75760008160009055506001016124bf565b5090565b604051806040016040528060008152602001600081525090565b6040518060400160405280600081526020016000151581525090565b6040518060800160405280606081526020016060815260200160608152602001606081525090565b600061254c6125478461303d565b613018565b90508281526020810184848401111561256457600080fd5b61256f8482856131a1565b509392505050565b6000813590506125868161343a565b92915050565b60008135905061259b81613451565b92915050565b6000813590506125b081613468565b92915050565b600082601f8301126125c757600080fd5b81356125d7848260208601612539565b91505092915050565b6000813590506125ef8161347f565b92915050565b60006020828403121561260757600080fd5b600061261584828501612577565b91505092915050565b6000806040838503121561263157600080fd5b600061263f85828601612577565b92505060206126508582860161258c565b9150509250929050565b6000806040838503121561266d57600080fd5b600061267b85828601612577565b925050602061268c858286016125a1565b9150509250929050565b600080604083850312156126a957600080fd5b60006126b785828601612577565b92505060206126c8858286016125e0565b9150509250929050565b600080600080600080600060e0888a0312156126ed57600080fd5b600088013567ffffffffffffffff81111561270757600080fd5b6127138a828b016125b6565b975050602088013567ffffffffffffffff81111561273057600080fd5b61273c8a828b016125b6565b965050604088013567ffffffffffffffff81111561275957600080fd5b6127658a828b016125b6565b955050606088013567ffffffffffffffff81111561278257600080fd5b61278e8a828b016125b6565b945050608088013567ffffffffffffffff8111156127ab57600080fd5b6127b78a828b016125b6565b93505060a088013567ffffffffffffffff8111156127d457600080fd5b6127e08a828b016125b6565b92505060c088013567ffffffffffffffff8111156127fd57600080fd5b6128098a828b016125b6565b91505092959891949750929550565b60006128248383612a66565b905092915050565b6128358161312a565b82525050565b6128448161312a565b82525050565b60006128558261307e565b61285f81856130a1565b9350836020820285016128718561306e565b8060005b858110156128ad578484038952815161288e8582612818565b945061289983613094565b925060208a01995050600181019050612875565b50829750879550505050505092915050565b6128c88161313c565b82525050565b6128d78161313c565b82525050565b6128e68161318f565b82525050565b6128f58161318f565b82525050565b6129048161315b565b82525050565b600061291582613089565b61291f81856130b2565b935061292f8185602086016131b0565b6129388161334b565b840191505092915050565b600061294e82613089565b61295881856130c3565b93506129688185602086016131b0565b6129718161334b565b840191505092915050565b60006129896026836130c3565b91506129948261335c565b604082019050919050565b60006129ac601b836130c3565b91506129b7826133ab565b602082019050919050565b60006129cf6020836130c3565b91506129da826133d4565b602082019050919050565b60006129f26012836130c3565b91506129fd826133fd565b602082019050919050565b604082016000820151612a1e60008501826128fb565b506020820151612a3160208501826128fb565b50505050565b604082016000820151612a4d60008501826128fb565b506020820151612a6060208501826128fb565b50505050565b60006101c083016000830151612a7f6000860182612de6565b506020830151612a92602086018261282c565b506040830151612aa560408601826128dd565b5060608301518482036060860152612abd828261290a565b91505060808301518482036080860152612ad7828261290a565b91505060a083015184820360a0860152612af1828261290a565b91505060c0830151612b0660c08601826128bf565b5060e0830151612b1960e0860182612de6565b50610100830151612b2e610100860182612de6565b50610120830151612b43610120860182612a08565b50610140830151612b58610160860182612d88565b506101608301518482036101a0860152612b728282612c98565b9150508091505092915050565b60006101c083016000830151612b986000860182612de6565b506020830151612bab602086018261282c565b506040830151612bbe60408601826128dd565b5060608301518482036060860152612bd6828261290a565b91505060808301518482036080860152612bf0828261290a565b91505060a083015184820360a0860152612c0a828261290a565b91505060c0830151612c1f60c08601826128bf565b5060e0830151612c3260e0860182612de6565b50610100830151612c47610100860182612de6565b50610120830151612c5c610120860182612a08565b50610140830151612c71610160860182612d88565b506101608301518482036101a0860152612c8b8282612c98565b9150508091505092915050565b60006080830160008301518482036000860152612cb5828261290a565b91505060208301518482036020860152612ccf828261290a565b91505060408301518482036040860152612ce9828261290a565b91505060608301518482036060860152612d03828261290a565b9150508091505092915050565b60006080830160008301518482036000860152612d2d828261290a565b91505060208301518482036020860152612d47828261290a565b91505060408301518482036040860152612d61828261290a565b91505060608301518482036060860152612d7b828261290a565b9150508091505092915050565b604082016000820151612d9e6000850182612de6565b506020820151612db160208501826128bf565b50505050565b604082016000820151612dcd6000850182612de6565b506020820151612de060208501826128bf565b50505050565b612def81613185565b82525050565b612dfe81613185565b82525050565b6000602082019050612e19600083018461283b565b92915050565b6000604082019050612e34600083018561283b565b612e4160208301846128ec565b9392505050565b60006020820190508181036000830152612e62818461284a565b905092915050565b6000602082019050612e7f60008301846128ce565b92915050565b60006020820190508181036000830152612e9e8161297c565b9050919050565b60006020820190508181036000830152612ebe8161299f565b9050919050565b60006020820190508181036000830152612ede816129c2565b9050919050565b60006020820190508181036000830152612efe816129e5565b9050919050565b60006020820190508181036000830152612f1f8184612b7f565b905092915050565b6000602082019050612f3c6000830184612df5565b92915050565b60006101c082019050612f58600083018f612df5565b612f65602083018e61283b565b612f72604083018d6128ec565b8181036060830152612f84818c612943565b90508181036080830152612f98818b612943565b905081810360a0830152612fac818a612943565b9050612fbb60c08301896128ce565b612fc860e0830188612df5565b612fd6610100830187612df5565b612fe4610120830186612a37565b612ff2610160830185612db7565b8181036101a08301526130058184612d10565b90509d9c50505050505050505050505050565b6000613022613033565b905061302e8282613215565b919050565b6000604051905090565b600067ffffffffffffffff8211156130585761305761331c565b5b6130618261334b565b9050602081019050919050565b6000819050602082019050919050565b600081519050919050565b600081519050919050565b6000602082019050919050565b600082825260208201905092915050565b600082825260208201905092915050565b600082825260208201905092915050565b60006130df82613185565b91506130ea83613185565b9250827fffffffffffffffffffffffffffffffffffffffffffffffffffffffffffffffff0382111561311f5761311e61328f565b5b828201905092915050565b600061313582613165565b9050919050565b60008115159050919050565b600081905061315682613426565b919050565b6000819050919050565b600073ffffffffffffffffffffffffffffffffffffffff82169050919050565b6000819050919050565b600061319a82613148565b9050919050565b82818337600083830152505050565b60005b838110156131ce5780820151818401526020810190506131b3565b838111156131dd576000848401525b50505050565b600060028204905060018216806131fb57607f821691505b6020821081141561320f5761320e6132ed565b5b50919050565b61321e8261334b565b810181811067ffffffffffffffff8211171561323d5761323c61331c565b5b80604052505050565b600061325182613185565b91507fffffffffffffffffffffffffffffffffffffffffffffffffffffffffffffffff8214156132845761328361328f565b5b600182019050919050565b7f4e487b7100000000000000000000000000000000000000000000000000000000600052601160045260246000fd5b7f4e487b7100000000000000000000000000000000000000000000000000000000600052602160045260246000fd5b7f4e487b7100000000000000000000000000000000000000000000000000000000600052602260045260246000fd5b7f4e487b7100000000000000000000000000000000000000000000000000000000600052604160045260246000fd5b6000601f19601f8301169050919050565b7f4f776e61626c653a206e6577206f776e657220697320746865207a65726f206160008201527f6464726573730000000000000000000000000000000000000000000000000000602082015250565b7f546869732070726f647563657220616c72656164792065786973740000000000600082015250565b7f4f776e61626c653a2063616c6c6572206973206e6f7420746865206f776e6572600082015250565b7f4e6f7420616c6c6f7765642063616c6c65720000000000000000000000000000600082015250565b60088110613437576134366132be565b5b50565b6134438161312a565b811461344e57600080fd5b50565b61345a8161313c565b811461346557600080fd5b50565b6134718161315b565b811461347c57600080fd5b50565b61348881613185565b811461349357600080fd5b5056fea26469706673582212204439fc1cc24c494abbedec672aa9102ed3cfeb6b94a3b91214b8c32ecb8f2adb64736f6c63430008020033",
  "immutableReferences": {},
  "source": "// SPDX-License-Identifier: GPL-3.0\r\npragma solidity >=0.7.0 <=0.9.0;\r\n\r\nimport \"./UserContract.sol\";\r\nimport \"./types/ProducerTypes.sol\";\r\nimport \"./Callable.sol\";\r\n\r\n/**\r\n * @title ProducerContract\r\n * @dev Producer resource that represent a user that can request a inspection\r\n */\r\ncontract ProducerContract is Callable {\r\n  mapping(address => Producer) public producers;\r\n\r\n  UserContract internal userContract;\r\n  address[] internal producersAddress;\r\n  uint256 public producersCount;\r\n\r\n  constructor(address userContractAddress) {\r\n    userContract = UserContract(userContractAddress);\r\n  }\r\n\r\n  /**\r\n   * @dev Allow a new register of producer\r\n   * @param name the name of the producer\r\n   * @param document the document of producer\r\n   * @param documentType the document type of producer. CPF/CNPJ\r\n   * @param country the country where the producer is\r\n   * @param state the state of the producer\r\n   * @param city the of the producer\r\n   * @param cep the cep of the producer\r\n   */\r\n  function addProducer(\r\n    string memory name,\r\n    string memory document,\r\n    string memory documentType,\r\n    string memory country,\r\n    string memory state,\r\n    string memory city,\r\n    string memory cep\r\n  ) public uniqueProducer {\r\n    UserType userType = UserType.PRODUCER;\r\n\r\n    Producer memory producer = Producer(\r\n      producersCount + 1,\r\n      msg.sender,\r\n      userType,\r\n      name,\r\n      document,\r\n      documentType,\r\n      false,\r\n      0,\r\n      0,\r\n      Isa(0, 0),\r\n      TokenApprove(0, false),\r\n      PropertyAddress(country, state, city, cep)\r\n    );\r\n\r\n    producers[msg.sender] = producer;\r\n    producersAddress.push(msg.sender);\r\n    producersCount++;\r\n    userContract.addUser(msg.sender, userType);\r\n  }\r\n\r\n  /**\r\n   * @dev Returns all registered producers\r\n   * @return Producer struct array\r\n   */\r\n  function getProducers() public view returns (Producer[] memory) {\r\n    Producer[] memory producerList = new Producer[](producersCount);\r\n\r\n    for (uint256 i = 0; i < producersCount; i++) {\r\n      address acAddress = producersAddress[i];\r\n      producerList[i] = producers[acAddress];\r\n    }\r\n\r\n    return producerList;\r\n  }\r\n\r\n  /**\r\n   * @dev Return a specific producer\r\n   * @param addr the address of the producer.\r\n   */\r\n  function getProducer(address addr) public view returns (Producer memory producer) {\r\n    return producers[addr];\r\n  }\r\n\r\n  /**\r\n   * @dev Check if a specific producer exists\r\n   * @return a bool that represent if a producer exists or not\r\n   */\r\n  function producerExists(address addr) public view returns (bool) {\r\n    return producers[addr].id > 0;\r\n  }\r\n\r\n  function recentInspection(address addr, bool state) public mustBeAllowedCaller {\r\n    producers[addr].recentInspection = state;\r\n  }\r\n\r\n  function updateIsaScore(address addr, int256 isaScore) public mustBeAllowedCaller {\r\n    producers[addr].isa.isaScore = isaScore;\r\n  }\r\n\r\n  function incrementRequests(address addr) public mustBeAllowedCaller {\r\n    producers[addr].totalRequests++;\r\n  }\r\n\r\n  function approveProducerNewTokens(address addr, uint256 numTokens) public mustBeAllowedCaller {\r\n    uint256 tokens = producers[addr].tokenApprove.allowed;\r\n    producers[addr].tokenApprove = TokenApprove(tokens += numTokens, false);\r\n  }\r\n\r\n  function lastRequestAt(address addr, uint256 blocksNumber) public mustBeAllowedCaller {\r\n    producers[addr].lastRequestAt = blocksNumber;\r\n  }\r\n\r\n  function getProducerApprove(address address_) public view returns (uint256) {\r\n    return producers[address_].tokenApprove.allowed;\r\n  }\r\n\r\n  function undoProducerApprove() internal returns (bool) {\r\n    producers[msg.sender].tokenApprove = TokenApprove(0, false);\r\n    return true;\r\n  }\r\n\r\n  // MODIFIERS\r\n\r\n  modifier uniqueProducer() {\r\n    require(!producerExists(msg.sender), \"This producer already exist\");\r\n    _;\r\n  }\r\n}\r\n",
  "sourcePath": "C:\\Users\\emano\\Documents\\Sintrop\\Testes Branchs\\core-contracts\\contracts\\ProducerContract.sol",
  "compiler": {
    "name": "solc",
    "version": "0.8.2+commit.661d1103.Emscripten.clang"
  },
  "schemaVersion": "3.4.7",
  "updatedAt": "2022-08-22T15:35:42.148Z",
  "networkType": "ethereum",
  "devdoc": {
    "details": "Producer resource that represent a user that can request a inspection",
    "kind": "dev",
    "methods": {
      "addProducer(string,string,string,string,string,string,string)": {
        "details": "Allow a new register of producer",
        "params": {
          "cep": "the cep of the producer",
          "city": "the of the producer",
          "country": "the country where the producer is",
          "document": "the document of producer",
          "documentType": "the document type of producer. CPF/CNPJ",
          "name": "the name of the producer",
          "state": "the state of the producer"
        }
      },
      "getProducer(address)": {
        "details": "Return a specific producer",
        "params": {
          "addr": "the address of the producer."
        }
      },
      "getProducers()": {
        "details": "Returns all registered producers",
        "returns": {
          "_0": "Producer struct array"
        }
      },
      "owner()": {
        "details": "Returns the address of the current owner."
      },
      "producerExists(address)": {
        "details": "Check if a specific producer exists",
        "returns": {
          "_0": "a bool that represent if a producer exists or not"
        }
      },
      "renounceOwnership()": {
        "details": "Leaves the contract without owner. It will not be possible to call `onlyOwner` functions anymore. Can only be called by the current owner. NOTE: Renouncing ownership will leave the contract without an owner, thereby removing any functionality that is only available to the owner."
      },
      "transferOwnership(address)": {
        "details": "Transfers ownership of the contract to a new account (`newOwner`). Can only be called by the current owner."
      }
    },
    "title": "ProducerContract",
    "version": 1
  },
  "userdoc": {
    "kind": "user",
    "methods": {},
    "version": 1
  }
}