{
  "contractName": "Sintrop",
  "abi": [
    {
      "inputs": [
        {
          "internalType": "address",
          "name": "activistContractAddress",
          "type": "address"
        },
        {
          "internalType": "address",
          "name": "producerContractAddress",
          "type": "address"
        },
        {
          "internalType": "uint256",
          "name": "timeBetweenInspections_",
          "type": "uint256"
        }
      ],
      "stateMutability": "nonpayable",
      "type": "constructor"
    },
    {
      "inputs": [],
      "name": "activistContract",
      "outputs": [
        {
          "internalType": "contract ActivistContract",
          "name": "",
          "type": "address"
        }
      ],
      "stateMutability": "view",
      "type": "function",
      "constant": true
    },
    {
      "inputs": [],
      "name": "inspectionsCount",
      "outputs": [
        {
          "internalType": "uint256",
          "name": "",
          "type": "uint256"
        }
      ],
      "stateMutability": "view",
      "type": "function",
      "constant": true
    },
    {
      "inputs": [
        {
          "internalType": "uint256",
          "name": "",
          "type": "uint256"
        },
        {
          "internalType": "uint256",
          "name": "",
          "type": "uint256"
        }
      ],
      "name": "isas",
      "outputs": [
        {
          "internalType": "uint256",
          "name": "categoryId",
          "type": "uint256"
        },
        {
          "internalType": "uint256",
          "name": "isaIndex",
          "type": "uint256"
        },
        {
          "internalType": "string",
          "name": "report",
          "type": "string"
        },
        {
          "internalType": "string",
          "name": "proofPhoto",
          "type": "string"
        }
      ],
      "stateMutability": "view",
      "type": "function",
      "constant": true
    },
    {
      "inputs": [],
      "name": "producerContract",
      "outputs": [
        {
          "internalType": "contract ProducerContract",
          "name": "",
          "type": "address"
        }
      ],
      "stateMutability": "view",
      "type": "function",
      "constant": true
    },
    {
      "inputs": [],
      "name": "getInspectionsHistory",
      "outputs": [
        {
          "components": [
            {
              "internalType": "uint256",
              "name": "id",
              "type": "uint256"
            },
            {
              "internalType": "enum InspectionStatus",
              "name": "status",
              "type": "uint8"
            },
            {
              "internalType": "address",
              "name": "createdBy",
              "type": "address"
            },
            {
              "internalType": "address",
              "name": "acceptedBy",
              "type": "address"
            },
            {
              "internalType": "int256",
              "name": "isaScore",
              "type": "int256"
            },
            {
              "internalType": "uint256",
              "name": "createdAt",
              "type": "uint256"
            },
            {
              "internalType": "uint256",
              "name": "updatedAt",
              "type": "uint256"
            }
          ],
          "internalType": "struct Inspection[]",
          "name": "",
          "type": "tuple[]"
        }
      ],
      "stateMutability": "view",
      "type": "function",
      "constant": true
    },
    {
      "inputs": [
        {
          "internalType": "uint256",
          "name": "inspectionId",
          "type": "uint256"
        }
      ],
      "name": "getIsa",
      "outputs": [
        {
          "components": [
            {
              "internalType": "uint256",
              "name": "categoryId",
              "type": "uint256"
            },
            {
              "internalType": "uint256",
              "name": "isaIndex",
              "type": "uint256"
            },
            {
              "internalType": "string",
              "name": "report",
              "type": "string"
            },
            {
              "internalType": "string",
              "name": "proofPhoto",
              "type": "string"
            }
          ],
          "internalType": "struct IsaInspection[]",
          "name": "",
          "type": "tuple[]"
        }
      ],
      "stateMutability": "view",
      "type": "function",
      "constant": true
    },
    {
      "inputs": [],
      "name": "requestInspection",
      "outputs": [],
      "stateMutability": "nonpayable",
      "type": "function"
    },
    {
      "inputs": [
        {
          "internalType": "uint256",
          "name": "inspectionId",
          "type": "uint256"
        }
      ],
      "name": "acceptInspection",
      "outputs": [
        {
          "internalType": "bool",
          "name": "",
          "type": "bool"
        }
      ],
      "stateMutability": "nonpayable",
      "type": "function"
    },
    {
      "inputs": [
        {
          "internalType": "uint256",
          "name": "inspectionId",
          "type": "uint256"
        },
        {
          "components": [
            {
              "internalType": "uint256",
              "name": "categoryId",
              "type": "uint256"
            },
            {
              "internalType": "uint256",
              "name": "isaIndex",
              "type": "uint256"
            },
            {
              "internalType": "string",
              "name": "report",
              "type": "string"
            },
            {
              "internalType": "string",
              "name": "proofPhoto",
              "type": "string"
            }
          ],
          "internalType": "struct IsaInspection[]",
          "name": "_isas",
          "type": "tuple[]"
        }
      ],
      "name": "realizeInspection",
      "outputs": [
        {
          "internalType": "bool",
          "name": "",
          "type": "bool"
        }
      ],
      "stateMutability": "nonpayable",
      "type": "function"
    },
    {
      "inputs": [
        {
          "internalType": "uint256",
          "name": "id",
          "type": "uint256"
        }
      ],
      "name": "getInspection",
      "outputs": [
        {
          "components": [
            {
              "internalType": "uint256",
              "name": "id",
              "type": "uint256"
            },
            {
              "internalType": "enum InspectionStatus",
              "name": "status",
              "type": "uint8"
            },
            {
              "internalType": "address",
              "name": "createdBy",
              "type": "address"
            },
            {
              "internalType": "address",
              "name": "acceptedBy",
              "type": "address"
            },
            {
              "internalType": "int256",
              "name": "isaScore",
              "type": "int256"
            },
            {
              "internalType": "uint256",
              "name": "createdAt",
              "type": "uint256"
            },
            {
              "internalType": "uint256",
              "name": "updatedAt",
              "type": "uint256"
            }
          ],
          "internalType": "struct Inspection",
          "name": "",
          "type": "tuple"
        }
      ],
      "stateMutability": "view",
      "type": "function",
      "constant": true
    },
    {
      "inputs": [],
      "name": "getInspections",
      "outputs": [
        {
          "components": [
            {
              "internalType": "uint256",
              "name": "id",
              "type": "uint256"
            },
            {
              "internalType": "enum InspectionStatus",
              "name": "status",
              "type": "uint8"
            },
            {
              "internalType": "address",
              "name": "createdBy",
              "type": "address"
            },
            {
              "internalType": "address",
              "name": "acceptedBy",
              "type": "address"
            },
            {
              "internalType": "int256",
              "name": "isaScore",
              "type": "int256"
            },
            {
              "internalType": "uint256",
              "name": "createdAt",
              "type": "uint256"
            },
            {
              "internalType": "uint256",
              "name": "updatedAt",
              "type": "uint256"
            }
          ],
          "internalType": "struct Inspection[]",
          "name": "",
          "type": "tuple[]"
        }
      ],
      "stateMutability": "view",
      "type": "function",
      "constant": true
    },
    {
      "inputs": [],
      "name": "getInspectionsStatus",
      "outputs": [
        {
          "internalType": "string",
          "name": "",
          "type": "string"
        },
        {
          "internalType": "string",
          "name": "",
          "type": "string"
        },
        {
          "internalType": "string",
          "name": "",
          "type": "string"
        },
        {
          "internalType": "string",
          "name": "",
          "type": "string"
        }
      ],
      "stateMutability": "pure",
      "type": "function",
      "constant": true
    },
    {
      "inputs": [
        {
          "internalType": "uint256",
          "name": "id",
          "type": "uint256"
        }
      ],
      "name": "inspectionExists",
      "outputs": [
        {
          "internalType": "bool",
          "name": "",
          "type": "bool"
        }
      ],
      "stateMutability": "view",
      "type": "function",
      "constant": true
    },
    {
      "inputs": [],
      "name": "canRequestInspection",
      "outputs": [
        {
          "internalType": "bool",
          "name": "",
          "type": "bool"
        }
      ],
      "stateMutability": "view",
      "type": "function",
      "constant": true
    }
  ],
  "bytecode": "0x60806040523480156200001157600080fd5b5060405162004059380380620040598339818101604052810190620000379190620000f7565b82600360006101000a81548173ffffffffffffffffffffffffffffffffffffffff021916908373ffffffffffffffffffffffffffffffffffffffff16021790555081600460006101000a81548173ffffffffffffffffffffffffffffffffffffffff021916908373ffffffffffffffffffffffffffffffffffffffff16021790555080600681905550505050620001bf565b600081519050620000da816200018b565b92915050565b600081519050620000f181620001a5565b92915050565b6000806000606084860312156200010d57600080fd5b60006200011d86828701620000c9565b93505060206200013086828701620000c9565b92505060406200014386828701620000e0565b9150509250925092565b60006200015a8262000161565b9050919050565b600073ffffffffffffffffffffffffffffffffffffffff82169050919050565b6000819050919050565b62000196816200014d565b8114620001a257600080fd5b50565b620001b08162000181565b8114620001bc57600080fd5b50565b613e8a80620001cf6000396000f3fe608060405234801561001057600080fd5b50600436106100ea5760003560e01c8063ca14d0e31161008c578063e785750211610066578063e785750214610243578063ee699fc114610273578063f283667014610291578063fe5a4fa4146102c1576100ea565b8063ca14d0e3146101d4578063dd6850c6146101f2578063e02c25bc14610213576100ea565b80634b026e87116100c85780634b026e871461015b5780635401c1f21461017957806386ae2fb1146101975780638986143a146101a1576100ea565b80630bbec3c2146100ef5780632cdf0e9a1461010d57806336efc8281461012b575b600080fd5b6100f76102f1565b604051610104919061353f565b60405180910390f35b6101156104e7565b60405161012291906135b9565b60405180910390f35b61014560048036038101906101409190612f13565b61050d565b6040516101529190613561565b60405180910390f35b6101636106b7565b604051610170919061359e565b60405180910390f35b6101816106dd565b60405161018e9190613750565b60405180910390f35b61019f6106e3565b005b6101bb60048036038101906101b69190612f90565b610a31565b6040516101cb949392919061376b565b60405180910390f35b6101dc610b8e565b6040516101e99190613583565b60405180910390f35b6101fa610c75565b60405161020a94939291906135d4565b60405180910390f35b61022d60048036038101906102289190612f3c565b610d61565b60405161023a9190613583565b60405180910390f35b61025d60048036038101906102589190612f13565b6111f2565b60405161026a9190613583565b60405180910390f35b61027b6117d8565b604051610288919061353f565b60405180910390f35b6102ab60048036038101906102a69190612f13565b611a4b565b6040516102b89190613735565b60405180910390f35b6102db60048036038101906102d69190612f13565b611bd3565b6040516102e89190613583565b60405180910390f35b60606000803373ffffffffffffffffffffffffffffffffffffffff1673ffffffffffffffffffffffffffffffffffffffff168152602001908152602001600020805480602002602001604051908101604052809291908181526020016000905b828210156104de57838290600052602060002090600602016040518060e0016040529081600082015481526020016001820160009054906101000a900460ff1660038111156103c9577f4e487b7100000000000000000000000000000000000000000000000000000000600052602160045260246000fd5b6003811115610401577f4e487b7100000000000000000000000000000000000000000000000000000000600052602160045260246000fd5b81526020016001820160019054906101000a900473ffffffffffffffffffffffffffffffffffffffff1673ffffffffffffffffffffffffffffffffffffffff1673ffffffffffffffffffffffffffffffffffffffff1681526020016002820160009054906101000a900473ffffffffffffffffffffffffffffffffffffffff1673ffffffffffffffffffffffffffffffffffffffff1673ffffffffffffffffffffffffffffffffffffffff168152602001600382015481526020016004820154815260200160058201548152505081526020019060010190610351565b50505050905090565b600460009054906101000a900473ffffffffffffffffffffffffffffffffffffffff1681565b606060026000838152602001908152602001600020805480602002602001604051908101604052809291908181526020016000905b828210156106ac5783829060005260206000209060040201604051806080016040529081600082015481526020016001820154815260200160028201805461058990613ae9565b80601f01602080910402602001604051908101604052809291908181526020018280546105b590613ae9565b80156106025780601f106105d757610100808354040283529160200191610602565b820191906000526020600020905b8154815290600101906020018083116105e557829003601f168201915b5050505050815260200160038201805461061b90613ae9565b80601f016020809104026020016040519081016040528092919081815260200182805461064790613ae9565b80156106945780601f1061066957610100808354040283529160200191610694565b820191906000526020600020905b81548152906001019060200180831161067757829003601f168201915b50505050508152505081526020019060010190610542565b505050509050919050565b600360009054906101000a900473ffffffffffffffffffffffffffffffffffffffff1681565b60055481565b600460009054906101000a900473ffffffffffffffffffffffffffffffffffffffff1673ffffffffffffffffffffffffffffffffffffffff1663e9e797ac336040518263ffffffff1660e01b815260040161073e9190613480565b60206040518083038186803b15801561075657600080fd5b505afa15801561076a573d6000803e3d6000fd5b505050506040513d601f19601f8201168201806040525081019061078e9190612ea9565b6107cd576040517f08c379a00000000000000000000000000000000000000000000000000000000081526004016107c4906136f5565b60405180910390fd5b600460009054906101000a900473ffffffffffffffffffffffffffffffffffffffff1673ffffffffffffffffffffffffffffffffffffffff1663aab147b2336040518263ffffffff1660e01b81526004016108289190613480565b60006040518083038186803b15801561084057600080fd5b505afa158015610854573d6000803e3d6000fd5b505050506040513d6000823e3d601f19601f8201168201806040525081019061087d9190612ed2565b60c00151156108c1576040517f08c379a00000000000000000000000000000000000000000000000000000000081526004016108b890613695565b60405180910390fd5b6108c9610b8e565b610908576040517f08c379a00000000000000000000000000000000000000000000000000000000081526004016108ff906136d5565b60405180910390fd5b610910611bf6565b600460009054906101000a900473ffffffffffffffffffffffffffffffffffffffff1673ffffffffffffffffffffffffffffffffffffffff1663360912ab3360016040518363ffffffff1660e01b815260040161096e92919061349b565b600060405180830381600087803b15801561098857600080fd5b505af115801561099c573d6000803e3d6000fd5b50505050600460009054906101000a900473ffffffffffffffffffffffffffffffffffffffff1673ffffffffffffffffffffffffffffffffffffffff166364ff847733436040518363ffffffff1660e01b81526004016109fd929190613516565b600060405180830381600087803b158015610a1757600080fd5b505af1158015610a2b573d6000803e3d6000fd5b50505050565b60026020528160005260406000208181548110610a4d57600080fd5b906000526020600020906004020160009150915050806000015490806001015490806002018054610a7d90613ae9565b80601f0160208091040260200160405190810160405280929190818152602001828054610aa990613ae9565b8015610af65780601f10610acb57610100808354040283529160200191610af6565b820191906000526020600020905b815481529060010190602001808311610ad957829003601f168201915b505050505090806003018054610b0b90613ae9565b80601f0160208091040260200160405190810160405280929190818152602001828054610b3790613ae9565b8015610b845780601f10610b5957610100808354040283529160200191610b84565b820191906000526020600020905b815481529060010190602001808311610b6757829003601f168201915b5050505050905084565b600080600460009054906101000a900473ffffffffffffffffffffffffffffffffffffffff1673ffffffffffffffffffffffffffffffffffffffff1663aab147b2336040518263ffffffff1660e01b8152600401610bec9190613480565b60006040518083038186803b158015610c0457600080fd5b505afa158015610c18573d6000803e3d6000fd5b505050506040513d6000823e3d601f19601f82011682018060405250810190610c419190612ed2565b905060008161010001519050600060065482610c5d9190613973565b431190508080610c6d5750600082145b935050505090565b6060806060806040518060400160405280600481526020017f4f50454e000000000000000000000000000000000000000000000000000000008152506040518060400160405280600881526020017f41434345505445440000000000000000000000000000000000000000000000008152506040518060400160405280600981526020017f494e5350454354454400000000000000000000000000000000000000000000008152506040518060400160405280600781526020017f4558504952454400000000000000000000000000000000000000000000000000815250935093509350935090919293565b6000600360009054906101000a900473ffffffffffffffffffffffffffffffffffffffff1673ffffffffffffffffffffffffffffffffffffffff16638c4772fc336040518263ffffffff1660e01b8152600401610dbe9190613480565b60206040518083038186803b158015610dd657600080fd5b505afa158015610dea573d6000803e3d6000fd5b505050506040513d601f19601f82011682018060405250810190610e0e9190612ea9565b610e4d576040517f08c379a0000000000000000000000000000000000000000000000000000000008152600401610e4490613715565b60405180910390fd5b82610e5781611bd3565b610e96576040517f08c379a0000000000000000000000000000000000000000000000000000000008152600401610e8d90613635565b60405180910390fd5b83610ea081611de4565b610edf576040517f08c379a0000000000000000000000000000000000000000000000000000000008152600401610ed6906136b5565b60405180910390fd5b84610ee981611e84565b610f28576040517f08c379a0000000000000000000000000000000000000000000000000000000008152600401610f1f90613675565b60405180910390fd5b6000600160008881526020019081526020016000206040518060e0016040529081600082015481526020016001820160009054906101000a900460ff166003811115610f9d577f4e487b7100000000000000000000000000000000000000000000000000000000600052602160045260246000fd5b6003811115610fd5577f4e487b7100000000000000000000000000000000000000000000000000000000600052602160045260246000fd5b81526020016001820160019054906101000a900473ffffffffffffffffffffffffffffffffffffffff1673ffffffffffffffffffffffffffffffffffffffff1673ffffffffffffffffffffffffffffffffffffffff1681526020016002820160009054906101000a900473ffffffffffffffffffffffffffffffffffffffff1673ffffffffffffffffffffffffffffffffffffffff1673ffffffffffffffffffffffffffffffffffffffff168152602001600382015481526020016004820154815260200160058201548152505090506110af8187611ef2565b6110b8816120b7565b600460009054906101000a900473ffffffffffffffffffffffffffffffffffffffff1673ffffffffffffffffffffffffffffffffffffffff1663ab586c01826040015183608001516040518363ffffffff1660e01b815260040161111d9291906134c4565b600060405180830381600087803b15801561113757600080fd5b505af115801561114b573d6000803e3d6000fd5b50505050600460009054906101000a900473ffffffffffffffffffffffffffffffffffffffff1673ffffffffffffffffffffffffffffffffffffffff1663b08ab06182604001516107d06040518363ffffffff1660e01b81526004016111b29291906134ed565b600060405180830381600087803b1580156111cc57600080fd5b505af11580156111e0573d6000803e3d6000fd5b50505050600194505050505092915050565b6000600360009054906101000a900473ffffffffffffffffffffffffffffffffffffffff1673ffffffffffffffffffffffffffffffffffffffff16638c4772fc336040518263ffffffff1660e01b815260040161124f9190613480565b60206040518083038186803b15801561126757600080fd5b505afa15801561127b573d6000803e3d6000fd5b505050506040513d601f19601f8201168201806040525081019061129f9190612ea9565b6112de576040517f08c379a00000000000000000000000000000000000000000000000000000000081526004016112d590613715565b60405180910390fd5b816112e881611bd3565b611327576040517f08c379a000000000000000000000000000000000000000000000000000000000815260040161131e90613635565b60405180910390fd5b6000600160008581526020019081526020016000206040518060e0016040529081600082015481526020016001820160009054906101000a900460ff16600381111561139c577f4e487b7100000000000000000000000000000000000000000000000000000000600052602160045260246000fd5b60038111156113d4577f4e487b7100000000000000000000000000000000000000000000000000000000600052602160045260246000fd5b81526020016001820160019054906101000a900473ffffffffffffffffffffffffffffffffffffffff1673ffffffffffffffffffffffffffffffffffffffff1673ffffffffffffffffffffffffffffffffffffffff1681526020016002820160009054906101000a900473ffffffffffffffffffffffffffffffffffffffff1673ffffffffffffffffffffffffffffffffffffffff1673ffffffffffffffffffffffffffffffffffffffff16815260200160038201548152602001600482015481526020016005820154815250509050600060038111156114de577f4e487b7100000000000000000000000000000000000000000000000000000000600052602160045260246000fd5b8160200151600381111561151b577f4e487b7100000000000000000000000000000000000000000000000000000000600052602160045260246000fd5b1461155b576040517f08c379a000000000000000000000000000000000000000000000000000000000815260040161155290613655565b60405180910390fd5b60018160200190600381111561159a577f4e487b7100000000000000000000000000000000000000000000000000000000600052602160045260246000fd5b908160038111156115d4577f4e487b7100000000000000000000000000000000000000000000000000000000600052602160045260246000fd5b81525050428160c001818152505033816060019073ffffffffffffffffffffffffffffffffffffffff16908173ffffffffffffffffffffffffffffffffffffffff168152505080600160008681526020019081526020016000206000820151816000015560208201518160010160006101000a81548160ff02191690836003811115611689577f4e487b7100000000000000000000000000000000000000000000000000000000600052602160045260246000fd5b021790555060408201518160010160016101000a81548173ffffffffffffffffffffffffffffffffffffffff021916908373ffffffffffffffffffffffffffffffffffffffff16021790555060608201518160020160006101000a81548173ffffffffffffffffffffffffffffffffffffffff021916908373ffffffffffffffffffffffffffffffffffffffff1602179055506080820151816003015560a0820151816004015560c08201518160050155905050600360009054906101000a900473ffffffffffffffffffffffffffffffffffffffff1673ffffffffffffffffffffffffffffffffffffffff1663360912ab3360016040518363ffffffff1660e01b815260040161179b92919061349b565b600060405180830381600087803b1580156117b557600080fd5b505af11580156117c9573d6000803e3d6000fd5b50505050600192505050919050565b6060600060055467ffffffffffffffff81111561181e577f4e487b7100000000000000000000000000000000000000000000000000000000600052604160045260246000fd5b60405190808252806020026020018201604052801561185757816020015b611844612802565b81526020019060019003908161183c5790505b50905060005b600554811015611a4357600160006001836118789190613973565b81526020019081526020016000206040518060e0016040529081600082015481526020016001820160009054906101000a900460ff1660038111156118e6577f4e487b7100000000000000000000000000000000000000000000000000000000600052602160045260246000fd5b600381111561191e577f4e487b7100000000000000000000000000000000000000000000000000000000600052602160045260246000fd5b81526020016001820160019054906101000a900473ffffffffffffffffffffffffffffffffffffffff1673ffffffffffffffffffffffffffffffffffffffff1673ffffffffffffffffffffffffffffffffffffffff1681526020016002820160009054906101000a900473ffffffffffffffffffffffffffffffffffffffff1673ffffffffffffffffffffffffffffffffffffffff1673ffffffffffffffffffffffffffffffffffffffff1681526020016003820154815260200160048201548152602001600582015481525050828281518110611a25577f4e487b7100000000000000000000000000000000000000000000000000000000600052603260045260246000fd5b60200260200101819052508080611a3b90613b4c565b91505061185d565b508091505090565b611a53612802565b600160008381526020019081526020016000206040518060e0016040529081600082015481526020016001820160009054906101000a900460ff166003811115611ac6577f4e487b7100000000000000000000000000000000000000000000000000000000600052602160045260246000fd5b6003811115611afe577f4e487b7100000000000000000000000000000000000000000000000000000000600052602160045260246000fd5b81526020016001820160019054906101000a900473ffffffffffffffffffffffffffffffffffffffff1673ffffffffffffffffffffffffffffffffffffffff1673ffffffffffffffffffffffffffffffffffffffff1681526020016002820160009054906101000a900473ffffffffffffffffffffffffffffffffffffffff1673ffffffffffffffffffffffffffffffffffffffff1673ffffffffffffffffffffffffffffffffffffffff16815260200160038201548152602001600482015481526020016005820154815250509050919050565b600060018060008481526020019081526020016000206000015410159050919050565b60006040518060e001604052806001600554611c129190613973565b815260200160006003811115611c51577f4e487b7100000000000000000000000000000000000000000000000000000000600052602160045260246000fd5b81526020013373ffffffffffffffffffffffffffffffffffffffff1681526020013373ffffffffffffffffffffffffffffffffffffffff16815260200160008152602001438152602001600081525090508060016000836000015181526020019081526020016000206000820151816000015560208201518160010160006101000a81548160ff02191690836003811115611d15577f4e487b7100000000000000000000000000000000000000000000000000000000600052602160045260246000fd5b021790555060408201518160010160016101000a81548173ffffffffffffffffffffffffffffffffffffffff021916908373ffffffffffffffffffffffffffffffffffffffff16021790555060608201518160020160006101000a81548173ffffffffffffffffffffffffffffffffffffffff021916908373ffffffffffffffffffffffffffffffffffffffff1602179055506080820151816003015560a0820151816004015560c0820151816005015590505060056000815480929190611ddc90613b4c565b919050555050565b600060016003811115611e20577f4e487b7100000000000000000000000000000000000000000000000000000000600052602160045260246000fd5b6001600084815260200190815260200160002060010160009054906101000a900460ff166003811115611e7c577f4e487b7100000000000000000000000000000000000000000000000000000000600052602160045260246000fd5b149050919050565b60003373ffffffffffffffffffffffffffffffffffffffff166001600084815260200190815260200160002060020160009054906101000a900473ffffffffffffffffffffffffffffffffffffffff1673ffffffffffffffffffffffffffffffffffffffff16149050919050565b600282602001906003811115611f31577f4e487b7100000000000000000000000000000000000000000000000000000000600052602160045260246000fd5b90816003811115611f6b577f4e487b7100000000000000000000000000000000000000000000000000000000600052602160045260246000fd5b81525050428260c0018181525050611f8382826125f4565b8260800181815250508160016000846000015181526020019081526020016000206000820151816000015560208201518160010160006101000a81548160ff02191690836003811115611fff577f4e487b7100000000000000000000000000000000000000000000000000000000600052602160045260246000fd5b021790555060408201518160010160016101000a81548173ffffffffffffffffffffffffffffffffffffffff021916908373ffffffffffffffffffffffffffffffffffffffff16021790555060608201518160020160006101000a81548173ffffffffffffffffffffffffffffffffffffffff021916908373ffffffffffffffffffffffffffffffffffffffff1602179055506080820151816003015560a0820151816004015560c082015181600501559050505050565b600081604001519050600082606001519050600360009054906101000a900473ffffffffffffffffffffffffffffffffffffffff1673ffffffffffffffffffffffffffffffffffffffff1663360912ab8260006040518363ffffffff1660e01b815260040161212792919061349b565b600060405180830381600087803b15801561214157600080fd5b505af1158015612155573d6000803e3d6000fd5b50505050600360009054906101000a900473ffffffffffffffffffffffffffffffffffffffff1673ffffffffffffffffffffffffffffffffffffffff1663c19c9037826040518263ffffffff1660e01b81526004016121b49190613480565b600060405180830381600087803b1580156121ce57600080fd5b505af11580156121e2573d6000803e3d6000fd5b50505050600460009054906101000a900473ffffffffffffffffffffffffffffffffffffffff1673ffffffffffffffffffffffffffffffffffffffff1663360912ab8360006040518363ffffffff1660e01b815260040161224492919061349b565b600060405180830381600087803b15801561225e57600080fd5b505af1158015612272573d6000803e3d6000fd5b50505050600460009054906101000a900473ffffffffffffffffffffffffffffffffffffffff1673ffffffffffffffffffffffffffffffffffffffff1663c19c9037836040518263ffffffff1660e01b81526004016122d19190613480565b600060405180830381600087803b1580156122eb57600080fd5b505af11580156122ff573d6000803e3d6000fd5b505050506000808373ffffffffffffffffffffffffffffffffffffffff1673ffffffffffffffffffffffffffffffffffffffff1681526020019081526020016000208390806001815401808255809150506001900390600052602060002090600602016000909190919091506000820151816000015560208201518160010160006101000a81548160ff021916908360038111156123c6577f4e487b7100000000000000000000000000000000000000000000000000000000600052602160045260246000fd5b021790555060408201518160010160016101000a81548173ffffffffffffffffffffffffffffffffffffffff021916908373ffffffffffffffffffffffffffffffffffffffff16021790555060608201518160020160006101000a81548173ffffffffffffffffffffffffffffffffffffffff021916908373ffffffffffffffffffffffffffffffffffffffff1602179055506080820151816003015560a0820151816004015560c0820151816005015550506000808273ffffffffffffffffffffffffffffffffffffffff1673ffffffffffffffffffffffffffffffffffffffff1681526020019081526020016000208390806001815401808255809150506001900390600052602060002090600602016000909190919091506000820151816000015560208201518160010160006101000a81548160ff0219169083600381111561253c577f4e487b7100000000000000000000000000000000000000000000000000000000600052602160045260246000fd5b021790555060408201518160010160016101000a81548173ffffffffffffffffffffffffffffffffffffffff021916908373ffffffffffffffffffffffffffffffffffffffff16021790555060608201518160020160006101000a81548173ffffffffffffffffffffffffffffffffffffffff021916908373ffffffffffffffffffffffffffffffffffffffff1602179055506080820151816003015560a0820151816004015560c082015181600501555050505050565b6000806040518060a00160405280600a815260200160058152602001600081526020017ffffffffffffffffffffffffffffffffffffffffffffffffffffffffffffffffb81526020017ffffffffffffffffffffffffffffffffffffffffffffffffffffffffffffffff68152509050600080600090505b84518160ff1610156127f6576002600087600001518152602001908152602001600020858260ff16815181106126ca577f4e487b7100000000000000000000000000000000000000000000000000000000600052603260045260246000fd5b602002602001015190806001815401808255809150506001900390600052602060002090600402016000909190919091506000820151816000015560208201518160010155604082015181600201908051906020019061272b9291906128a3565b5060608201518160030190805190602001906127489291906128a3565b5050506000858260ff1681518110612789577f4e487b7100000000000000000000000000000000000000000000000000000000600052603260045260246000fd5b60200260200101516020015190508381600581106127d0577f4e487b7100000000000000000000000000000000000000000000000000000000600052603260045260246000fd5b6020020151836127e091906138df565b92505080806127ee90613b95565b91505061266b565b50809250505092915050565b6040518060e00160405280600081526020016000600381111561284e577f4e487b7100000000000000000000000000000000000000000000000000000000600052602160045260246000fd5b8152602001600073ffffffffffffffffffffffffffffffffffffffff168152602001600073ffffffffffffffffffffffffffffffffffffffff1681526020016000815260200160008152602001600081525090565b8280546128af90613ae9565b90600052602060002090601f0160209004810192826128d15760008555612918565b82601f106128ea57805160ff1916838001178555612918565b82800160010185558215612918579182015b828111156129175782518255916020019190600101906128fc565b5b5090506129259190612929565b5090565b5b8082111561294257600081600090555060010161292a565b5090565b6000612959612954846137e3565b6137be565b9050808382526020820190508260005b85811015612999578135850161297f8882612af1565b845260208401935060208301925050600181019050612969565b5050509392505050565b60006129b66129b18461380f565b6137be565b9050828152602081018484840111156129ce57600080fd5b6129d9848285613aa7565b509392505050565b60006129f46129ef8461380f565b6137be565b905082815260208101848484011115612a0c57600080fd5b612a17848285613ab6565b509392505050565b600081519050612a2e81613de8565b92915050565b600082601f830112612a4557600080fd5b8135612a55848260208601612946565b91505092915050565b600081519050612a6d81613dff565b92915050565b600081519050612a8281613e16565b92915050565b600081519050612a9781613e26565b92915050565b600082601f830112612aae57600080fd5b8135612abe8482602086016129a3565b91505092915050565b600082601f830112612ad857600080fd5b8151612ae88482602086016129e1565b91505092915050565b600060808284031215612b0357600080fd5b612b0d60806137be565b90506000612b1d84828501612e7f565b6000830152506020612b3184828501612e7f565b602083015250604082013567ffffffffffffffff811115612b5157600080fd5b612b5d84828501612a9d565b604083015250606082013567ffffffffffffffff811115612b7d57600080fd5b612b8984828501612a9d565b60608301525092915050565b600060408284031215612ba757600080fd5b612bb160406137be565b90506000612bc184828501612a88565b6000830152506020612bd584828501612a88565b60208301525092915050565b60006101c08284031215612bf457600080fd5b612bff6101806137be565b90506000612c0f84828501612e94565b6000830152506020612c2384828501612a1f565b6020830152506040612c3784828501612a73565b604083015250606082015167ffffffffffffffff811115612c5757600080fd5b612c6384828501612ac7565b606083015250608082015167ffffffffffffffff811115612c8357600080fd5b612c8f84828501612ac7565b60808301525060a082015167ffffffffffffffff811115612caf57600080fd5b612cbb84828501612ac7565b60a08301525060c0612ccf84828501612a5e565b60c08301525060e0612ce384828501612e94565b60e083015250610100612cf884828501612e94565b61010083015250610120612d0e84828501612b95565b61012083015250610160612d2484828501612e33565b610140830152506101a082015167ffffffffffffffff811115612d4657600080fd5b612d5284828501612d5f565b6101608301525092915050565b600060808284031215612d7157600080fd5b612d7b60806137be565b9050600082015167ffffffffffffffff811115612d9757600080fd5b612da384828501612ac7565b600083015250602082015167ffffffffffffffff811115612dc357600080fd5b612dcf84828501612ac7565b602083015250604082015167ffffffffffffffff811115612def57600080fd5b612dfb84828501612ac7565b604083015250606082015167ffffffffffffffff811115612e1b57600080fd5b612e2784828501612ac7565b60608301525092915050565b600060408284031215612e4557600080fd5b612e4f60406137be565b90506000612e5f84828501612e94565b6000830152506020612e7384828501612a5e565b60208301525092915050565b600081359050612e8e81613e3d565b92915050565b600081519050612ea381613e3d565b92915050565b600060208284031215612ebb57600080fd5b6000612ec984828501612a5e565b91505092915050565b600060208284031215612ee457600080fd5b600082015167ffffffffffffffff811115612efe57600080fd5b612f0a84828501612be1565b91505092915050565b600060208284031215612f2557600080fd5b6000612f3384828501612e7f565b91505092915050565b60008060408385031215612f4f57600080fd5b6000612f5d85828601612e7f565b925050602083013567ffffffffffffffff811115612f7a57600080fd5b612f8685828601612a34565b9150509250929050565b60008060408385031215612fa357600080fd5b6000612fb185828601612e7f565b9250506020612fc285828601612e7f565b9150509250929050565b6000612fd883836132dc565b60e08301905092915050565b6000612ff083836133f8565b905092915050565b613001816139c9565b82525050565b613010816139c9565b82525050565b600061302182613860565b61302b818561389b565b935061303683613840565b8060005b8381101561306757815161304e8882612fcc565b975061305983613881565b92505060018101905061303a565b5085935050505092915050565b600061307f8261386b565b61308981856138ac565b93508360208202850161309b85613850565b8060005b858110156130d757848403895281516130b88582612fe4565b94506130c38361388e565b925060208a0199505060018101905061309f565b50829750879550505050505092915050565b6130f2816139db565b82525050565b61310181613a3b565b82525050565b61311081613a5f565b82525050565b61311f81613a83565b82525050565b61312e816139fa565b82525050565b61313d816139fa565b82525050565b61314c81613a95565b82525050565b600061315d82613876565b61316781856138bd565b9350613177818560208601613ab6565b61318081613c7b565b840191505092915050565b600061319682613876565b6131a081856138ce565b93506131b0818560208601613ab6565b6131b981613c7b565b840191505092915050565b60006131d1601c836138ce565b91506131dc82613c8c565b602082019050919050565b60006131f4601b836138ce565b91506131ff82613cb5565b602082019050919050565b60006132176020836138ce565b915061322282613cde565b602082019050919050565b600061323a6018836138ce565b915061324582613d07565b602082019050919050565b600061325d601d836138ce565b915061326882613d30565b602082019050919050565b60006132806011836138ce565b915061328b82613d59565b602082019050919050565b60006132a3601b836138ce565b91506132ae82613d82565b602082019050919050565b60006132c6601b836138ce565b91506132d182613dab565b602082019050919050565b60e0820160008201516132f26000850182613462565b5060208201516133056020850182613116565b5060408201516133186040850182612ff8565b50606082015161332b6060850182612ff8565b50608082015161333e6080850182613125565b5060a082015161335160a0850182613462565b5060c082015161336460c0850182613462565b50505050565b60e0820160008201516133806000850182613462565b5060208201516133936020850182613116565b5060408201516133a66040850182612ff8565b5060608201516133b96060850182612ff8565b5060808201516133cc6080850182613125565b5060a08201516133df60a0850182613462565b5060c08201516133f260c0850182613462565b50505050565b60006080830160008301516134106000860182613462565b5060208301516134236020860182613462565b506040830151848203604086015261343b8282613152565b915050606083015184820360608601526134558282613152565b9150508091505092915050565b61346b81613a24565b82525050565b61347a81613a24565b82525050565b60006020820190506134956000830184613007565b92915050565b60006040820190506134b06000830185613007565b6134bd60208301846130e9565b9392505050565b60006040820190506134d96000830185613007565b6134e66020830184613134565b9392505050565b60006040820190506135026000830185613007565b61350f6020830184613143565b9392505050565b600060408201905061352b6000830185613007565b6135386020830184613471565b9392505050565b600060208201905081810360008301526135598184613016565b905092915050565b6000602082019050818103600083015261357b8184613074565b905092915050565b600060208201905061359860008301846130e9565b92915050565b60006020820190506135b360008301846130f8565b92915050565b60006020820190506135ce6000830184613107565b92915050565b600060808201905081810360008301526135ee818761318b565b90508181036020830152613602818661318b565b90508181036040830152613616818561318b565b9050818103606083015261362a818461318b565b905095945050505050565b6000602082019050818103600083015261364e816131c4565b9050919050565b6000602082019050818103600083015261366e816131e7565b9050919050565b6000602082019050818103600083015261368e8161320a565b9050919050565b600060208201905081810360008301526136ae8161322d565b9050919050565b600060208201905081810360008301526136ce81613250565b9050919050565b600060208201905081810360008301526136ee81613273565b9050919050565b6000602082019050818103600083015261370e81613296565b9050919050565b6000602082019050818103600083015261372e816132b9565b9050919050565b600060e08201905061374a600083018461336a565b92915050565b60006020820190506137656000830184613471565b92915050565b60006080820190506137806000830187613471565b61378d6020830186613471565b818103604083015261379f818561318b565b905081810360608301526137b3818461318b565b905095945050505050565b60006137c86137d9565b90506137d48282613b1b565b919050565b6000604051905090565b600067ffffffffffffffff8211156137fe576137fd613c4c565b5b602082029050602081019050919050565b600067ffffffffffffffff82111561382a57613829613c4c565b5b61383382613c7b565b9050602081019050919050565b6000819050602082019050919050565b6000819050602082019050919050565b600081519050919050565b600081519050919050565b600081519050919050565b6000602082019050919050565b6000602082019050919050565b600082825260208201905092915050565b600082825260208201905092915050565b600082825260208201905092915050565b600082825260208201905092915050565b60006138ea826139fa565b91506138f5836139fa565b9250817f7fffffffffffffffffffffffffffffffffffffffffffffffffffffffffffffff038313600083121516156139305761392f613bbf565b5b817f800000000000000000000000000000000000000000000000000000000000000003831260008312161561396857613967613bbf565b5b828201905092915050565b600061397e82613a24565b915061398983613a24565b9250827fffffffffffffffffffffffffffffffffffffffffffffffffffffffffffffffff038211156139be576139bd613bbf565b5b828201905092915050565b60006139d482613a04565b9050919050565b60008115159050919050565b60008190506139f582613dd4565b919050565b6000819050919050565b600073ffffffffffffffffffffffffffffffffffffffff82169050919050565b6000819050919050565b600060ff82169050919050565b6000613a4682613a4d565b9050919050565b6000613a5882613a04565b9050919050565b6000613a6a82613a71565b9050919050565b6000613a7c82613a04565b9050919050565b6000613a8e826139e7565b9050919050565b6000613aa082613a24565b9050919050565b82818337600083830152505050565b60005b83811015613ad4578082015181840152602081019050613ab9565b83811115613ae3576000848401525b50505050565b60006002820490506001821680613b0157607f821691505b60208210811415613b1557613b14613c1d565b5b50919050565b613b2482613c7b565b810181811067ffffffffffffffff82111715613b4357613b42613c4c565b5b80604052505050565b6000613b5782613a24565b91507fffffffffffffffffffffffffffffffffffffffffffffffffffffffffffffffff821415613b8a57613b89613bbf565b5b600182019050919050565b6000613ba082613a2e565b915060ff821415613bb457613bb3613bbf565b5b600182019050919050565b7f4e487b7100000000000000000000000000000000000000000000000000000000600052601160045260246000fd5b7f4e487b7100000000000000000000000000000000000000000000000000000000600052602160045260246000fd5b7f4e487b7100000000000000000000000000000000000000000000000000000000600052602260045260246000fd5b7f4e487b7100000000000000000000000000000000000000000000000000000000600052604160045260246000fd5b6000601f19601f8301169050919050565b7f5468697320696e7370656374696f6e20646f6e27742065786973747300000000600082015250565b7f5468697320696e7370656374696f6e206973206e6f74204f50454e0000000000600082015250565b7f596f75206e6f74206163636570746564207468697320696e7370656374696f6e600082015250565b7f52657175657374204f50454e206f722041434345505445440000000000000000600082015250565b7f416363657074207468697320696e7370656374696f6e206265666f7265000000600082015250565b7f526563656e7420696e7370656374696f6e000000000000000000000000000000600082015250565b7f506c656173652072656769737465722061732070726f64756365720000000000600082015250565b7f506c656173652072656769737465722061732061637469766973740000000000600082015250565b60048110613de557613de4613bee565b5b50565b613df1816139c9565b8114613dfc57600080fd5b50565b613e08816139db565b8114613e1357600080fd5b50565b60088110613e2357600080fd5b50565b613e2f816139fa565b8114613e3a57600080fd5b50565b613e4681613a24565b8114613e5157600080fd5b5056fea2646970667358221220a39dfb97943b5e3fd9b349ff2f79ba23d8080baa213231c4ad35c6e64f347fe264736f6c63430008020033",
  "immutableReferences": {},
  "source": "// SPDX-License-Identifier: GPL-3.0\r\npragma solidity >=0.7.0 <=0.9.0;\r\n\r\nimport \"./ProducerContract.sol\";\r\nimport \"./ActivistContract.sol\";\r\nimport \"./CategoryContract.sol\";\r\nimport \"./types/InspectionTypes.sol\";\r\n\r\n/**\r\n * @title SintropContract\r\n * @dev Sintrop application to certificated a rural producer\r\n */\r\ncontract Sintrop {\r\n  mapping(address => Inspection[]) internal userInspections;\r\n  mapping(uint256 => Inspection) internal inspections;\r\n  mapping(uint256 => IsaInspection[]) public isas;\r\n\r\n  ActivistContract public activistContract;\r\n  ProducerContract public producerContract;\r\n\r\n  uint256 public inspectionsCount;\r\n  uint256 internal timeBetweenInspections;\r\n\r\n  constructor(\r\n    address activistContractAddress,\r\n    address producerContractAddress,\r\n    uint256 timeBetweenInspections_\r\n  ) {\r\n    activistContract = ActivistContract(activistContractAddress);\r\n    producerContract = ProducerContract(producerContractAddress);\r\n    timeBetweenInspections = timeBetweenInspections_;\r\n  }\r\n\r\n  /**\r\n   * @dev Allows the current user producer/activist get all yours inspections with status INSPECTED\r\n   */\r\n  function getInspectionsHistory() public view returns (Inspection[] memory) {\r\n    return userInspections[msg.sender];\r\n  }\r\n\r\n  /**\r\n   * @dev List IsaInspection from inspection\r\n   * @param inspectionId The id of the inspection to get IsaInspection\r\n   */\r\n  function getIsa(uint256 inspectionId) public view returns (IsaInspection[] memory) {\r\n    return isas[inspectionId];\r\n  }\r\n\r\n  /**\r\n   * @dev Allows the current user (producer) request a inspection.\r\n   */\r\n  function requestInspection()\r\n    public\r\n    requireProducer\r\n    requireNoInspectionsOpen\r\n    requireNoRecentInspection\r\n  {\r\n    newRequest();\r\n\r\n    producerContract.recentInspection(msg.sender, true);\r\n    producerContract.lastRequestAt(msg.sender, block.number);\r\n  }\r\n\r\n  function newRequest() internal {\r\n    Inspection memory inspection = Inspection(\r\n      inspectionsCount + 1,\r\n      InspectionStatus.OPEN,\r\n      msg.sender,\r\n      msg.sender,\r\n      0,\r\n      block.number,\r\n      0\r\n    );\r\n    inspections[inspection.id] = inspection;\r\n    inspectionsCount++;\r\n  }\r\n\r\n  /**\r\n   * @dev Allows the current user (activist) accept a inspection.\r\n   * @param inspectionId The id of the inspection that the activist want accept.\r\n   */\r\n  function acceptInspection(uint256 inspectionId)\r\n    public\r\n    requireActivist\r\n    requireInspectionExists(inspectionId)\r\n    returns (bool)\r\n  {\r\n    Inspection memory inspection = inspections[inspectionId];\r\n\r\n    require(inspection.status == InspectionStatus.OPEN, \"This inspection is not OPEN\");\r\n\r\n    inspection.status = InspectionStatus.ACCEPTED;\r\n    inspection.updatedAt = block.timestamp;\r\n    inspection.acceptedBy = msg.sender;\r\n    inspections[inspectionId] = inspection;\r\n\r\n    activistContract.recentInspection(msg.sender, true);\r\n\r\n    return true;\r\n  }\r\n\r\n  /**\r\n   * @dev Allow a activist realize a inspection and mark as INSPECTED\r\n   * @param inspectionId The id of the inspection to be realized\r\n   * @param _isas The IsaIsaInspection[] of the inspection to be realized\r\n   */\r\n  function realizeInspection(uint256 inspectionId, IsaInspection[] memory _isas)\r\n    public\r\n    requireActivist\r\n    requireInspectionExists(inspectionId)\r\n    requireInspectionAccepted(inspectionId)\r\n    requireInspectionOwner(inspectionId)\r\n    returns (bool)\r\n  {\r\n    Inspection memory inspection = inspections[inspectionId];\r\n\r\n    markAsRealized(inspection, _isas);\r\n\r\n    afterRealizeInspection(inspection);\r\n\r\n    producerContract.updateIsaScore(inspection.createdBy, inspection.isaScore);\r\n\r\n    producerContract.approveProducerNewTokens(inspection.createdBy, 2000);\r\n\r\n    return true;\r\n  }\r\n\r\n  function markAsRealized(Inspection memory inspection, IsaInspection[] memory _isas) internal {\r\n    inspection.status = InspectionStatus.INSPECTED;\r\n    inspection.updatedAt = block.timestamp;\r\n    inspection.isaScore = calculateIsa(inspection, _isas);\r\n    inspections[inspection.id] = inspection;\r\n  }\r\n\r\n  function calculateIsa(Inspection memory inspection, IsaInspection[] memory _isas)\r\n    internal\r\n    returns (int256)\r\n  {\r\n    int256[5] memory points = [int256(10), 5, 0, -5, -10];\r\n    int256 isaScore;\r\n\r\n    for (uint8 i = 0; i < _isas.length; i++) {\r\n      isas[inspection.id].push(_isas[i]);\r\n      uint256 isaIndex = _isas[i].isaIndex;\r\n      isaScore += points[isaIndex];\r\n    }\r\n\r\n    return isaScore;\r\n  }\r\n\r\n  /**\r\n   * @dev Inscrement producer and activist request action and mark both as no recent open requests and inspection\r\n   * @param inspection the inspected inspection\r\n   */\r\n  function afterRealizeInspection(Inspection memory inspection) internal {\r\n    address createdBy = inspection.createdBy;\r\n    address acceptedBy = inspection.acceptedBy;\r\n\r\n    // Increment actvist inspections and release to carry out new inspections\r\n    activistContract.recentInspection(acceptedBy, false);\r\n    activistContract.incrementRequests(acceptedBy);\r\n\r\n    // Increment producer requests and release to carry out new requests\r\n    producerContract.recentInspection(createdBy, false);\r\n    producerContract.incrementRequests(createdBy);\r\n\r\n    userInspections[createdBy].push(inspection);\r\n    userInspections[acceptedBy].push(inspection);\r\n  }\r\n\r\n  /**\r\n   * @dev Returns a inspection by id if that exists.\r\n   * @param id The id of the inspection to return.\r\n   */\r\n  function getInspection(uint256 id) public view returns (Inspection memory) {\r\n    return inspections[id];\r\n  }\r\n\r\n  /**\r\n   * @dev Returns all requested inspections.\r\n   */\r\n  function getInspections() public view returns (Inspection[] memory) {\r\n    Inspection[] memory inspectionsList = new Inspection[](inspectionsCount);\r\n\r\n    for (uint256 i = 0; i < inspectionsCount; i++) {\r\n      inspectionsList[i] = inspections[i + 1];\r\n    }\r\n\r\n    return inspectionsList;\r\n  }\r\n\r\n  /**\r\n   * @dev Returns all inpections status string.\r\n   */\r\n  function getInspectionsStatus()\r\n    public\r\n    pure\r\n    returns (\r\n      string memory,\r\n      string memory,\r\n      string memory,\r\n      string memory\r\n    )\r\n  {\r\n    return (\"OPEN\", \"ACCEPTED\", \"INSPECTED\", \"EXPIRED\");\r\n  }\r\n\r\n  /**\r\n   * @dev Check if an inspections exists in mapping.\r\n   * @param id The id of the inspection that the activist want accept.\r\n   */\r\n  function inspectionExists(uint256 id) public view returns (bool) {\r\n    return inspections[id].id >= 1;\r\n  }\r\n\r\n  function isActivistOwner(uint256 inspectionId) internal view returns (bool) {\r\n    return inspections[inspectionId].acceptedBy == msg.sender;\r\n  }\r\n\r\n  function isAccepted(uint256 inspectionId) internal view returns (bool) {\r\n    return inspections[inspectionId].status == InspectionStatus.ACCEPTED;\r\n  }\r\n\r\n  function canRequestInspection() public view returns (bool) {\r\n    Producer memory producer = producerContract.getProducer(msg.sender);\r\n\r\n    uint256 lastRequestAt = producer.lastRequestAt;\r\n    bool canRequest = block.number > lastRequestAt + timeBetweenInspections;\r\n\r\n    return canRequest || lastRequestAt == 0;\r\n  }\r\n\r\n  // MODIFIERS\r\n\r\n  modifier requireActivist() {\r\n    require(activistContract.activistExists(msg.sender), \"Please register as activist\");\r\n    _;\r\n  }\r\n\r\n  modifier requireInspectionExists(uint256 inspectionId) {\r\n    require(inspectionExists(inspectionId), \"This inspection don't exists\");\r\n    _;\r\n  }\r\n\r\n  modifier requireProducer() {\r\n    require(producerContract.producerExists(msg.sender), \"Please register as producer\");\r\n    _;\r\n  }\r\n\r\n  modifier requireNoInspectionsOpen() {\r\n    require(!producerContract.getProducer(msg.sender).recentInspection, \"Request OPEN or ACCEPTED\");\r\n    _;\r\n  }\r\n\r\n  modifier requireNoRecentInspection() {\r\n    require(canRequestInspection(), \"Recent inspection\");\r\n    _;\r\n  }\r\n\r\n  modifier requireInspectionAccepted(uint256 inspectionId) {\r\n    require(isAccepted(inspectionId), \"Accept this inspection before\");\r\n    _;\r\n  }\r\n\r\n  modifier requireInspectionOwner(uint256 inspectionId) {\r\n    require(isActivistOwner(inspectionId), \"You not accepted this inspection\");\r\n    _;\r\n  }\r\n}\r\n",
  "sourcePath": "C:\\Users\\bruno.mestres\\Desktop\\Nova pasta (2)\\core-contracts\\contracts\\Sintrop.sol",
  "compiler": {
    "name": "solc",
    "version": "0.8.2+commit.661d1103.Emscripten.clang"
  },
  "schemaVersion": "3.4.8",
  "updatedAt": "2022-08-29T17:24:34.238Z",
  "networkType": "ethereum",
  "devdoc": {
    "details": "Sintrop application to certificated a rural producer",
    "kind": "dev",
    "methods": {
      "acceptInspection(uint256)": {
        "details": "Allows the current user (activist) accept a inspection.",
        "params": {
          "inspectionId": "The id of the inspection that the activist want accept."
        }
      },
      "getInspection(uint256)": {
        "details": "Returns a inspection by id if that exists.",
        "params": {
          "id": "The id of the inspection to return."
        }
      },
      "getInspections()": {
        "details": "Returns all requested inspections."
      },
      "getInspectionsHistory()": {
        "details": "Allows the current user producer/activist get all yours inspections with status INSPECTED"
      },
      "getInspectionsStatus()": {
        "details": "Returns all inpections status string."
      },
      "getIsa(uint256)": {
        "details": "List IsaInspection from inspection",
        "params": {
          "inspectionId": "The id of the inspection to get IsaInspection"
        }
      },
      "inspectionExists(uint256)": {
        "details": "Check if an inspections exists in mapping.",
        "params": {
          "id": "The id of the inspection that the activist want accept."
        }
      },
      "realizeInspection(uint256,(uint256,uint256,string,string)[])": {
        "details": "Allow a activist realize a inspection and mark as INSPECTED",
        "params": {
          "_isas": "The IsaIsaInspection[] of the inspection to be realized",
          "inspectionId": "The id of the inspection to be realized"
        }
      },
      "requestInspection()": {
        "details": "Allows the current user (producer) request a inspection."
      }
    },
    "title": "SintropContract",
    "version": 1
  },
  "userdoc": {
    "kind": "user",
    "methods": {},
    "version": 1
  }
}