{
  "contractName": "UserContract",
  "abi": [
    {
      "anonymous": false,
      "inputs": [
        {
          "indexed": true,
          "internalType": "address",
          "name": "previousOwner",
          "type": "address"
        },
        {
          "indexed": true,
          "internalType": "address",
          "name": "newOwner",
          "type": "address"
        }
      ],
      "name": "OwnershipTransferred",
      "type": "event"
    },
    {
      "inputs": [
        {
          "internalType": "address",
          "name": "",
          "type": "address"
        }
      ],
      "name": "allowedCallers",
      "outputs": [
        {
          "internalType": "bool",
          "name": "",
          "type": "bool"
        }
      ],
      "stateMutability": "view",
      "type": "function",
      "constant": true
    },
    {
      "inputs": [
        {
          "internalType": "address",
          "name": "caller",
          "type": "address"
        }
      ],
      "name": "isAllowedCaller",
      "outputs": [
        {
          "internalType": "bool",
          "name": "",
          "type": "bool"
        }
      ],
      "stateMutability": "view",
      "type": "function",
      "constant": true
    },
    {
      "inputs": [
        {
          "internalType": "address",
          "name": "allowed",
          "type": "address"
        }
      ],
      "name": "newAllowedCaller",
      "outputs": [],
      "stateMutability": "nonpayable",
      "type": "function"
    },
    {
      "inputs": [],
      "name": "owner",
      "outputs": [
        {
          "internalType": "address",
          "name": "",
          "type": "address"
        }
      ],
      "stateMutability": "view",
      "type": "function",
      "constant": true
    },
    {
      "inputs": [],
      "name": "renounceOwnership",
      "outputs": [],
      "stateMutability": "nonpayable",
      "type": "function"
    },
    {
      "inputs": [
        {
          "internalType": "address",
          "name": "newOwner",
          "type": "address"
        }
      ],
      "name": "transferOwnership",
      "outputs": [],
      "stateMutability": "nonpayable",
      "type": "function"
    },
    {
      "inputs": [],
      "name": "usersCount",
      "outputs": [
        {
          "internalType": "uint256",
          "name": "",
          "type": "uint256"
        }
      ],
      "stateMutability": "view",
      "type": "function",
      "constant": true
    },
    {
      "inputs": [
        {
          "internalType": "address",
          "name": "addr",
          "type": "address"
        },
        {
          "internalType": "enum UserType",
          "name": "userType",
          "type": "uint8"
        }
      ],
      "name": "addUser",
      "outputs": [],
      "stateMutability": "nonpayable",
      "type": "function"
    },
    {
      "inputs": [
        {
          "internalType": "address",
          "name": "addr",
          "type": "address"
        }
      ],
      "name": "getUser",
      "outputs": [
        {
          "internalType": "enum UserType",
          "name": "",
          "type": "uint8"
        }
      ],
      "stateMutability": "view",
      "type": "function",
      "constant": true
    },
    {
      "inputs": [],
      "name": "userTypes",
      "outputs": [
        {
          "internalType": "string",
          "name": "",
          "type": "string"
        },
        {
          "internalType": "string",
          "name": "",
          "type": "string"
        },
        {
          "internalType": "string",
          "name": "",
          "type": "string"
        },
        {
          "internalType": "string",
          "name": "",
          "type": "string"
        },
        {
          "internalType": "string",
          "name": "",
          "type": "string"
        },
        {
          "internalType": "string",
          "name": "",
          "type": "string"
        },
        {
          "internalType": "string",
          "name": "",
          "type": "string"
        },
        {
          "internalType": "string",
          "name": "",
          "type": "string"
        }
      ],
      "stateMutability": "pure",
      "type": "function",
      "constant": true
    }
  ],
  "bytecode": "0x608060405234801561001057600080fd5b5061002d61002261003260201b60201c565b61003a60201b60201c565b6100fe565b600033905090565b60008060009054906101000a900473ffffffffffffffffffffffffffffffffffffffff169050816000806101000a81548173ffffffffffffffffffffffffffffffffffffffff021916908373ffffffffffffffffffffffffffffffffffffffff1602179055508173ffffffffffffffffffffffffffffffffffffffff168173ffffffffffffffffffffffffffffffffffffffff167f8be0079c531659141344cd1fd0a4f28419497f9722a3daafe3b4186f6b6457e060405160405180910390a35050565b61111e8061010d6000396000f3fe608060405234801561001057600080fd5b506004361061009e5760003560e01c80638da5cb5b116100665780638da5cb5b146101505780638f93716f1461016e5780639c3eead91461018a578063a6801258146101a6578063f2fde38b146101d65761009e565b80632fadee0a146100a35780636ba13a82146100c85780636f77926b146100e6578063715018a6146101165780637b33415414610120575b600080fd5b6100ab6101f2565b6040516100bf989796959493929190610cd5565b60405180910390f35b6100d06103c8565b6040516100dd9190610e2b565b60405180910390f35b61010060048036038101906100fb9190610afb565b6103ce565b60405161010d9190610cba565b60405180910390f35b61011e610424565b005b61013a60048036038101906101359190610afb565b6104ac565b6040516101479190610c9f565b60405180910390f35b6101586104cc565b6040516101659190610c84565b60405180910390f35b61018860048036038101906101839190610afb565b6104f5565b005b6101a4600480360381019061019f9190610b24565b6105cb565b005b6101c060048036038101906101bb9190610afb565b6108b7565b6040516101cd9190610c9f565b60405180910390f35b6101f060048036038101906101eb9190610afb565b61090d565b005b6060806060806060806060806040518060400160405280600981526020017f554e444546494e454400000000000000000000000000000000000000000000008152506040518060400160405280600881526020017f50524f44554345520000000000000000000000000000000000000000000000008152506040518060400160405280600881526020017f41435449564953540000000000000000000000000000000000000000000000008152506040518060400160405280600a81526020017f52455345415243484552000000000000000000000000000000000000000000008152506040518060400160405280600981526020017f444556454c4f50455200000000000000000000000000000000000000000000008152506040518060400160405280600781526020017f41445649534f52000000000000000000000000000000000000000000000000008152506040518060400160405280600b81526020017f434f4e5452494255544f520000000000000000000000000000000000000000008152506040518060400160405280600881526020017f494e564553544f52000000000000000000000000000000000000000000000000815250975097509750975097509750975097509091929394959697565b60035481565b6000600260008373ffffffffffffffffffffffffffffffffffffffff1673ffffffffffffffffffffffffffffffffffffffff16815260200190815260200160002060009054906101000a900460ff169050919050565b61042c610a05565b73ffffffffffffffffffffffffffffffffffffffff1661044a6104cc565b73ffffffffffffffffffffffffffffffffffffffff16146104a0576040517f08c379a000000000000000000000000000000000000000000000000000000000815260040161049790610deb565b60405180910390fd5b6104aa6000610a0d565b565b60016020528060005260406000206000915054906101000a900460ff1681565b60008060009054906101000a900473ffffffffffffffffffffffffffffffffffffffff16905090565b6104fd610a05565b73ffffffffffffffffffffffffffffffffffffffff1661051b6104cc565b73ffffffffffffffffffffffffffffffffffffffff1614610571576040517f08c379a000000000000000000000000000000000000000000000000000000000815260040161056890610deb565b60405180910390fd5b60018060008373ffffffffffffffffffffffffffffffffffffffff1673ffffffffffffffffffffffffffffffffffffffff16815260200190815260200160002060006101000a81548160ff02191690831515021790555050565b600160003373ffffffffffffffffffffffffffffffffffffffff1673ffffffffffffffffffffffffffffffffffffffff16815260200190815260200160002060009054906101000a900460ff16610657576040517f08c379a000000000000000000000000000000000000000000000000000000000815260040161064e90610e0b565b60405180910390fd5b8160006007811115610692577f4e487b7100000000000000000000000000000000000000000000000000000000600052602160045260246000fd5b600260008373ffffffffffffffffffffffffffffffffffffffff1673ffffffffffffffffffffffffffffffffffffffff16815260200190815260200160002060009054906101000a900460ff166007811115610717577f4e487b7100000000000000000000000000000000000000000000000000000000600052602160045260246000fd5b14610757576040517f08c379a000000000000000000000000000000000000000000000000000000000815260040161074e90610dcb565b60405180910390fd5b8160006007811115610792577f4e487b7100000000000000000000000000000000000000000000000000000000600052602160045260246000fd5b8160078111156107cb577f4e487b7100000000000000000000000000000000000000000000000000000000600052602160045260246000fd5b141561080c576040517f08c379a000000000000000000000000000000000000000000000000000000000815260040161080390610dab565b60405180910390fd5b82600260008673ffffffffffffffffffffffffffffffffffffffff1673ffffffffffffffffffffffffffffffffffffffff16815260200190815260200160002060006101000a81548160ff02191690836007811115610894577f4e487b7100000000000000000000000000000000000000000000000000000000600052602160045260246000fd5b0217905550600360008154809291906108ac90610f02565b919050555050505050565b6000600160008373ffffffffffffffffffffffffffffffffffffffff1673ffffffffffffffffffffffffffffffffffffffff16815260200190815260200160002060009054906101000a900460ff169050919050565b610915610a05565b73ffffffffffffffffffffffffffffffffffffffff166109336104cc565b73ffffffffffffffffffffffffffffffffffffffff1614610989576040517f08c379a000000000000000000000000000000000000000000000000000000000815260040161098090610deb565b60405180910390fd5b600073ffffffffffffffffffffffffffffffffffffffff168173ffffffffffffffffffffffffffffffffffffffff1614156109f9576040517f08c379a00000000000000000000000000000000000000000000000000000000081526004016109f090610d8b565b60405180910390fd5b610a0281610a0d565b50565b600033905090565b60008060009054906101000a900473ffffffffffffffffffffffffffffffffffffffff169050816000806101000a81548173ffffffffffffffffffffffffffffffffffffffff021916908373ffffffffffffffffffffffffffffffffffffffff1602179055508173ffffffffffffffffffffffffffffffffffffffff168173ffffffffffffffffffffffffffffffffffffffff167f8be0079c531659141344cd1fd0a4f28419497f9722a3daafe3b4186f6b6457e060405160405180910390a35050565b600081359050610ae0816110c1565b92915050565b600081359050610af5816110d8565b92915050565b600060208284031215610b0d57600080fd5b6000610b1b84828501610ad1565b91505092915050565b60008060408385031215610b3757600080fd5b6000610b4585828601610ad1565b9250506020610b5685828601610ae6565b9150509250929050565b610b6981610e62565b82525050565b610b7881610e74565b82525050565b610b8781610ebd565b82525050565b6000610b9882610e46565b610ba28185610e51565b9350610bb2818560208601610ecf565b610bbb81610fa9565b840191505092915050565b6000610bd3602683610e51565b9150610bde82610fba565b604082019050919050565b6000610bf6601183610e51565b9150610c0182611009565b602082019050919050565b6000610c19601383610e51565b9150610c2482611032565b602082019050919050565b6000610c3c602083610e51565b9150610c478261105b565b602082019050919050565b6000610c5f601283610e51565b9150610c6a82611084565b602082019050919050565b610c7e81610eb3565b82525050565b6000602082019050610c996000830184610b60565b92915050565b6000602082019050610cb46000830184610b6f565b92915050565b6000602082019050610ccf6000830184610b7e565b92915050565b6000610100820190508181036000830152610cf0818b610b8d565b90508181036020830152610d04818a610b8d565b90508181036040830152610d188189610b8d565b90508181036060830152610d2c8188610b8d565b90508181036080830152610d408187610b8d565b905081810360a0830152610d548186610b8d565b905081810360c0830152610d688185610b8d565b905081810360e0830152610d7c8184610b8d565b90509998505050505050505050565b60006020820190508181036000830152610da481610bc6565b9050919050565b60006020820190508181036000830152610dc481610be9565b9050919050565b60006020820190508181036000830152610de481610c0c565b9050919050565b60006020820190508181036000830152610e0481610c2f565b9050919050565b60006020820190508181036000830152610e2481610c52565b9050919050565b6000602082019050610e406000830184610c75565b92915050565b600081519050919050565b600082825260208201905092915050565b6000610e6d82610e93565b9050919050565b60008115159050919050565b6000819050610e8e826110ad565b919050565b600073ffffffffffffffffffffffffffffffffffffffff82169050919050565b6000819050919050565b6000610ec882610e80565b9050919050565b60005b83811015610eed578082015181840152602081019050610ed2565b83811115610efc576000848401525b50505050565b6000610f0d82610eb3565b91507fffffffffffffffffffffffffffffffffffffffffffffffffffffffffffffffff821415610f4057610f3f610f4b565b5b600182019050919050565b7f4e487b7100000000000000000000000000000000000000000000000000000000600052601160045260246000fd5b7f4e487b7100000000000000000000000000000000000000000000000000000000600052602160045260246000fd5b6000601f19601f8301169050919050565b7f4f776e61626c653a206e6577206f776e657220697320746865207a65726f206160008201527f6464726573730000000000000000000000000000000000000000000000000000602082015250565b7f496e76616c696420757365722074797065000000000000000000000000000000600082015250565b7f5573657220616c72656164792065786973747300000000000000000000000000600082015250565b7f4f776e61626c653a2063616c6c6572206973206e6f7420746865206f776e6572600082015250565b7f4e6f7420616c6c6f7765642063616c6c65720000000000000000000000000000600082015250565b600881106110be576110bd610f7a565b5b50565b6110ca81610e62565b81146110d557600080fd5b50565b600881106110e557600080fd5b5056fea26469706673582212207e1b2e0d9a6f6aa8ad1ee353132bba4e55e984762dfe3aacab7de83469fd710d64736f6c63430008020033",
  "immutableReferences": {},
  "source": "// SPDX-License-Identifier: GPL-3.0\r\npragma solidity >=0.7.0 <=0.9.0;\r\n\r\nimport \"@openzeppelin/contracts/access/Ownable.sol\";\r\nimport \"./types/UserTypes.sol\";\r\nimport \"./Callable.sol\";\r\n\r\n/**\r\n * @title UserContract\r\n * @dev This contract work as a centralized user's system, where all users has your userType here\r\n */\r\ncontract UserContract is Ownable, Callable {\r\n  mapping(address => UserType) internal users;\r\n\r\n  uint256 public usersCount;\r\n\r\n  /**\r\n   * @dev Add new user in the system\r\n   * @param addr The address of the user\r\n   * @param userType The type of the user - enum UserType\r\n   */\r\n  function addUser(address addr, UserType userType) public mustBeAllowedCaller mustNotExists(addr) mustBeValidType(userType) {\r\n    users[addr] = userType;\r\n    usersCount++;\r\n  }\r\n\r\n  /**\r\n   * @dev Returns the user type if the user is registered\r\n   * @param addr the user address that want check if exists\r\n   */\r\n  function getUser(address addr) public view returns (UserType) {\r\n    return users[addr];\r\n  }\r\n\r\n  /**\r\n   * @dev Returns the enum UserType of the system\r\n   */\r\n  function userTypes()\r\n    public\r\n    pure\r\n    returns (\r\n      string memory,\r\n      string memory,\r\n      string memory,\r\n      string memory,\r\n      string memory,\r\n      string memory,\r\n      string memory,\r\n      string memory\r\n    )\r\n  {\r\n    return (\r\n      \"UNDEFINED\",\r\n      \"PRODUCER\",\r\n      \"ACTIVIST\",\r\n      \"RESEARCHER\",\r\n      \"DEVELOPER\",\r\n      \"ADVISOR\",\r\n      \"CONTRIBUTOR\",\r\n      \"INVESTOR\"\r\n    );\r\n  }\r\n\r\n  // MODIFIER\r\n\r\n  modifier mustNotExists(address addr) {\r\n    require(users[addr] == UserType.UNDEFINED, \"User already exists\");\r\n    _;\r\n  }\r\n\r\n  /**\r\n   * @dev Modifier to check if user type is UNDEFINED when register\r\n   */\r\n  modifier mustBeValidType(UserType userType) {\r\n    require(userType != UserType.UNDEFINED, \"Invalid user type\");\r\n     _;\r\n  }\r\n}\r\n",
  "sourcePath": "C:\\Users\\bruno.mestres\\Desktop\\Nova pasta (2)\\core-contracts\\contracts\\UserContract.sol",
  "compiler": {
    "name": "solc",
    "version": "0.8.2+commit.661d1103.Emscripten.clang"
  },
  "schemaVersion": "3.4.8",
  "updatedAt": "2022-08-29T17:24:34.506Z",
  "networkType": "ethereum",
  "devdoc": {
    "details": "This contract work as a centralized user's system, where all users has your userType here",
    "kind": "dev",
    "methods": {
      "addUser(address,uint8)": {
        "details": "Add new user in the system",
        "params": {
          "addr": "The address of the user",
          "userType": "The type of the user - enum UserType"
        }
      },
      "getUser(address)": {
        "details": "Returns the user type if the user is registered",
        "params": {
          "addr": "the user address that want check if exists"
        }
      },
      "owner()": {
        "details": "Returns the address of the current owner."
      },
      "renounceOwnership()": {
        "details": "Leaves the contract without owner. It will not be possible to call `onlyOwner` functions anymore. Can only be called by the current owner. NOTE: Renouncing ownership will leave the contract without an owner, thereby removing any functionality that is only available to the owner."
      },
      "transferOwnership(address)": {
        "details": "Transfers ownership of the contract to a new account (`newOwner`). Can only be called by the current owner."
      },
      "userTypes()": {
        "details": "Returns the enum UserType of the system"
      }
    },
    "title": "UserContract",
    "version": 1
  },
  "userdoc": {
    "kind": "user",
    "methods": {},
    "version": 1
  }
}